:100000000C94C3010C940A020C940A020C940A0288
:100010000C940A020C940A020C940A020C940A0230
:100020000C940A020C940A020C9427200C94FA20D7
:100030000C94451B0C940A020C940A020C940A02BC
:100040000C940A020C940A020C940A020C940A0200
:100050000C940A020C94B01B0C940A020C940A0231
:100060000C940A020C940A020C940A020C940A02E0
:100070000C940A020C940A020C940A020C940A02D0
:100080000C940A020C940A020C940A020C940A02C0
:100090000C940A020C940A020C940A020C940A02B0
:1000A0000C940A020C940A020C940A0205001A002D
:1000B0001500070014000A0017620B61167404682B
:1000C0001900060010001B001D00E2002B432C410C
:1000D000000000000D000900180013002A001C0099
:1000E0001172087112740C780E000F003600370080
:1000F00000001450E5002842000000004C00E10020
:10010000A85DA75D29002A004F0051005200500051
:100110002800E600AA5DA95D2B0001000100010096
:10012000000000002D002400250026002E005400B1
:10013000210022002300270055001E001F00200080
:1001400063000100010001000000000045004400C0
:10015000430042002900410040003F003E00E10012
:100160003D003C003B003A00E000010001000100BE
:10017000000000004A004B00A900A800AE004D009E
:100180005000510052004F00AC004E00AA00AB00DE
:10019000000001000100010000000000000030002C
:1001A0002F00370236020000F75CD85C1F021E02E7
:1001B000000030022F022302220201000100010090
:1001C000000000002D02200221022D003500380021
:1001D0003302380233003400340231003102350278
:1001E0000000010001000100000000001A001500DD
:1001F00007001400290017000B0016000400E1009E
:10020000060010001B001D00E00001002C00010092
:10021000000000000D000900180013002A001C0057
:100220001100080012000C000E000F00360037000D
:100230000000105001002800000000002C034100C5
:10024000620073006F006C0065006D0020005000BC
:10025000430042002000500072006F0074006F00E5
:10026000720079007000650000000E035A006500FE
:1002700061006C006F0074000000040309040902AF
:100280003B00020100A0FA09040000010301010083
:100290000921110100012240000705810308000A1D
:1002A00009040100010300000009211101000122DD
:1002B0007B000705820320000A12010002000000F3
:1002C0000880BB0D0401000102000105010902A123
:1002D0000185020901A10005091901290815002558
:1002E0000195087501810205010930093115812543
:1002F0007F95027508810609381581257F9501755E
:10030000088106050C0A38021581257F95017508BC
:100310008106C0C005010980A101850319012AB722
:1003200000150126B700950175108100C0050C0964
:1003300001A101850419012AA002150126A0029538
:100340000175108100C005010906A101050719E02A
:1003500029E71500250195087501810295017508A9
:1003600081010507190029FF150026FF0095067574
:100370000881000508190129059505750191029567
:100380000175039101C011241FBECFEFDAE0DEBF7B
:10039000CDBF04B603FE27C0809158029091590248
:1003A000A0915A02B0915B028730904BA740B04BAE
:1003B000D1F4109258021092590210925A021092DF
:1003C0005B0214BE84B7877F84BF0FB6F894A895EC
:1003D00080916000886180936000109260000FBE81
:1003E000E0E0F8E3099511E0A0E0B1E0E8E3F7E42C
:1003F00002C005900D92A238B107D9F722E0A2E819
:10040000B1E001C01D92A835B207E1F70E948A143D
:100410000C942C230C940000769A0C9433130F93B5
:100420001F93CF93DF93EC018B0180918901882387
:1004300091F0FB018281882371F0C53ED105C1F0A6
:10044000E8F4CE01815E9109029790F082EE0E945D
:10045000440410928901C93A8DE5D80709F453C0C4
:1004600048F5C73AFDE5DF0769F0C83ADD45B1F167
:1004700081E0DF91CF911F910F910895C73AFDE57B
:10048000DF0721F7F8018281882321F1809189011A
:10049000811106C081E08093890182EE0E94F203FF
:1004A0000E94751B90938701809386018BE20E94C6
:1004B000F203DECFCA3AEDE5DE0799F1CB3ADD452E
:1004C000B9F6F80182818823B9F180EE0E94F20327
:1004D00089E1EDCF8BE20E944404CACFF80182810A
:1004E0008823C1F380918801811106C081E0809347
:1004F000880180EE0E94F2030E94751B9093850193
:1005000080938401D3CFF8018281882329F082EE81
:100510000E94F2038DE3CBCF8DE30E94440482EE70
:10052000DACFF8018281882311F080EEF1CF8DE3DC
:100530000E94440480EECFCF89E1FACF80918901F7
:10054000882371F080918601909187010E94A11B00
:10055000853F914028F082EE0E9444041092890168
:1005600080918801882371F08091840190918501A8
:100570000E94A11B853F914028F080EE0E94440418
:1005800010928801089581E008950C940F02089557
:100590000C94C7021F93CF93DF9300D000D00F922B
:1005A000CDB7DEB749835A836B8330918A01898145
:1005B0009A8131111DC06623B9F02223A9F00E944F
:1005C000110A182F682F89819A810E94BA096981BE
:1005D0007A81812F0F900F900F900F900F90DF91E5
:1005E000CF911F910C94EB100E94E809182FEFCFC8
:1005F0000E94110A69817A81EDCFFC01262F40818A
:1006000051816281738184810C94CA0281E00895D2
:10061000CF93DF93D82FC92F60E00E94FD026D2F8A
:100620007C2FDF91CF910C94C8020E94FB120E9494
:1006300092030C940C020C94341380E00C949303FA
:10064000089508950E9493070E9421032FEF84E3E9
:100650009CE0215080409040E1F700C000000C94E5
:10066000D41B0F931F93CF93DF938C0161E00E9403
:10067000FD02EC01B8010E94C5028823A9F1B8016E
:10068000CE010E94E019882379F1B801CE010E94C1
:100690001517882349F1B801CE010E944A19882311
:1006A00019F1F8018281882361F0CB35FDE5DF0780
:1006B00021F170F4C115ECE5DE07A1F0CF3DDC457A
:1006C000C9F0C801DF91CF911F910F910C94C30223
:1006D000CC358DE5D807A1F0CD35DD4591F70E94E9
:1006E000590FEFCF0E94220380E0DF91CF911F913D
:1006F0000F9108950E940D10F7CF0E94620FE1CF75
:100700000E94650FDECF0C9420030E943F1A0E94C6
:1007100093030C94830308950C948B0381E0089554
:100720000C948E030895CF93C82F0E948C038C2FB6
:10073000CF910C9490030F931F93CF93DF93CDB77A
:10074000DEB72B970FB6F894DEBF0FBECDBF4F8339
:10075000588769877A878B8761110E94700E1E8285
:1007600025E0FE013796CE010196DC0101900D9245
:100770002A95E1F7209136028C0122FD0CC00E94DF
:10078000310E882319F082E00E94280F0E94170E74
:1007900081110E94B80E89819A812C813D81232B81
:1007A00099F449815A816B817C818D819E810E945F
:1007B000660D2B960FB6F894DEBF0FBECDBFDF914E
:1007C000CF911F910F91089589238F3F51F3C80155
:1007D0000E9406038111E5CFECCFFC01808191815D
:1007E0000C94530ACF93C82F882309F44BC08CEF85
:1007F0008C0F813AC8F48C2F0E949018811142C04E
:100800006C2F80910201909103010E94A31A88230A
:1008100029F08C2F0E94070E0E94C60E8C2F0E947A
:10082000000ECF910C94C60E80E28C0F883048F4F5
:10083000C77081E001C0880FCA95EAF70E94510E87
:10084000F0CF8BE58C0F833038F42C2F2452330BF0
:10085000C901CF910C94651AE8E5EC0FE73150F42B
:10086000F0E0EE0FFF1FE75EFE4F80819181CF9198
:100870000C947B1ACD3E30F08C2F0E941A15CF912C
:100880000C94DC15CF910895882361F19CEF980FAB
:10089000913A20F40E94070E0C94C60E90E2980F35
:1008A000983050F4877091E001C0990F8A95EAF76B
:1008B000892F0E94570EF0CF9BE5980F933020F4BC
:1008C00090E080E00C94651A98E5980F973120F439
:1008D00090E080E00C947B1A8D3E20F00E9463151E
:1008E0000C94DC1508951F93CF93DF93182FEB0121
:1008F0000E94F203209731F4812FDF91CF911F9155
:100900000C9444048FE99FE00197F1F700C00000C8
:100910002197F0CF70E060E0893311F460E570E07A
:100920000C947304882321F00E94510E0C94C60E7F
:100930000895882321F00E94570E0C94C60E089546
:10094000AF92BF92CF92DF92EF92FF920F931F93DD
:10095000CF93DF9300D000D00F92CDB7DEB76C01FC
:100960006D837983FC011281F580F2949FE0F92276
:100970000E94470EE82E8823B9F0E12E1123A1F042
:100980008981807F803421F08D81805E8830B0F055
:100990008091360282FD12C082E00E94280F0E94E0
:1009A000470E91E0E82EE926A980A2948FE0A822C4
:1009B000B12CF501E25DFC4D0C94C322E12CF4CF87
:1009C00009810F70F981F07F11F00295007F1123EA
:1009D000A1F0002361F08D81805E883018F01D81C8
:1009E000111107C0802F0E94510E0E94C60E8D81EA
:1009F0003DC0802F0E94620EF8CF8D810E9444047A
:100A00000023E1F18D81805E883018F01D81111185
:100A100004C0802F0E94570E03C0802F0E94680ED2
:100A20000E94C60E2BC009810F702981207F2032C1
:100A300011F00295007F3D81332351F0313009F4EC
:100A400080C0112309F489C0FF2009F460C0CFCF12
:100A50008091360282FF40C0112359F0002329F013
:100A6000802F0E94510E0E94C60E80E00E94F20369
:100A700005C080E00E9444040111CBCF88E0A81A91
:100A8000B10894E0A916B10420F40E943F1A0E9414
:100A90009303EE2009F4DEC10E942D0E80FDDAC121
:100AA000F60112820E94270E0E94AA08C6010E9427
:100AB00051070E94270E0F900F900F900F900F90EC
:100AC000DF91CF911F910F91FF90EF90DF90CF902A
:100AD000BF90AF900C94DB081123D9F0F11006C041
:100AE0000E94840E802B0E949204C8CF81E0F812ED
:100AF00006C00E94840E802B0E94A00EBFCF93E000
:100B0000F912EECF0E94B80E802F0E948A0E802F1D
:100B1000EACFF11006C00E94B80E802F0E949904FF
:100B2000ADCFE1E0FE1208C00E944E0E802309F412
:100B3000A5CF0E94930EEFCFF3E0FF1609F49ECFEE
:100B4000EACF112329F015E01F1508F497CFDFCF66
:100B500024E02F1508F492CFE0CFFF20F1F20D81B1
:100B6000093349F41FEF27EE33E0115020403040A5
:100B7000E1F700C000008D810E9444047FCF89818D
:100B800086958695837069F0813009F077CF8D81E5
:100B900099819370111102C090E080E00E947B1A4D
:100BA0006DCF8D8199819370111102C090E080E02A
:100BB0000E94651A63CF8D81112329F00E941A15B6
:100BC0000E94DC155BCF0E946315FACF8981837088
:100BD00009F050C0111152CF2D8122952695277012
:100BE000220F220F4D814F7050E070E060E0022E26
:100BF00004C0440F551F661F771F0A94D2F70D815A
:100C000080E090E0DC0104FF0FC08FE090E0A0E006
:100C1000B0E004C0880F991FAA1FBB1F2A95D2F706
:100C200080959095A095B09519811695169513709D
:100C30001D838C019D01042B152B262B372B09833B
:100C40001A832B833C831D8169817A818B819C81EE
:100C5000123051F0133059F0113019F00E94200871
:100C60000DCF0E94F8070ACF0E94480807CF0E94C4
:100C7000F60704CF112309F448C0098100FFFECE16
:100C80002D81229526952770220F220F4D814F70BE
:100C900050E070E060E0022E04C0440F551F661F54
:100CA000771F0A94D2F70D8180E090E0DC0104FF09
:100CB0000FC08FE090E0A0E0B0E004C0880F991F63
:100CC000AA1FBB1F2A95D2F780959095A095B09545
:100CD00019811695169513701D838C019D01042BA7
:100CE000152B262B372B09831A832B833C831D81DD
:100CF00069817A818B819C81123071F0133079F097
:100D0000113039F00E946909B9CE198111FFB6CEB0
:100D1000B7CF0E944109B2CE0E949109AFCE0E9486
:100D20007408ACCE09810F700983112329F0802F3C
:100D30000E94AA088D81D7CE8D810E949904898155
:100D40000E94DB089BCE0D81023F59F160F4003F09
:100D5000C1F0013F89F0112309F467C0F11047CEBB
:100D600089818F7122C00D81033F11F1043F99F7F2
:100D70008091360282FF26C089818F71112301F391
:100D800014C0112349F014E01F1508F477CE8981AF
:100D90008F710E94100972CE25E02F1508F46ECED7
:100DA000F6CF89818F711111CBCF0E94AA0866CE30
:100DB000112329F089818F710E9485085FCE0E94DE
:100DC00080085CCE1123F1F00E94140E0E94570E91
:100DD0000E942D0E843041F40E941F0F89818F7173
:100DE0000E94DB08E12C4ACE32E03F15D8F309819E
:100DF0000F710983802F0E94AA0863E089810E94F5
:100E0000030FF0CF0E94140E0E94510E12E01F1526
:100E100040F40E941F0F0E94930E64E089818F713D
:100E2000EECF81E00E94280FDDCFF11098CE8981AE
:100E30008F7186CF49814F706D81C6010E94E71086
:100E40000E94890A1BCE49814F706D81C6010E94A4
:100E5000EA1014CE0F900F900F900F900F90DF912B
:100E6000CF911F910F91FF90EF90DF90CF90BF90A7
:100E7000AF9008950F931F93CF93DF93EC01688198
:100E800079818A810E945F0A8C010E94B9090E94BF
:100E9000F507B801CE01DF91CF911F910F910C940E
:100EA000A004CF93DF93EC01988189812B813C8151
:100EB000232B19F089238F3F59F4DF91CF910895A7
:100EC000CE010E943A07CE01DF91CF910C94080326
:100ED000CE010E9431038111F3CF0E94470E882377
:100EE00061F38A81882349F38091360282FDE5CF40
:100EF00082E0DF91CF910C94280F90E080E00E9477
:100F0000651A90E080E00E947B1A0E94700E0E9499
:100F1000810E0E94C60E0E9407170C94DC150E94D9
:100F20000E0E0C947D070E945F0E0C948F07282FE5
:100F3000892F82958F70903C80F48A30B0F4843091
:100F400020F4823090F480E008958630E1F781E06B
:100F5000283E88F0213FB9F70EC08C3011F08F3059
:100F600091F793FB882780F9089581E0203F39F0BD
:100F700018F4283E40F70895243F29F7FCCF089540
:100F8000FC01808191810E94530A0C949707CF93B2
:100F9000DF9300D000D00F92CDB7DEB70F900F9047
:100FA0000F900F900F90DF91CF910895CF93DF9323
:100FB00000D000D000D0CDB7DEB726960FB6F8949B
:100FC000DEBF0FBECDBFDF91CF91089508950C9481
:100FD000E6070E94E7076093A8017093A901809338
:100FE000AA019093AB010C947D0708950C94E90736
:100FF000CF93DF9300D000D0CDB7DEB769837A837B
:101000008B839C838091A8019091A901A091AA0152
:10101000B091AB0129813A814B815C81282B392B1E
:101020004A2B5B2B29833A834B835C83CA01B9012A
:101030000F900F900F900F90DF91CF910C94E907D4
:10104000CF93DF9300D000D0CDB7DEB769837A832A
:101050008B839C838091A8019091A901A091AA0102
:10106000B091AB0129813A814B815C8128233923DE
:101070004A235B2329833A834B835C83CA01B901EA
:101080000F900F900F900F90DF91CF910C94E90784
:10109000CF93DF9300D000D0CDB7DEB769837A83DA
:1010A0008B839C838091A8019091A901A091AA01B2
:1010B000B091AB0129813A814B815C812827392786
:1010C0004A275B2729833A834B835C83CA01B90192
:1010D0000F900F900F900F90DF91CF910C94E90734
:1010E0000C94E6070C9470080E9472086093A401A7
:1010F0007093A5018093A6019093A7010C947D079E
:1011000060E070E0CB010C9474080F931F93CF93B1
:10111000DF9300D000D0CDB7DEB741E050E060E013
:1011200070E08A019B0104C0000F111F221F331FB2
:101130008A95D2F709831A832B833C83C901B801AE
:101140000F900F900F900F90DF91CF911F910F9103
:101150000C9474080F931F93CF93DF9300D000D0AB
:10116000CDB7DEB741E050E060E070E004C0440F6E
:10117000551F661F771F8A95D2F78091A401909121
:10118000A501A091A601B091A7018A019B01082B9E
:10119000192B2A2B3B2B09831A832B833C83C901F0
:1011A000B8010F900F900F900F90DF91CF911F918A
:1011B0000F910C9474080F931F93CF93DF9300D07B
:1011C00000D0CDB7DEB741E050E060E070E004C091
:1011D000440F551F661F771F8A95D2F7409550958B
:1011E000609570958091A4019091A501A091A601B0
:1011F000B091A7018A019B01082319232A233B23CD
:1012000009831A832B833C83C901B8010F900F9087
:101210000F900F90DF91CF911F910F910C94740854
:101220000F931F93CF93DF9300D000D0CDB7DEB7DD
:1012300041E050E060E070E004C0440F551F661FBD
:10124000771F8A95D2F78091A4019091A501A09172
:10125000A601B091A7018A019B01082719272A2717
:101260003B2709831A832B833C83C901B8010F9064
:101270000F900F900F90DF91CF911F910F910C94D1
:101280007408CF93DF9300D000D0CDB7DEB7698369
:101290007A838B839C838091A4019091A501A09176
:1012A000A601B091A70129813A814B815C81282B4D
:1012B000392B4A2B5B2B29833A834B835C83CA01EE
:1012C000B9010F900F900F900F90DF91CF910C9478
:1012D0007408CF93DF9300D000D0CDB7DEB7698319
:1012E0007A838B839C838091A4019091A501A09126
:1012F000A601B091A70129813A814B815C81282305
:1013000039234A235B2329833A834B835C83CA01B5
:10131000B9010F900F900F900F90DF91CF910C9427
:101320007408CF93DF9300D000D0CDB7DEB76983C8
:101330007A838B839C838091A4019091A501A091D5
:10134000A601B091A70129813A814B815C812827B0
:1013500039274A275B2729833A834B835C83CA0159
:10136000B9010F900F900F900F90DF91CF910C94D7
:1013700074080895E92FEE0FEE0FE90FE80F8E2F96
:10138000877041E001C0440F8A95EAF7E695E6953B
:10139000E69585E0E89FF0011124E557FE4F30E027
:1013A00020E070E05191DF011197CB01022E02C0C5
:1013B000969587950A94E2F7817081958527842315
:1013C00085278C932F5F3F4F2530310559F70895BE
:1013D000E92FEE0FEE0FE90FE80F9E2F9770E695BD
:1013E000E695E69585E0E89FF0011124E557FE4F6C
:1013F00050E040E080E0219130E0092E02C03695B7
:1014000027950A94E2F721703327042E01C0220F9A
:101410000A94EAF7822B4F5F5F4F4530510559F729
:101420000895BF92CF92DF92EF92FF920F931F9396
:10143000CF93DF938C01C090A401D090A501E090E0
:10144000A601F090A7018091A8019091A901A09117
:10145000AA01B091AB01C82AD92AEA2AFB2ACFE116
:10146000D0E0BC2ED701C6010C2E04C0B695A795BE
:10147000979587950A94D2F780FD0EC0219788F73B
:10148000B12C8B2DDF91CF911F910F91FF90EF9099
:10149000DF90CF90BF900895B8018C2F0E94191251
:1014A000019761F3EECFCF93DF93D82FC92F0E941E
:1014B000110A6D2F7C2FDF91CF910C9419121F937D
:1014C000CF93DF93162FD72F90918A01992339F06C
:1014D000862F972FDF91CF911F910C94530A882369
:1014E00091F0862F972F0E94110AC82F682F812F05
:1014F0009D2F0E94BA09612F7D2F8C2FDF91CF91F4
:101500001F910C941912862F972F0E94E809C82F5B
:10151000F2CFEF92FF920F931F93CF93DF938C0143
:10152000892B89F0F12CEE24E394E8012196F8014F
:101530008491843709F458C0A0F4823009F43FC084
:1015400048F48130D1F0DF91CF911F910F91FF903E
:10155000EF9008959CEF980F9037A8F70E94F20340
:101560000AC0853709F44EC09CE7980F903758F7AA
:101570008F770E9444048E0116C00E5F1F4FFE013C
:10158000849190E2980F983060F48770FE2D01C02E
:10159000FF0F8A95EAF78F2F0E94730E0E94C60EE6
:1015A00002C00E94F2038F2D882309F4BECFEFE919
:1015B000FFE03197F1F700C000008150F5CF0E5FDA
:1015C0001F4FFE01849190E2980F983050F487707D
:1015D000FE2D01C0FF0F8A95EAF78F2F0E94790E2A
:1015E000DDCF0E944404DFCF0E5F1F4FFE01C49188
:1015F000CC23C9F28FE99FE00197F1F700C000000A
:10160000C150F6CF0E5F1F4FFE01F490CCCF1F9359
:10161000CF93DF93E091AC0116E08091AD018E1382
:1016200004C0DF91CF911F910895CE2FD0E01E9F6F
:10163000F0011124E255FE4F408151816281738196
:10164000848195810E94D6072196EC2FE770E5CF23
:101650004091DE015091DF016091E0017091E10164
:101660008091E2019091E3010C94D607FF920F93D1
:101670001F93CF93DF938091E301807FD1F480911A
:10168000E0018823B1F08091AC011091AD0170911F
:10169000DE016091DF01A091E101B091E201062F2E
:1016A0000723C0910001D091010196E0F92E181393
:1016B00006C0DF91CF911F910F91FF90089590E0A8
:1016C000109711F00F3F19F401968770F0CFF89E34
:1016D0009001F99E300D1124F901E255FE4F418130
:1016E0006413F2CF40814713EFCF42814111ECCF19
:1016F000438154814A1B5B0B4C175D0728F780918F
:10170000E3018F7080618093E301F901ED54FE4F96
:1017100080818F70806180838EED91E00E945107FF
:10172000DF91CF911F910F91FF900C94070BAF9217
:10173000BF92CF92DF92EF92FF920F931F93CF93BE
:10174000DF93CDB7DEB72B970FB6F894DEBF0FBE91
:10175000CDBF8C0185E0F801DE01179601900D9256
:101760008A95E1F7D8011296EC9012971396CD90D6
:10177000DC909EEDA92E91E0B92E3091DE01909182
:10178000DF014091E1015091E2014115510529F03D
:10179000892F83238F3F09F082C1EE2009F492C183
:1017A000C8010E94C007F82E882309F48BC186E087
:1017B000F801AEEDB1E001900D928A95E1F78EED62
:1017C00091E00E94ED030E94360B38C18091E30145
:1017D000E82FE07F4617570708F0D2C0D8011196CE
:1017E0002C911197E11116C1FE2C291325C09C9153
:1017F000931322C0E11020C08F7080618093E301B9
:101800000E94280B8EED91E00E9451078091E30128
:10181000F80185838F2D2B960FB6F894DEBF0FBE8F
:10182000CDBFDF91CF911F910F91FF90EF90DF908F
:10183000CF90BF90AF9008953F81C114D10429F09B
:10184000822F83238F3F09F0E2C080E080FF08C031
:10185000E091AC014091AD0186E0B82EE4131BC0CD
:10186000CD2829F0822F83238F3F09F0C2C080E06A
:10187000F82FF170DF2EE091AC014091AD0156E000
:1018800080FD30C0EE2031F28091E30181608093D1
:10189000E301F12CBFCF8E2F90E0BE9EF00111240A
:1018A000E255FE4F5181251306C05081531303C0EA
:1018B00052815E11A1C00196E82FE770CFCF8E2F25
:1018C00090E05E9FF0011124E255FE4F61812613E6
:1018D00006C06081631303C062816E11D3CF01968D
:1018E000E82FE770E413EBCF8F8198850E94530AAD
:1018F000292F22952F70903268F0225F2F702230AE
:1019000080F49F7059F0D80115969C91907F31F426
:10191000D12C0AC09F7011F08823D1F3805E8830EB
:10192000B8F3C8010E945107FD2C74CFC8010E9472
:10193000C007882309F4C6C0EE2009F4C3C0809113
:10194000E301803270F02091DE013091DF013A83B3
:1019500029831B82DD82CC828E83CE0101960E9478
:10196000510786E0F801AEEDB1E001900D928A9545
:10197000E1F70E94360B0E94280BFF24F3944ACF14
:10198000E1115FC04F81588569857A858B850E94FA
:10199000C7078EED91E00E94510786E0D5011D92A8
:1019A0008A95E9F70E94280B74CF86E0F801AEED26
:1019B000B1E001900D928A95E1F72CCFC8010E9409
:1019C000C0078111CECF8091E30181608093E30154
:1019D000C8010E9451071ECF4F81588569857A85BD
:1019E0008B850E94C70786E0D5011D928A95E9F78D
:1019F00025C081E08E253CCF8EED91E00E945107FD
:101A0000EEEDF1E0DF011D92BA94E9F7CBCF81E072
:101A10008E251CCF29138ACFF8019081931386CF8E
:101A2000E11084CF8583C8010E94510786E0F80148
:101A3000AEEDB1E001900D928A95E1F70E94280B7E
:101A4000E9CEF8012181921371CFF80190819313AF
:101A50006DCFE1106BCF8583C8010E94510786E0EE
:101A6000D5011D928A95E9F7D5CED80111968C91B2
:101A70009813A4CFF80180818313A0CF8091E30154
:101A800080FD93CF982F907F09F48FCF8583903F6F
:101A900051F2982F907F905F8F70892BC3CFF09079
:101AA000E001F601E41BF50BAF01609100017091BC
:101AB0000101F1108BCE4617570708F08DCFFE2C91
:101AC000E110D3CFC8010E94510757CF1F93CF9386
:101AD000DF93CDB7DEB72C970FB6F894DEBF0FBEFD
:101AE000CDBF4F83588769877A878B879C87CE01C4
:101AF00007960E94970B882369F08A859B85892B1E
:101B000039F058854F81852F84238F3F09F071C0AC
:101B100016E05FC086E0FE013796DE011196019067
:101B20000D928A95E1F78F8198852091AD014091C2
:101B3000AC016A857B85672B59F389238F3F41F37D
:101B400030E0C9010196877099274817190671F48A
:101B50000E9493071092AD011092AC0186E0EEED69
:101B6000F1E0DF011D928A95E9F7D2CF96E0929FCE
:101B7000D001939FB00D1124A255BE4FFE013196A6
:101B800001900D929A95E1F78093AD010E94070BA9
:101B9000BFCF819FC001112482559E4F0E94970B99
:101BA0008823E9F0E091AC011E9FF0011124E25579
:101BB000FE4F4081518162817381848195810E94B1
:101BC000D6078091AC0190E00196877099278093A9
:101BD000AC018091AC019091AD018913DACF2C96C4
:101BE0000FB6F894DEBF0FBECDBFDF91CF911F912E
:101BF000089569857A858B859C850E94D60788CF54
:101C0000682F80910201909103010C94DD1A682FD6
:101C100080910201909103010C94DF1A80910201DE
:101C2000909103010C94E11A8091E90108950E94BA
:101C3000751B2091E7013091E801AC01421B530B69
:101C40009A0181E02838334108F480E008958091BA
:101C5000E60185958595859508958091E6018770C3
:101C600008950E94751B2091E4013091E501821BCB
:101C7000930B8838934148F08091E60182FB8827D6
:101C800080F991E089278170089580E0FCCF9091E0
:101C9000E601977081E009F480E008958091F501F4
:101CA00008959091F501982B9093F5010895982F40
:101CB00090958091F50189238093F5010895109204
:101CC000F50108959091F401982B9093F4010895F3
:101CD000982F90958091F40189238093F4010895C1
:101CE0001092F40108959091F301982B9093F301D1
:101CF0000895982F90958091F30189238093F301A3
:101D000008951092F30108958091EA0108950895CD
:101D10000C94870E9091E901981721F08093E901C6
:101D20000C94880E08958091E901882329F010927F
:101D3000E90180E00C94880E089508950C949D0E9E
:101D4000CF93C82F8091360282FD10C08091EA01A6
:101D50008C1761F00E94751B9093E8018093E70156
:101D6000C093EA018C2FCF910C949E0ECF910895D1
:101D70008091EA01882349F01092EA011092E8016B
:101D80001092E70180E00C949E0E0895E09102010C
:101D9000F09103018091F5018083E0910201F091BF
:101DA000030180819091F401892B8083E0910201ED
:101DB000F091030180819091F301892B80838091C0
:101DC000EA018823B9F00E94170E81110E94B80E13
:101DD000E0910201F091030180819091EA01892B49
:101DE000808380910201909103010E94911A8111D8
:101DF0000E94B80E80910201909103010C944B1A3D
:101E000008950C94000F9091360292FD16C098E050
:101E1000899F90011124622B6093E6010E94AA0819
:101E20000E94751B9093E5018093E4018091E60187
:101E30008595859585950C94010F0C94AA081092B0
:101E4000E6011092E5011092E40180E00C94010F8C
:101E50009091E601809589238093E601282F2770D1
:101E600091F4282F082E000C330B9217130659F00B
:101E70009091360292FD07C08595859585950E94C3
:101E8000DB080C941F0F08959091360292FB2227D5
:101E900020F9281769F080FB92F99093360280911F
:101EA0003502909136020E94890F82E00C94280F2F
:101EB00008958091360282FB882780F991E0892776
:101EC0000C94440F81E00C94440F80E00C94440F78
:101ED00090E080E00E94F2229C0181E0293E3E4F8A
:101EE00009F080E0089582E090E00C94EA2283E01B
:101EF00090E00C94EA22CF9384E090E00E94EA22E2
:101F0000C82F82E290E00E94EA22982F8C2FCF9176
:101F10000895CF93682FC92F84E090E00E94F822A3
:101F20006C2F82E290E0CF910C94F822AB01BC01BF
:101F30008FE090E00C940A23AB01BC0183E190E0B8
:101F40000C940A2360E070E0CB010C949C0F60E0DD
:101F500070E0CB010E94960F0C94A20F69EE7EEF09
:101F600090E080E00E94162360E082E090E00E9412
:101F7000F82260E083E090E00E94F8221092A8012D
:101F80001092A9011092AA011092AB0160E084E0C6
:101F900090E00E94F82260E082E290E00E94F82245
:101FA00060E085E090E00E94F82260E086E090E04A
:101FB0000E94F8226FEF87E090E00E94F82240E054
:101FC00050E0BA0188E090E00E940A2360E08DE0D2
:101FD00090E00E94F82240E050E0BA0188E190E0F1
:101FE0000E940A2360E087E190E00E94F82240E02E
:101FF00050E0BA018CE190E00E940A2370E060E0BA
:1020000080E290E00E94162340E050E0BA0188E1AF
:1020100090E00E940A230C94A70F0C94AE0F682F37
:102020008EE090E00C94F8220E94811B60930302E2
:102030007093040280930502909306026093FF015F
:10204000709300028093010290930202089585B775
:10205000806885BF85B7806885BF08950895089515
:102060000C942E1008950C9432100E94271088EFC3
:1020700092E10E94351A0E942F100C94301081E0DA
:1020800008950C943F10089508950E9443100C94F5
:1020900044100E946C1B0E94DC130C943310AF920E
:1020A000BF92CF92DF92EF92FF920F931F93CF9345
:1020B000DF9300D000D00F92CDB7DEB70E94F113AE
:1020C00081110E94141087EFA82E81E0B82E10E035
:1020D00000E0C02E802F0E943613F82EF501E1900B
:1020E0005F01E81609F44CC08091070281FD0E944F
:1020F0003C138E2D8F25D12CEE24E394982F9E2116
:10210000D1F10E944110882399F0D982CA82FE2021
:1021100081E009F480E08B830E94751B8160782F39
:102120009D838C8349815A816B81892F0E949B03F7
:10213000F801E950FE4F80818E2580830E94F615BC
:102140000E943F1A9091F601891789F10E943F1A67
:102150008093F6010F900F900F900F900F90DF91EA
:10216000CF911F910F91FF90EF90DF90CF90BF9094
:10217000AF900C949303D394EE0CF5E0DF12BECF36
:102180000F5F1F4F0830110509F0A3CF8FEF898330
:102190008A831B820E94751B8160782F9D838C83AC
:1021A00049815A816B81892F0E949B03C7CF0F9071
:1021B0000F900F900F900F90DF91CF911F910F9183
:1021C000FF90EF90DF90CF90BF90AF90089590E098
:1021D00080E008950895972F70E025E0929F600DAC
:1021E000711D1124FB0198E2899FE00DF11D11245E
:1021F000EE0FFF1FE455FF4F859194910895FC0168
:10220000EE0FFF1FE45CFD4F859194910895CF93ED
:10221000DF930E941D12EC01811520E5920708F062
:1022200043C0811530E4930708F0B2C0803E9105A9
:10223000E8F4803C910508F0A0C0883A910578F454
:10224000853A910508F08BC08130910521F0049703
:10225000813A910540F4CE01DF91CF9108958F3BF3
:10226000910509F07FC0D0E0C0E0F5CFC11580E254
:10227000D80770F4CF3FD10509F068F7C83ED10503
:1022800050F3CE018D5E9109D065439720F3EBCFDB
:10229000CE01C11520E3D20708F475C09927D3FDFC
:1022A00074C0EC01D06CD7CF811535E5930760F58C
:1022B000C11584E5D80708F09EC0C11523E5D207F3
:1022C00078F4C11532E5D30708F082C0C11581E565
:1022D000D80708F460C0DC2FCC27C16FD06ABBCF11
:1022E0009E012370332781E090E002C0880F991F80
:1022F0002A95E2F7C695C69520E2C29FE001112417
:10230000C82BD92BDA68A7CF81153AE59307B0F42B
:10231000C11589E5D80708F07EC0C11526E5D207AA
:1023200008F46EC0CE0198558F3F910511F008F06A
:102330009ACFDC2FCC27C06FD06A8DCF90568115F5
:10234000904208F090CF8D2F8F710E94B51290E0CF
:10235000982F882788279F718C2BEC015AC0A4974F
:10236000D06479CFC85AD0E0CC0FDD1FC95BDE4FF7
:102370000990D881C02DD4646ECF805C91090E94F1
:10238000FF10EC0168CF9F70FACFEC01D86C63CFDF
:10239000DF70D06A60CF9E0174E0369527957A95FC
:1023A000E1F723708C2F86958695837030E2839FAA
:1023B000C0011124922BC37021E030E002C0220F33
:1023C000331FCA95E2F7822B932BEC01DC6843CFD5
:1023D0009E012370332781E090E002C0880F991F8F
:1023E0002A95E2F7C695C69520E2C29FE001112426
:1023F000C82BD92BEBCFDC2FCC27C46FD06A2BCFC7
:102400008C2F0E94B512C82FD0E0DC2FCC27CC2710
:10241000DF71D06220CF8C2F8F700E94B51234E014
:10242000D695C7953A95E1F7CF709C2FEC01D0690E
:1024300012CF0E94EB100C940711803E910599F188
:10244000C8F48133910509F476C048F489329105C6
:1024500009F46AC08A32910509F474C00895893379
:102460009105D1F082389105B9F08533910509F4D1
:1024700054C00895843E910599F138F4823E910547
:10248000F9F0833E910509F10895863E910599F191
:10249000873E9105B9F10895209135022370A1F08E
:1024A00080EE90E008952091350220FD52C03091D9
:1024B000360230FF09C024FF4FC090E080E004C026
:1024C0002091350222FDF7CF08952091350222FD9B
:1024D00046C03091360230FDE3CF24FFF5CFEDCF7B
:1024E0002091360221FFF0CF8091350284FDE5CFA7
:1024F00087EE90E008952091350223FFE5CF24FD7B
:10250000DCCFF6CF2091350223FD2CC0309136026E
:1025100031FFE3CF84EE90E008952091350225FF4E
:10252000D3CF89E290E008952091350225FFCCCFEA
:1025300085E390E008952091350226FFC5CF8AE219
:1025400090E008952091350226FFBECF81E390E010
:10255000089589E390E0089583EE90E0089582EE77
:1025600090E0089586EE90E008959091350292FFF4
:1025700006C0282F28712830F9F4877F846093FFE4
:1025800006C0282F28712831F1F4877E84612091BC
:10259000360220FF06C0382F38713830D9F4877FD3
:1025A000816021FF06C0282F28712831D1F4877E51
:1025B000816194FD877E0895282F24712430F9F6D7
:1025C0008B7F8860DCCF282F2471243101F78B7E2C
:1025D0008861DDCF382F3171313019F78E7F8860F7
:1025E000E0CF282F2171213121F78E7E8861E1CF44
:1025F00080E008950895CF93DF9300D000D0CDB749
:10260000DEB70E94680F811102C00E940D100E9467
:10261000730F809307020E947B0F90933602809382
:1026200035020E94FA120E94770F282F30E050E006
:1026300040E0CA01B9010E94F6078091A40190917F
:10264000A501A091A601B091A70189839A83AB83CC
:10265000BC83BC01CD010F900F900F900F90DF91C4
:10266000CF910C94720808950C949E02E82FF0E02C
:10267000E15CFD4F80810895089580EA8A95F1F725
:10268000089500C008950C943D13F894E82FE29546
:10269000EF70F0E041A18F7021E030E0B90102C09D
:1026A000660F771F8A95E2F7CB01962F90959423BA
:1026B00091A392A1892B82A378940895CF93DF935D
:1026C000CAE7D1E089918F3F11F00E94451381E064
:1026D000C238D807B9F7C5E7D1E089918F3F11F02B
:1026E0000E94451381E0CA37D807B9F7DF91CF912F
:1026F0000895CF92DF92EF92FF920F931F93CF93A3
:10270000DF93EC01D62E062F10E0C80186589E4FAD
:102710007C01FC0180818F3F09F445C0F894E82FCB
:10272000E295EF70F0E091A18F7021E030E001C000
:10273000220F8A95EAF7892F822B81A382A1209507
:10274000282322A378940E944113E5E7F1E04AE7A9
:1027500051E091E0C12C81918F3F79F0A82FA29593
:10276000AF70A05EB0E02C9130E08F7002C0359564
:1027700027958A95E2F7892F20FD80E0C82A990FD6
:102780004E175F0741F7F70180818F3F11F00E94DC
:10279000451361E0C11001C060E08D2D0E9443131C
:1027A000C00FD11FC882DF91CF911F910F91FF9071
:1027B000EF90DF90CF9008950E945E1388E0EFE3E2
:1027C000F2E0DF01982F1D929A95E9F7E7E3F2E036
:1027D000DF011D928A95E9F788E00E9447140C9466
:1027E0001503DF92EF92FF920F931F93CF93DF9326
:1027F000CDB7DEB728970FB6F894DEBF0FBECDBFBA
:102800001A821982FE01339686E0DF011D928A95B5
:10281000E9F7F12C8E010F5F1F4F6F2DC8010E9449
:102820007913F394D02EE12EB8E0FB12F6CF48E0F6
:1028300050E0B80187E392E00E94DD229C0111E0A4
:10284000892B09F410E0232B49F088E0ED2DFE2DB3
:10285000A7E3B2E001900D928A95E1F7212F48E0BD
:102860006FE372E087E392E00E9448140E941B032A
:10287000812F28960FB6F894DEBF0FBECDBFDF9133
:10288000CF911F910F91FF90EF90DF9008950895E1
:10289000FF920F931F93CF93DF93F82E092F162FDC
:1028A000D72FC42F222349F081E080930A020E948F
:1028B000751B909309028093080280910A02882375
:1028C000A1F080910802909109020E94A11B059736
:1028D00060F0EF2DF02FA12FBD2FCF018C0F911D98
:1028E000E817F90741F410920A02DF91CF911F9186
:1028F0000F91FF90089521912D93F2CF0E94871D93
:102900000E9449100C94931D0E94971D0E944F1025
:102910000C94B11D0E94FF1A0E946E1D0E9435107A
:102920000E947E140E9484140E944510FBCF809167
:10293000110280FF12C06091090185E0689FB0011B
:102940001124759567957595679560387105A8F59B
:1029500061157105A1F1862F089581FF09C060916D
:10296000090185E0689FB001112475956795EDCF49
:102970006091090182FD0AC0209110022223D1F04A
:102980009091080160910901291728F085E0689F5E
:10299000B0011124DACF269F9001112485E0829F97
:1029A000A001839F500D1124692F70E0CA010E947D
:1029B000AF22CBCF65E070E0CECF8FE7089581E006
:1029C00008958091110280FF0CC06091050170E0B4
:1029D00075956795759567956115710549F1862F10
:1029E000089581FF06C06091050170E075956795B7
:1029F000F3CF6091050182FD0BC090910F029923E6
:102A0000A1F06091040180910501961738F0682FBC
:102A100070E06038710500F38FE70895899FC00169
:102A2000112470E00E94AF22F4CF61E070E0D7CFB4
:102A300081E00895E3E1E80FE331E0F5F0E0E25CE6
:102A4000FC4D0C94C3220E9497148195809315022B
:102A500008950E949714FACF0E949714819580934D
:102A6000140208950E949714FACF0E94E1148093F3
:102A7000160208950E94E1148195F9CF0E94E11495
:102A800081958093170208950E94E114FACF815F27
:102A9000990B21E030E001C0220F8A95EAF780917E
:102AA0001302822B8093130208958091110281609A
:102AB000809311020895809111028260F9CF809174
:102AC00011028460F5CF409114028D3E59F480913B
:102AD000150287FF0DC01092150241110BC0109214
:102AE000100208C08E3E81F48091150218169CF3E6
:102AF000442381F08091160290911702892B09F0EE
:102B00005AC010920F0208958F3E49F447FFF0CF4C
:102B100010921402809115028111ECCFE0CF803F1A
:102B200019F41416ACF3E4CF90911602893F29F4FE
:102B30001916F4F610921602DBCF8A3F19F497FFAC
:102B4000D7CFF8CF909117028B3F29F497FFD0CFC2
:102B500010921702CDCF8C3F19F41916CCF3C8CFC1
:102B60009FE0980F983090F4815F990B21E030E05E
:102B7000B90102C0660F771F8A95E2F7CB018095F5
:102B800090911302892380931302B2CF8D3F31F4C9
:102B9000809111028E7F80931102AACF8E3F21F483
:102BA000809111028D7FF7CF8F3F09F0A1CF8091E7
:102BB00011028B7FF0CF08950E94751B20911402A3
:102BC00030911502232B21F080930D0290930E0279
:102BD0002091160230911702232B21F080930B02D3
:102BE00090930C0282E192E00C94561ACF92DF92FD
:102BF000EF92FF920F931F93CF93DF9300D000D0FB
:102C000000D0CDB7DEB726E0E2E1F2E0CE010196DA
:102C1000DC0101900D922A95E1F7C0901402D0904A
:102C20001502E0901602F090170210921402109212
:102C3000150210921602109217022C2D2D298C01CC
:102C400091F080910D0290910E020E94A11B9C01B7
:102C500080911002882309F440C090910A019217D4
:102C6000130608F448C08E2D8F2991F080910B0235
:102C700090910C020E94A11B9C0180910F0288235D
:102C800009F478C0909106019217130608F480C0E9
:102C90008091140290911502892B90911602892B34
:102CA00090911702892B11F00E94DC1586E0F80143
:102CB000A2E1B2E001900D928A95E1F726960FB657
:102CC000F894DEBF0FBECDBFDF91CF911F910F9162
:102CD000FF90EF90DF90CF90089540910B019AE024
:102CE000499FA00111244217530708F0BCCF8F5F02
:102CF0008093100202C08F3FD1F7CC2059F00E9480
:102D000097149FEF1C140CF491E0899F802D1124DF
:102D100080931402DD2059F00E9497149FEF1D1438
:102D20000CF491E0899F802D11248093150230913D
:102D30001402332309F497CF20911502222309F4BA
:102D400092CF45EB3403C0011124992359F090939D
:102D5000140245EB240390011124332339F03093FE
:102D6000150281CF81E080931402F3CF81E080933C
:102D7000150279CF409107019AE0499FA0011124E3
:102D80004217530708F084CF8F5F80930F0202C071
:102D90008F3FD1F7EE2059F00E94E1149FEF1E14EF
:102DA0000CF491E0899F802D112480931602FF205E
:102DB00059F00E94E1149FEF1F140CF491E0899FD9
:102DC000802D112480931702309116022091170252
:102DD000332309F45DCF222309F45ACF45EB3403A2
:102DE000C0011124992359F09093160245EB240356
:102DF00090011124332339F03093170249CF81E039
:102E000080931602F3CF81E08093170241CF86E0D2
:102E1000E2E1F2E0DF011D928A95E9F710921002DB
:102E200010920F02109211020895CF93DF93EC01DC
:102E3000FB018281882309F4DFC0C430FDE5DF0790
:102E400010F5CB3F9CE5D90730F49E0122503C455C
:102E500024313105E0F40E947B0F90933602809379
:102E60003502C631FCE5DF0710F5C2308CE5D80726
:102E700088F480913502909136020E94890F0E9459
:102E8000930780E004C0C236EDE5DE0721F3DF9151
:102E9000CF910895FE01E350FC4580913502816099
:102EA000E331F10518F5EF5AFC4D0C94C322C43000
:102EB0009DE5D90770F4CB3FECE5DE07D0F2FE01CB
:102EC000EC5FFC45E830F105E0F4EC59FC4D0C9466
:102ED000C322C236DD4569F690913502892F8F7E77
:102EE00094FF806103C08091350282608093350237
:102EF000C0CF809135028460F9CF8091350288601F
:102F0000F5CF80913602816080933602B2CF8091F6
:102F100036028260F9CF809135028061E7CF8091DF
:102F200035028062E3CF809135028064DFCF0E945A
:102F30009307809135028068D9CF809135028C60EB
:102F4000D5CF809136028360DFCF809135028E7FAE
:102F5000CDCF809135028D7FC9CF809135028B7F97
:102F6000C5CF80913502877FC1CF809136028E7F99
:102F7000CBCF809136028D7FC7CF809135028F7E77
:102F8000B5CF809135028F7DB1CF809135028F7B97
:102F9000ADCF0E949307809135028F77A7CF8091A4
:102FA0003502837FA3CF809136028C7FADCF809195
:102FB000350282FB992790F921E0922790FB82F954
:102FC00090FB83F993CF80913602982F9095917062
:102FD0008E7F892B90FB81F997CF0E949307909168
:102FE0003502892F97FB87F9805880CF81E00E94B6
:102FF0000F103FCF80E0FBCF81E049CF0F931F93AD
:10300000CF93DF9300D000D0CDB7DEB741E050E0E2
:1030100060E070E08A019B0104C0000F111F221FB5
:10302000331F8A95D2F709831A832B833C83C90106
:10303000B8010E94F6070F900F900F900F90DF914C
:10304000CF911F910F910C9493078B3258F48530D8
:10305000C0F0EBEFE80FE632A0F4F0E0E459FC4DED
:103060000C94C322833450F48A3308F051C0853362
:1030700009F44AC0883329F481E00895833409F4BF
:1030800043C080E008950E940D10F6CF80910702A2
:10309000807F8093070281E080931B0208950E9445
:1030A0002203EACF90910702892F8E7F90FF8160E3
:1030B0008093070280FDE0CF817F80930702DCCF01
:1030C00090910702892F8D7F91FF82608093070284
:1030D00081FFD2CF809107028160EFCF90910702EC
:1030E000892F8B7F92FF84608093070282FDF2CF4D
:1030F000C3CF90910702892F877F93FF88608093C9
:10310000070283FDE7CFB8CF80E00E94FE17B4CF5F
:103110008953FBCF8D51F9CF80E008950C948C1822
:10312000CF93C82F80911B028130A1F08230A1F192
:103130008111ACC00E944E0E823209F0A9C08C2FC2
:103140000E948C1881111BC08C2F0E942518817041
:10315000CF9108950E944E0E823289F38C2F0E94E7
:103160008E1881110AC0C431A1F060F4CB3029F06F
:10317000C03169F782E080931B0281E0E8CF81E0F3
:1031800090E0E5CFC93229F081E0C83301F380E057
:10319000DECF10921B02FBCFCF3409F46FC0C0F416
:1031A000C83248F4CE3188F5C73009F455C0C4316F
:1031B00021F081E0CDCFC932E1F780911A02882356
:1031C000C1F310921A021092190210921802F1CF54
:1031D000C13509F455C081E0C23519F086EFC0351C
:1031E00041F7E0911802F0911902309711F3208114
:1031F000082E000C990B820F911D8F3F910509F04D
:103200000CF440C08FEF8083D4CFCD51C0931A020D
:10321000C430E1F068F4C230B1F089E091E0C3302D
:1032200069F08BE091E0C13049F010921A02C1CFF1
:10323000C53079F084E091E0C630B9F79093190277
:1032400080931802B6CF8AE091E0F8CF88E091E051
:10325000F5CF85E091E0F2CF80930B018CE0809375
:103260000A0186E08093090182E38093080188E0E7
:103270008093050188E2809304019BCF8AE0B1CF5F
:103280008FEFAFCF97FFBFCF108293CF10921B026B
:1032900080E05ECFCF93DF93EB0186319C4511F543
:1032A0000E944E0E9A81992399F08A7A91E009F44E
:1032B00090E090931C02811109C089E20E94000EE7
:1032C0000E94C60E80E0DF91CF91089585E3F6CF8E
:1032D00080911C02811104C089E20E94070EF0CF88
:1032E00085E3FBCF81E0EFCF0F931F93CF93DF9365
:1032F000C42FD22FFC0182818823C9F040931F0282
:103300000E94751B90931E0280931D0280E28C0F19
:10331000883008F050C0C77081E001C0880FCA959E
:10332000EAF7DF91CF911F910F910C9492041091C5
:103330001F02141335C080911D0290911E020E943D
:10334000A11B883C910560F5C0E2CD0F1D17B9F0B7
:1033500080E2810F883040F4177081E001C0880F4F
:103360001A95EAF70E949904C83048F481E09D2F2D
:10337000977001C0880F9A95EAF70E949204802FF7
:103380000E948A04C830B8F4D77081E001C0880F69
:10339000DA95EAF7DF91CF911F910F910C94990480
:1033A00080E28C0F883038F4C77081E001C0880F4C
:1033B000CA95EAF7EFCFDF91CF911F910F91089552
:1033C0000F939C01CB01243F4CE53407A1F190F40D
:1033D000293DFCE53F0749F12A3D4CE53407E9F179
:1033E000283D3C45C1F0FC0182818823E1F1109227
:1033F0001F0219C0263FFCE53F0719F1273F4CE5A6
:10340000340729F1253F3C4571F707E225EE44EEEC
:1034100065EF7CE505C006E221EE41EE68ED7CE556
:103420000E94741980E00F91089507E225EE45EEA1
:1034300069ED7CE5F5CF06E221EE40EE64EF7CE538
:10344000EFCF06E221EE42EE66EF7CE5E9CF07E240
:1034500025EE46EE67EF7CE5E3CF08E221E045EE9E
:103460006AED7CE5DDCF81E0DECF90938301809330
:103470008201089590932502809324020895E0919B
:103480002402F0912502309721F00190F081E02D87
:10349000099480E00895E0912402F091250230978C
:1034A00021F00280F381E02D09940895DC01E09180
:1034B0002402F0912502309739F082E08C93048049
:1034C000F581E02DCD0109940895209122023091DB
:1034D00023022817390771F0909323028093220268
:1034E000E0912402F0912502309721F00680F781C7
:1034F000E02D09940895209120023091210228178F
:10350000390771F09093210280932002E091240208
:10351000F0912502309721F00084F185E02D099487
:103520000895AC019C012E5F3F4F485F5F4F80E0E4
:103530002417350709F40895F90191919F01992302
:10354000B9F38F5FF5CF9C01662351F0FC013296F1
:10355000285F3F4F8191861729F0E217F307D1F7D3
:1035600080E0089581E008959C01FC0132968FEF80
:1035700090E04191461751F08F3F19F4411101C07D
:10358000892F9F5F9630A9F78F3F09F40895280F80
:10359000311D87FD3A95F901628308959C01FC0174
:1035A0003296285F3F4F8191861303C0DF01119748
:1035B0001C92E217F307B9F708950C94B41A0C940F
:1035C000CE1AFC01329686E0DF011D928A95E9F75A
:1035D000089508950C94E91A8F5F809326020C9445
:1035E000EA1A83E0809326020C94EA1A0C94EC1AEF
:1035F00081E0809326020C94EA1A0C94F81A08953C
:1036000080914F02843031F10E941D0310922702F5
:1036100088E190E020E40FB6F894A89580936000CC
:103620000FBE2093600083B7817F846083BF83B720
:10363000816083BF7894889583B78E7F83BF0FB6F0
:10364000F894A89580916000886180936000109242
:1036500060000FBE089508950895CF930E942B1B1C
:103660000E94F1130E942C1BC0E08C2F0E94361385
:10367000811105C0CF5FC830C1F7CF91089581E0B7
:10368000FCCF0E9493070C9485031F921FB61F92D4
:1036900011248F939F93AF93BF9380912702811141
:1036A00013C08091470290914802A0914902B091C5
:1036B0004A024196A11DB11D809347029093480292
:1036C000A0934902B0934A02BF91AF919F918F910D
:1036D0001F901FBE1F90189582E084BD93E095BD9A
:1036E0009AEF97BD80936E0008952FB7F89480915C
:1036F000470290914802A0914902B0914A022FBF1F
:103700000895CF93DF9300D000D0CDB7DEB78FB749
:10371000F89420914702309148024091490250911B
:103720004A0229833A834B835C838FBF69817A8104
:103730008B819C810F900F900F900F90DF91CF9114
:1037400008959C014FB7F8948091470290914802E8
:10375000A0914902B0914A024FBF821B930B08957A
:1037600078941F921FB61F9211248F939F93AF934B
:10377000BF938091470290914802A0914902B09175
:103780004A020196A11DB11D809347029093480201
:10379000A0934902B0934A02BF91AF919F918F913C
:1037A0001F901FBE1F90189581E08093E00080E27B
:1037B0008093D8001092C9008FE19EE40197F1F741
:1037C00000C0000087E090EBDC01809358029093EA
:1037D0005902A0935A02B0935B0288E19CE00FB6B5
:1037E000F894A895809360000FBE90936000FFCF7F
:1037F000809133020895089522E02093E9002FEF8D
:103800003091E800215035FD06C035ED3A95F1F7CD
:1038100000002111F5CF2091E80025FF0BC050E0FA
:1038200040E066E070E00E94241E8091E8008E7700
:103830008093E8000895CF93DF93D82FC92F81E0BC
:103840008093E9008FEF9091E800815095FD06C0CC
:1038500095ED9A95F1F700008111F5CF8091E80080
:1038600085FF16C050E040E068E070E08D2F9C2F8F
:103870000E94241E8091E8008E778093E80088E003
:10388000ED2FFC2FABE2B2E001900D928A95E1F7AB
:10389000DF91CF9108958093280270932A0260935C
:1038A000290280914F02843001F582E08093E90083
:1038B0008FEF9091E800815095FD06C095ED9A95A7
:1038C000F1F700008111F5CF8091E80085FF0DC070
:1038D00050E040E063E070E088E292E00E94241E45
:1038E0008091E8008E778093E8000895BC0184E021
:1038F0000C944B1CBC0183E00C944B1C80914E0239
:10390000811109C00E94AC1F0E9409208091E20031
:1039100084608093E200089510924E0208950C9402
:10392000F81A60914B0281E0611101C080E00C94B3
:10393000F11A90914F0281E0943009F080E060919B
:103940004B020C94F61A42E061EC81E00E94281FC1
:1039500042E261EC82E00E94281F90914F0281E0D8
:10396000943009F080E060914B020C94EC1A809145
:103970005102893089F148F4823009F49EC08330C5
:1039800009F459C0813041F008958A3009F485C0A6
:103990008B3009F46BC0089580915002813A09F090
:1039A00049C08091E800877F8093E80080915402AD
:1039B00090915502892B61F468E08BE292E070E00F
:1039C0000E94731E8091E8008B778093E800089531
:1039D00060E090E080E0F3CF80915002813251F5B9
:1039E0008091540290915502029720F58091E80051
:1039F000877F8093E8008091E80082FF17C0909154
:103A0000F3008091F200029731F48091F10081304F
:103A100011F0863021F48091F1008093330280917F
:103A2000E8008B778093E8000C945C1F80914F0234
:103A30008111E1CF089580915002813AD9F78091A8
:103A4000540290915502892BA9F78091E800877F55
:103A50008093E8008091E80080FFFCCF80911801FE
:103A60008093F1008091E8008E77DCCF8091500246
:103A7000813201F78091540290915502892BD1F641
:103A80008091E800877F8093E8000E945C1F80910E
:103A90005202809318010C94930780915002813256
:103AA00049F68091E800877F8093E8000E945C1FC0
:103AB0008091530280933402089580915002813A9C
:103AC00009F0B8CF8091E800877F8093E80080916B
:103AD000E80080FFFCCF80913402C2CF84B7877F9B
:103AE00084BF0FB6F894A895809160008861809398
:103AF0006000109260000FBE80E890E00FB6F8946E
:103B000080936100909361000FBE0C94FD1A0E9497
:103B1000AC1F0E940920E2EEF0E080818460808387
:103B200078940C9495228CE091E00C943A1A809150
:103B30004F028530A9F480914F02853011F00C942A
:103B4000411B0E94001B80914D028823A1F30E941B
:103B50002D1B882381F30E940E1E0E949307EBCF3A
:103B6000089508950C94B41DFC01CB01DA012F2FA8
:103B7000332723303105D1F070F42130310509F4B9
:103B80003EC02230310569F48BE390E02EE732E04D
:103B90002D933C93089521323105E9F0223231050D
:103BA00021F190E080E030E020E0F2CFCF019927D2
:103BB000E13059F08230910559F0EAE7F2E0892BC3
:103BC00081F7849190E09F01E3CFEAE6F2E0F9CF3C
:103BD000ECE3F2E0F6CF892BB9F06130710509F71B
:103BE00089E090E029EA32E0D3CF892B91F061306F
:103BF0007105B9F68BE790E02BEC32E0C9CF82E19A
:103C000090E029EB32E0C4CF89E090E020E932E097
:103C1000BFCF80E490E026E433E0BACF80E189BDF5
:103C200082E189BD09B400FEFDCF8091D8008F7D6F
:103C30008093D8008091E00082608093E0008091C2
:103C4000E00081FDFCCF0895AF92BF92CF92DF924A
:103C5000FF920F931F93CF93DF936C01EB018A01C7
:103C60000E947B1FF82E811123C00115110539F028
:103C7000F80180819181C81BD90BC80ED91EB12CC7
:103C8000A12C2097A9F08091E80085FD22C08091A9
:103C9000E8008E778093E80001151105A1F0F80186
:103CA000808191818A0D9B1D9183808385E0F82E10
:103CB0008F2DDF91CF911F910F91FF90DF90CF90CB
:103CC000BF90AF9008950E947B1F8823D1F2F82EF9
:103CD000EFCFF60181916F018093F1002197FFEF03
:103CE000AF1ABF0ACECFFC01CB0120915602309112
:103CF00057022617370790F0009729F42091E80023
:103D00002E772093E80040E0009751F4411108C05D
:103D10008091E80082FF31C080E00895C901F3CFAF
:103D200020914F022223A9F12530A9F12091E8002A
:103D300023FD2DC02091E80022FDEACF2091E8006C
:103D400020FFE2CF3091F3002091F200009719F0AC
:103D50002830310558F041E02830310509F040E0C5
:103D60002091E8002E772093E800CECF4191409338
:103D7000F10001972F5F3F4FE9CF80914F028823D9
:103D800041F0853041F08091E80083FFC1CF81E0B0
:103D9000089582E0089583E00895FC01CB0120910D
:103DA0005602309157022617370790F0009729F4F2
:103DB0002091E8002E772093E80040E0009751F42E
:103DC000411108C08091E80082FF32C080E0089570
:103DD000C901F3CF20914F022223B1F12530B1F177
:103DE0002091E80023FD2EC02091E80022FDEACFBB
:103DF0002091E80020FFE2CF3091F3002091F20003
:103E0000009719F02830310558F041E0283031058D
:103E100009F040E02091E8002E772093E800CECF13
:103E200044914093F100319601972F5F3F4FE8CFC7
:103E300080914F02882341F0853041F08091E80065
:103E400083FFC0CF81E0089582E0089583E0089564
:103E5000982F973028F08F708093E90081E00895C3
:103E60009093E900242F762F50E0981731F070914D
:103E7000EC002091ED005091F00021FD02C09F5F09
:103E8000E8CF3091EB003E7F3093EB003091ED00B6
:103E90003D7F3093ED003091EB0031603093EB00CB
:103EA0007093EC002093ED005093F0002091EE0011
:103EB00027FDE5CF80E008958091500287FF13C071
:103EC0008091E80082FF06C08091E8008B778093A4
:103ED000E80004C080914F028111F2CF08958091D3
:103EE0004F028823D9F38091E80080FFF8CF8091BA
:103EF000E8008E77ECCF2091E4003091E50095E664
:103F0000A9012091EC00822F817020FF06C08091D2
:103F1000E80080FF06C080E008952091E80022FDBF
:103F20001AC080914F02882389F0853089F08091F2
:103F3000EB0085FD0FC02091E4003091E5004217B1
:103F40005307F9F29150E1F684E0089582E0089574
:103F500083E0089581E008950E941A200E942220A3
:103F6000E0EEF0E0808181608083E8EDF0E0808128
:103F70008F77808319BCA7EDB0E08C918E7F8C93F6
:103F800080818F7E808310924E0208950F931F933D
:103F9000CF93DF930E941A200E942220C8EDD0E028
:103FA00088818F77888388818068888388818F7DE6
:103FB000888319BC10924F0210924B0210924D024E
:103FC00010924C0200EE10E0F80180818B7F80831C
:103FD00088818160888342E060E080E00E94281F41
:103FE000E1EEF0E080818E7F8083E2EEF0E0808180
:103FF00081608083808188608083F80180818E7FEA
:104000008083888180618883DF91CF911F910F9198
:104010000895E8EDF0E080818F7E8083E7EDF0E0A9
:1040200080818160808384E082BF81E080934E0242
:104030000C94C61FE8EDF0E080818E7F80831092A3
:10404000E20008951092DA001092E10008951F92A4
:104050000F920FB60F9211242F933F934F935F93BC
:104060006F937F938F939F93AF93BF93EF93FF9340
:104070008091E10082FF0BC08091E20082FF07C0C7
:104080008091E1008B7F8093E1000E9494228091D7
:10409000DA0080FF19C08091D80080FF15C08091A0
:1040A000DA008E7F8093DA008091D90080FF94C07F
:1040B00080E189BD82E189BD09B400FEFDCF81E0C8
:1040C00080934F020E947E1C8091E10080FF19C006
:1040D0008091E20080FF15C08091E2008E7F809386
:1040E000E2008091E20080618093E2008091D8003C
:1040F00080628093D80019BC85E080934F020E94B3
:10410000911C8091E10084FF29C08091E20084FF2E
:1041100025C080E189BD82E189BD09B400FEFDCFE3
:104120008091D8008F7D8093D8008091E1008F7EB0
:104130008093E1008091E2008F7E8093E200809185
:10414000E20081608093E20080914B02882309F4B1
:1041500049C084E080934F020E94991C8091E10045
:1041600083FF29C08091E20083FF25C08091E10098
:10417000877F8093E10082E080934F0210924B0290
:104180008091E1008E7F8093E1008091E2008E7F3C
:104190008093E2008091E20080618093E20042E03F
:1041A00060E080E00E94281F8091F000886080938A
:1041B000F0000E948F1CFF91EF91BF91AF919F91F2
:1041C0008F917F916F915F914F913F912F910F90C0
:1041D0000FBE0F901F90189519BC10924F020E94AD
:1041E0008C1C72CF8091E30087FD02C081E0B2CFCA
:1041F00083E0B0CF1F920F920FB60F921124FF925F
:104200000F931F932F933F934F935F936F937F93DE
:104210008F939F93AF93BF93CF93DF93EF93FF93CE
:1042200009EE10E0F8018081C091EC00C795CC2721
:10423000C7958F70FC2EF82A1082C0EFD0E08881DD
:10424000877F888378940E944321F80110828881B7
:1042500088608883CF2DCF70C083FF91EF91DF916D
:10426000CF91BF91AF919F918F917F916F915F910E
:104270004F913F912F911F910F91FF900F900FBE83
:104280000F901F9018951F93CF93DF93CDB7DEB794
:10429000AA970FB6F894DEBF0FBECDBF80E592E0BF
:1042A000FC0101962091F100208322E088359207DD
:1042B000B9F70E94B71C8091E80083FF1DC180916F
:1042C0005002909151029A3008F016C1E92FF0E0A7
:1042D000EE56FC4D0C94C322803899F0823809F0D8
:1042E0000BC1809154028F70873008F005C1809314
:1042F000E9008091EB0085FB882780F91092E900A6
:1043000006C080914C0290914D0291118260909173
:10431000E800977F9093E8008093F1001092F100FD
:104320008091E8008E77E4C0882309F4D2C08230FF
:1043300009F0E2C0809152028111D5C080915402EF
:104340008F702FEF280F263008F0D6C08093E90039
:104350002091EB0020FFC7C0933031F48091EB0037
:1043600080628093EB00BFC09091EB0090619093CE
:10437000EB0021E030E001C0220F8A95EAF720939C
:10438000EA001092EA008091EB008860EACF811188
:10439000B3C0109152021F778091E3008078812B87
:1043A0008093E3008091E800877F8093E8000E947B
:1043B0005C1F8091E80080FFFCCF8091E300806863
:1043C0008093E30082E0111183E080934F0294C058
:1043D0008058823008F090C0809152029091530230
:1043E0008C3D23E0920799F583E08A838AE28983F2
:1043F0004FB7F894DE01139620E03EE051E2E32F40
:10440000F0E050935700849120FF03C082958F7095
:104410003F5F8F708A30C8F0895C90E08D939D93E8
:104420002F5F243161F74FBF8091E800877F809331
:10443000E8006AE270E0CE0101960E94731E80914E
:10444000E8008B778093E80057C0805DE6CF6091ED
:10445000540270915502AE014F5F5F4F0E94B21D32
:10446000BC01892B09F448C08091E800877F8093C4
:10447000E80089819A810E94CD1EE1CF8038E1F564
:104480008091E800877F8093E80080914B028093C1
:10449000F10046CF811130C090915202923060F508
:1044A0008091E800877F8093E80090934B020E9400
:1044B0005C1F80914B02882311F084E005C080913D
:1044C000E30087FDFACF81E080934F020E94A31C96
:1044D00013C080915202813079F481E0933009F069
:1044E00080E080934D021092E9008091E800877F80
:1044F0008093E8000E945C1F8091E80083FF0AC05F
:104500008091E800877F8093E8008091EB008062D3
:104510008093EB00AA960FB6F894DEBF0FBECDBF16
:10452000DF91CF911F9108950895CF9380914F020D
:10453000882399F08091E900C091EC00C795CC27C1
:10454000C7958F70C82B1092E9008091E80083FD19
:104550000E944321CF70C093E900CF91089597FB4B
:10456000072E16F4009407D077FD09D00E94C922C7
:1045700007FC05D03EF4909581959F4F0895709566
:1045800061957F4F0895EE0FFF1F0590F491E02D88
:104590000994AA1BBB1B51E107C0AA1FBB1FA6178A
:1045A000B70710F0A61BB70B881F991F5A95A9F7DC
:1045B00080959095BC01CD010895FB01DC0104C0FC
:1045C0008D910190801921F441505040C8F7881B0B
:1045D000990B0895F999FECF92BD81BDF89A99275C
:1045E00080B50895A8E1B0E042E050E00C941E23AD
:1045F000262FF999FECF92BD81BDF89A019700B49C
:10460000021639F01FBA20BD0FB6F894FA9AF99A3B
:104610000FBE08950396272F0E94F9220E94F822C8
:10462000252F0E94F922242F0C94F9220196272F7E
:104630000E94F9220C94F822DC01CB01FC01F999CB
:10464000FECF06C0F2BDE1BDF89A319600B40D92DE
:1046500041505040B8F70895F894FFCFE004E004CB
:1046600013051305BF05DB053E053E05E60592066D
:10467000A306A3061A073E053E05230723152915A1
:104680002C1532154715471547154715471547157A
:104690004715471535153A153E15441555155B1543
:1046A0005F15731779177D178B178F179317971748
:1046B0009D17A517A917AD17B117BD17C117C517B6
:1046C000C917CF17ED17D7178717B517B917A11740
:1046D000D317E317F617FA174F18461852183C1855
:1046E000411841183C18411841186E1841187918A2
:1046F000411841184118411841183C1841184118F7
:104700003C1841186018411841188A188A188A18EC
:104710008A188A188A188A188A188A1884184118D8
:104720004F1843186C2194217C2294217C22C721AC
:08473000E8217C223E224A220E
:10473800C800EB012808641E32060C02F81B1B1C7B
:10474800FC1B7A1C761CFB1B01E200E900EA00B5A1
:1047580000B600B700CD008301CC008A0192019415
:10476800012102230224022502260227022A02B37B
:1047780000B4006F007000E200E900EA00B500B67E
:1047880000B700CD008301CC008A01920194012179
:1047980002230224022502260227022A02B300B4B9
:1047A800006F0070009334C66694F53132369197E5
:0247B80035F6D4
:00000001FF
