:100000000C942E020C9466020C9409220C94660245
:100010000C9466020C9466020C9466020C946602C0
:100020000C9466020C9466020C94E41B0C94A01BC6
:100030000C94E11C0C9466020C9466020C9466020B
:100040000C9466020C9466020C9466020C94660290
:100050000C9466020C94BD1C0C9466020C9466020F
:100060000C9466020C9466020C9466020C94660270
:100070000C9466020C9466020C9466020C94660260
:100080000C9466020C9466020C9466020C94660250
:100090000C9466020C9466020C9466020C94660240
:1000A0000C9466020C9466020C9466020501090227
:1000B000A10185020901A1000509190129081500FE
:1000C0002501950875018102050109300931158165
:1000D000257F95027508810609381581257F9501D0
:1000E00075088106050C0A38021581257F95017572
:1000F000088106C0C005010980A101850319012AF4
:10010000B700150126B700950175108100C0050CD8
:100110000901A101850419012AA002150126A002E6
:10012000950175108100C005010906A1018506052C
:100130000719E029E71500250195087501810205D9
:1001400007190029EF1500250195F07501810205B9
:10015000081901290595057501910295017503910D
:1001600001C00660FF0961A1010962150026FF00B8
:100170009520750881020963150026FF00952075FA
:10018000089102C005010906A101050719E029E748
:1001900015002501950875018102950175088101F9
:1001A0000507190029FF150026FF0095067508812F
:1001B000000508190129059505750191029501753C
:1001C000039101C0000000000000000000000000DA
:1001D000000000000000000000000000000000001F
:1001E00000000000000000007E0F00D4FFFFFFC7EA
:1001F0000000007800000000000000002A2B28000A
:1002000000000000000000000000000000000029C5
:10021000000000002C1E3420212224342627252E05
:10022000362D3738271E1F2021222324252633333D
:10023000362E37381F0405060708090A0B0C0D0E69
:100240000F101112131415161718191A1B1C1D2F35
:100250003130232D350405060708090A0B0C0D0E55
:100260000F101112131415161718191A1B1C1D2F15
:100270003130354C14001A00080015001700040036
:100280001600070009000A001D001B0006001900E7
:1002900005000151E1000000000000001C001800F2
:1002A0000C00120013000B000D000E000F003400B4
:1002B000110010003600370038002C0002510000F9
:1002C00000000000290026022702240225022B003C
:1002D0000100230222022102E200010020021F028B
:1002E0001E020100E0000000000000005F0060004E
:1002F00061002D002A005C005D005E0057002800B0
:1003000059005A005B002E003300620003510000C8
:100310000000000001005200010001000100500037
:1003200051004F0001000100010001000100010027
:1003300001000351E1000000000000000100010085
:100340002F0030004C0001004B0001000100310083
:100350004A004E004D0001003500E00001000000A1
:1003600000000000010001000100005C010001002C
:100370000100010001000100010001000100010075
:1003800001000100010000000000000042004300E5
:100390004400450001003E003F00400041000100D4
:1003A0003A003B003C003D0001000100010000005C
:1003B0000000000009025B00030100A0FA0904002C
:1003C0000001030101000921110100012240000781
:1003D000058103080001090401000203000000096F
:1003E00021110100012222000705820320000107DC
:1003F00005030320000109040200010300000009B5
:10040000211101000122B60007058403200001121A
:1004100001000200000008ABC239390100010200EE
:1004200001220341007200630068006900740065E6
:100430000075007400680069007300200064007596
:100440000078000000100374006100700069006F04
:10045000006B0069000000040309040011241FBEA2
:10046000CFEFDAE0DEBFCDBF04B603FE18C0809147
:10047000B7029091B802A091B902B091BA02873048
:10048000904BA740B04B59F41092B7021092B802AB
:100490001092B9021092BA02E0E0F8E3099511E077
:1004A000A0E0B1E0EAEBF7E402C005900D92A039BC
:1004B000B107D9F722E0A0E9B1E001C01D92A73B46
:1004C000B207E1F70E94081D0C94B2230C940000BF
:1004D000FC01AC014C5F5F4F8FEF91E321918227CC
:1004E00028E030E087FF09C0880F892721503109B3
:1004F000C9F7E417F50791F70895880FF7CFE8EDEE
:10050000F0E080818E7F80831092E2001092DA000A
:100510001092E100A0EEB0E08C9181608C9380811C
:100520008F77808319BCA7EDB0E08C918E7F8C9380
:1005300080818F7E80831092840208952091E40050
:100540003091E50095E6A9012091EC00822F8170A1
:1005500020FF06C08091E80080FF06C080E008957B
:100560002091E80022FD1AC08091A902882389F019
:10057000853089F08091EB0085FD0FC02091E4006B
:100580003091E50042175307F9F29150E1F684E00B
:10059000089582E0089583E0089581E00895EF9240
:1005A000FF920F931F93CF937C018B010E949E02B9
:1005B000C82F811117C08091E80085FD0BC0809184
:1005C000E8008E778093E8000E949E02882399F3CA
:1005D000C82F08C0F70181917F018093F10001507D
:1005E000110949F78C2FCF911F910F91FF90EF9038
:1005F00008958091AB0287FF13C08091E80082FFCD
:1006000006C08091E8008B778093E80004C0809159
:10061000A9028111F2CF08958091A9028823D9F30C
:100620008091E80080FFF8CF8091E8008E77ECCFD2
:10063000982F9093E900242F762F50E0891731F0FE
:100640007091EC002091ED005091F00021FD07C069
:100650009F5F973071F78093E90081E008953091B2
:10066000EB003E7F3093EB003091ED003D7F309307
:10067000ED003091EB0031603093EB007093EC00B3
:100680002093ED005093F0002091EE0027FDE0CF85
:1006900080E00895CF92DF92EF92FF920F931F9325
:1006A000CF93DF93C8EDD0E088818F7E8883E7ED1C
:1006B000F0E080818160808384E082BF81E080936C
:1006C000840288818E7F888302EE10E0F801108218
:1006D0001092DA0081EEC82ED12CF60110828881AA
:1006E0008F77888388818068888388818F7D8883DD
:1006F00019BC1092A9021092AA021092A80210929C
:10070000A70290EEE92EF12CF70180818B7F808388
:1007100088818160888342E060E080E00E94180365
:10072000F60180818E7F8083F801808181608083E3
:10073000808188608083F70180818E7F80838881BB
:1007400080618883DF91CF911F910F91FF90EF908F
:10075000DF90CF900895FC018091B1029091B20298
:1007600086179707A0F06115710529F49091E800AC
:100770009E779093E80090E06115710551F4911116
:1007800008C08091E80082FF34C080E00895BC0179
:10079000F2CF8091A9028823C1F18530C1F1809107
:1007A000E80083FD30C08091E80082FDEACF8091AF
:1007B000E80080FFE1CF8091F3002091F200382F14
:1007C0006115710519F02830310558F091E0283095
:1007D000310509F090E02091E8002E772093E800A1
:1007E000CBCF81918093F100615071092F5F3F4F12
:1007F000E7CF8091A902882341F0853041F08091B4
:10080000E80083FFBECF81E0089582E0089583E091
:10081000089508958091860208959C014FB7F89439
:1008200080917B0290917C02A0917D02B0917E022A
:100830004FBF821B930B08952FB7F89460917B02F2
:1008400070917C0280917D0290917E022FBF08956D
:100850002FB7F89480917B0290917C02A0917D0249
:10086000B0917E022FBF08952091780230917902D5
:100870002817390771F09093790280937802E091FC
:100880007602F0917702309721F00084F185E02D17
:100890000994089520917402309175022817390740
:1008A00071F09093750280937402E0917602F0915A
:1008B0007702309721F00680F781E02D09940895A2
:1008C0000E9428049C019091700280917102982BE3
:1008D00021F030936D0220936C029091720280910E
:1008E0007302982B21F030936B0220936A02E091FF
:1008F0007602F0917702309749F082E080936E02A1
:100900000480F581E02D8EE692E0099408954091EF
:100910007002803F59F48091710287FF0DC01092E0
:10092000710241110BC01092680208C0813F81F42E
:100930008091710218169CF3442381F08091720219
:1009400090917302892B09F05AC0109267020895A2
:10095000823F49F447FFF0CF1092700280917102FC
:100960008111ECCFE0CF833F19F41416ACF3E4CF40
:1009700090917202893F29F41916F4F610927202CE
:10098000DBCF8A3F19F497FFD7CFF8CF909173024E
:100990008B3F29F497FFD0CF10927302CDCF8C3FBD
:1009A00019F41916CCF3C8CF9CE0980F953090F449
:1009B000845F990B21E030E0B90102C0660F771F18
:1009C0008A95E2F7CB01809590916F0289238093FD
:1009D0006F02B2CF8D3F31F4809169028E7F809398
:1009E0006902AACF8E3F21F4809169028D7FF7CFF3
:1009F0008F3F09F0A1CF809169028B7FF0CF0895DE
:100A00008091690280FD16C081FD16C082FD16C06E
:100A1000809167028823A1F0883280F428E0829FC9
:100A2000C001112468E270E00E942523862F672B05
:100A300039F0089582E0089584E0089588E00895EB
:100A400081E008958091690280FD14C081FD14C089
:100A500082FD16C080916802882381F08E3180F477
:100A600020E5829FC00111246EE170E00E942523E1
:100A7000862F089584E1089588E2089588E0089516
:100A800080E50895803F31F40E942205819580938E
:100A900071020895813F19F40E942205F8CF823F28
:100AA00031F40E9422058195809370020895833F5E
:100AB00019F40E942205F8CF893F29F40E9400050D
:100AC0008093720208958A3F21F40E940005819567
:100AD000F7CF8B3F31F40E9400058195809373021C
:100AE00008958C3F19F40E940005F8CF9CE0980F00
:100AF000953070F4845F990B21E030E001C0220F43
:100B00008A95EAF780916F02822B80936F02089595
:100B10008D3F31F48091690281608093690208956C
:100B20008E3F21F4809169028260F7CF8F3FB9F741
:100B3000809169028460F1CF80E0089590917F02F6
:100B400092FF06C0282F28712830F9F4877F84602F
:100B500093FF06C0282F28712831F1F4877E846125
:100B60002091800220FF06C0382F38713830D9F428
:100B7000877F816021FF06C0282F28712831D1F49A
:100B8000877E816194FD877E0895282F247124300B
:100B9000F9F68B7F8860DCCF282F2471243101F790
:100BA0008B7E8861DDCF382F3171313019F78E7F20
:100BB0008860E0CF282F2171213121F78E7E886156
:100BC000E1CFCF93DF93EC0182389105A9F1D8F5FD
:100BD0008133910509F496C048F58932910509F4ED
:100BE0008AC08A9709F495C0C11521E5D20708F09B
:100BF000BCC0C11530E5D30708F014C1C83ED1050B
:100C000008F09CC0C03ED10560F5C83AD10508F097
:100C100087C0C53AD10508F0FDC0C130D10509F142
:100C20002097F9F0C430D105E0F440C08533910538
:100C300009F45AC0C997C1F680917F02837089F088
:100C4000C0EED0E00EC0833E910599F170F4803E75
:100C5000910501F1823E910539F680917F0282FD76
:100C600021C0CE01DF91CF910895863E910561F1BB
:100C7000873E910571F1843E910509F0B5CF8091D1
:100C8000800281FFEECF80917F02C7EED0E084FD2D
:100C90000DC0E7CF80917F0280FD12C1909180024C
:100CA00090FFDFCFC3EED0E084FFDBCFD0E0C0E029
:100CB000D8CF80917F0282FD06C19091800290FD85
:100CC000BFCF84FFCECFF2CF80917F0283FDDDCFF7
:100CD000C8CF80917F0283FDF9C09091800291FF7F
:100CE000F0CFC4EED0E0BDCF80917F0285FFB9CFB9
:100CF000C9E2D0E0B6CF80917F0285FFB2CFC5E3D5
:100D0000D0E0AFCF80917F0286FFABCFCAE2D0E0C8
:100D1000A8CF80917F0286FFA4CFC1E3D0E0A1CF0E
:100D2000CF3BD10518F6C85AD0E0CC0FDD1FCF5A03
:100D3000DE4F0990D881C02DD46493CFC11540E215
:100D4000D40758F4C11581E0D80708F08ACFC03F16
:100D5000D10508F4ABCFD06584CFC11590E4D90795
:100D600008F4A4CFDF70D06A7CCFC11525E5D20787
:100D700000F5C11534E5D30708F08AC0C11543E575
:100D8000D40708F071C0C11582E5D80708F467C020
:100D9000CE018370992721E030E002C0220F331F7B
:100DA0008A95E2F7C695C69580E2C89FE0011124B6
:100DB00052C0C11599E5D907A8F4C11528E5D20795
:100DC00008F06BC0C11536E5D30708F06FCF8C2F44
:100DD0000E949E05C82FD0E0DC2FCC27CC27DF71E6
:100DE000D0623FCFC1154AE5D40708F45BC0CE01FD
:100DF00090568115904208F059CF8D2F8F710E9427
:100E00009E0590E0982F882788279F719C012C2BA6
:100E1000E901E6CFC55AD0E0C25BDE4FC881D0E021
:100E2000D0641FCFCE01E4E096958795EA95E1F76F
:100E300083702C2F26952695237040E2249F9001E5
:100E40001124382B8C2F8370C1E0D0E002C0CC0F6E
:100E5000DD1F8A95E2F7C22BD32BDC6802CFDC2F93
:100E6000CC27C16FD06AFDCECE018370992721E0D7
:100E700030E002C0220F331F8A95E2F7C695C6956F
:100E800090E2C99FE0011124C22BD32BDA68E9CE8E
:100E9000DC2FCC27C46FD06AE4CEDC2FCC27C06F08
:100EA000D06ADFCE8C2F8F700E949E0534E0D695DD
:100EB000C7953A95E1F7CF709C2FEC01D069D1CE60
:100EC000C9E3D0E0CECEC2EED0E0CBCEC6EED0E0CD
:100ED000C8CE809120028111109220020895809541
:100EE00090911F02982390931F02089590913901C9
:100EF0009923D1F090917F0297FF16C0E82FE695D5
:100F0000E695E695EE31E0F4F0E0EE56FE4F282F40
:100F1000277081E090E001C0880F2A95EAF780955C
:100F20009281892382830895E4E9F1E09191891304
:100F300003C0DF0111971C9291E0EA39F907B1F77C
:100F40000895909139019923C1F090917F0297FF04
:100F500014C0E82FE695E695E695EE31F8F4F0E05A
:100F6000EE56FE4F877021E030E001C0220F8A95D7
:100F7000EAF78281822B82830895A4E9B1E0EFEF42
:100F800090E02D91821751F0EF3F19F4211101C02B
:100F9000E92F9F5F9630A9F7EF3F09F408950E2ED1
:100FA000000CFF0BEE56FE4FE6CF8091FC019091B6
:100FB000CB01981301C008958F5F8770FACFE92F96
:100FC000EE0FEE0F9E0F890F982F977086958695DE
:100FD000869523E0829FF0011124EA54FE4F50E0F1
:100FE00040E080E0219130E0092E02C0369527953F
:100FF0000A94E2F721703327042E01C0220F0A94CD
:10100000EAF7822B4F5F5F4F4330510559F7089540
:10101000E92FEE0FEE0F9E0F890F982F977041E08A
:1010200001C0440F9A95EAF786958695869593E0D8
:10103000899FF0011124EA54FE4F30E020E070E077
:101040005191DF011197CB01022E02C09695879531
:101050000A94E2F7817081958527842385278C93F4
:101060002F5F3F4F2330310559F708958093810258
:1010700070938302609382028091A9028430F9F414
:101080008093E9008FEF9091E800815095FD06C0B4
:1010900095ED9A95F1F700008111F5CF8091E80068
:1010A00085FF0DC050E040E063E070E081E892E031
:1010B0000E94CF028091E8008E778093E800089527
:1010C000BC0184E00C943608BC0183E00C94360823
:1010D0009C0184E08093E9009FEF8091E8009150AB
:1010E00085FD06C085ED8A95F1F700009111F5CFD9
:1010F0008091E80085FF0CC050E040E066E070E0C1
:10110000C9010E94CF028091E8008E778093E800A9
:101110000895CF93DF93EC01809139018823B1F1D9
:1011200080917F0287FF32C060E284E08093E90013
:101130008FEF9091E800815095FD06C095ED9A954E
:10114000F1F700008111F5CF8091E80085FF1BC009
:101150008091390170E050E040E0811104C050E01E
:1011600040E068E070E0CE010E94CF028091E8008C
:101170008E778093E80080E2FE01A7E8B2E001905C
:101180000D928A95E1F7DF91CF91089568E081E0B3
:10119000CDCF81E08093E00080E28093D800109270
:1011A000C9008FE19EE40197F1F700C0000087E0DD
:1011B00090EBDC018093B7029093B802A093B90240
:1011C000B093BA0288E19CE00FB6F894A89580939A
:1011D00060000FBE90936000FFCFAF92BF92CF929E
:1011E000DF92EF92FF920F931F93CF93DF937C01D7
:1011F0005B016A018091420201E010E08A3010F444
:101200000AE010E0C1E0D0E0F894B501C701F601B2
:1012100009957894811104C021960C171D075CF480
:10122000DF91CF911F910F91FF90EF90DF90CF90C2
:10123000BF90AF900895CC9F9001CD9F300D300DA1
:10124000112490E080E045E34A95F1F70000019613
:1012500082179307C1F7D8CF80912C02811110C05B
:101260008091D80080618093D8008AE18A95F1F757
:1012700000C08091D90080FF0AC081E080932C02D9
:1012800081E090912C02913009F080E0089582E095
:1012900080932C020E947F021092A902F1CF0E943B
:1012A0002C09882351F0E0917602F0917702309773
:1012B00021F00190F081E02D099480E00895CF9312
:1012C000DF93C7E6D1E060E0CE010E94682321965B
:1012D000C11584E0D807B9F7DF91CF9108956F92D7
:1012E0007F928F929F92AF92BF92CF92DF92EF92B6
:1012F000FF920F931F93CF93DF9384E7C82E82E072
:10130000D82E91E8E92EF12CE701C055D10936011C
:101310001BC0F50185909490692DC8010E94682337
:10132000682DC80101960E94682382E0A80EB11CB6
:101330000E5F1F4FC017D10761F78AE0680E711C5E
:101340002A96CE15DF0529F08E010A5011095301A6
:10135000E0CF7E0180E5E80EF11C80E5C80ED11CCF
:1013600081ECE81681E0F80679F6DF91CF911F91C4
:101370000F91FF90EF90DF90CF90BF90AF909F9034
:101380008F907F906F900895CF93C82F6FEF81114A
:1013900062E283E290E00E9468236FEFC11164E093
:1013A00084E290E00E9468236FEFC11162E085E261
:1013B00090E0CF910C94682380E00E94C40960E023
:1013C00086E290E00E9468230E946F090E945F09F4
:1013D00081E00C94C4090F931F93CF93DF93C42F24
:1013E000D0E0CC0FDD1F2AE0629FC00DD11D11247B
:1013F00030E5839FC00DD11D1124CE0187960E9438
:101400005A23082F10E0102F0027CE0188960E9443
:101410005A239801282BC901DF91CF911F910F9179
:101420000895462F843038F4783028F4653018F465
:10143000672F0C94EB0990E080E00895CF92DF9243
:10144000FF920F931F93CF93DF936C010091B6022D
:1014500080912102082BC7E0D0E010E0FC2EC801EB
:101460000C2E02C0959587950A94E2F780FD0CC07A
:101470002197A0F7F12C8F2DDF91CF911F910F9124
:10148000FF90DF90CF900895B6018C2F0E94110A33
:101490000E94E105019761F3EECFCF93DF93EC015A
:1014A0000E941E0ABE010E94110ADF91CF910C9486
:1014B000E105FC01808191810E944D0A92959F7007
:1014C000963091F058F4925F9F70923058F4803FBC
:1014D00019F030F4883E30F481E008959A5FF4CF3B
:1014E000843FD1F380E00895883EB0F3813FD1F787
:1014F000F3CF83E290E00E945A23823289F484E29F
:1015000090E00E945A23843059F485E290E00E94D2
:101510005A2391E0823009F090E0892F817008957C
:1015200080E0FCCFCF9384E090E00E945A23C82F44
:1015300082E290E00E945A23982F8C2FCF91089539
:101540000F931F93CF93DF9300D000D0CDB7DEB7BA
:1015500040913E0250913F026091400270914102E1
:101560002FB7F89480917B0290917C02A0917D022C
:10157000B0917E022FBF841B950BA60BB70B11E019
:1015800084369105A105B10590F10E942C098823AC
:10159000C1F10E941C046E5F7F4F8F4F9F4F698384
:1015A0007A838B839C8380911101909112018B5CD3
:1015B0009D4F4091100150E04530510510F044E03E
:1015C00050E0BE016F5F7F4F0E94A92382E090E050
:1015D0000E94AF22182F882351F00E941C046093B0
:1015E0003E0270933F028093400290934102812F0C
:1015F0000F900F900F900F90DF91CF911F910F914F
:1016000008950E941C04009143021091440220910D
:10161000450230914602600F711F821F931FBBCF9E
:10162000EF92FF921F93CF93DF9300D000D00F92E1
:10163000CDB7DEB77B0190E080E00E94AF22182F8B
:10164000882309F487C04091030150E041155105FA
:1016500011F041E050E060910401709105016B5C74
:101660007D4FCE0105960E94A923409131025091F1
:10167000320260913302709134022FB7F894809156
:101680007B0290917C02A0917D02B0917E022FBFDF
:10169000841B950BA60BB70B84369105A105B105EC
:1016A00040F486E392E00E9468029D81891709F464
:1016B00051C081E090E00E94AF2281111AC010E079
:1016C00080912D0290912E02A0912F02B0913002B4
:1016D000F70180839183A283B383812F0F900F90B2
:1016E0000F900F900F90DF91CF911F91FF90EF908F
:1016F000089540910B0150E04530510510F044E051
:1017000050E060910C0170910D016B5C7D4FCE013A
:1017100001960E94A92386E392E00E9468029D81BF
:101720008913CDCF0E941C04609331027093320262
:10173000809333029093340289819A81AB81BC817A
:1017400080932D0290932E02A0932F02B09330022B
:1017500011E0B6CF8091360290913702A091380205
:10176000B091390289839A83AB83BC831111E4CF92
:10177000A7CFCF92DF92EF92FF920F931F93CF9359
:10178000DF93CDB7DEB72C970FB6F894DEBF0FBE50
:10179000CDBF8E010F5F1F4F88E0D8011D928A9543
:1017A000E9F7F80148E151E0BE016B5F7F4F6A0144
:1017B000E12CFF24F39430E0D6012D916D012F3FF1
:1017C00091F0822F82958F7090E0DC0190968C9141
:1017D00090E02F7002C0959587952A95E2F780FDDD
:1017E00059C08F2DE82A3F5FFF0C353029F7E19271
:1017F0004B5F5F4F6E177F07D1F648E050E0B801AE
:1018000087E492E00E949C237C01892B41F088E0D0
:10181000F801A7E4B2E001900D928A95E1F71091EA
:101820005002E114F104C1F181E0809324020E948E
:1018300028049093230280932202809122029091A7
:1018400023020E940D04059790F0E12FF0E0E15A89
:10185000FD4F80914702808380914802818380916F
:101860004902828380914A0283831092240281E09C
:1018700090E0EF28A9F02C960FB6F894DEBF0FBECB
:10188000CDBFDF91CF911F910F91FF90EF90DF902F
:10189000CF90089580E0A6CF809124028111CDCF12
:1018A0000E942C09F82EE0915002882309F46CC0A4
:1018B00019861A861B861C860E2F10E0015A1D4FB2
:1018C000809142028A3050F540E15BE0BE01675FE3
:1018D0007F4FC8010E94ED08882379F140EA5AE061
:1018E000BE01675F7F4FC8010E94ED08882329F180
:1018F0001092420280914F0290E044E050E0BE011D
:10190000675F7F4F815A9D4F0E949C2321E0209367
:101910002B02892B59F5F12C8F2DADCF809125020B
:10192000909126020E940D04843F914068F68091B8
:101930002B02811112C080E09ECF809142028F3F26
:1019400029F08F5F809342028A30A0F20E9428041F
:101950009093260280932502EACFFE01399684E017
:10196000DF011D928A95E9F710922B02E0914F0258
:10197000F0E0E15AFD4F89859A85AB85BC8580836F
:101980009183A283B383C8CFF0E0E15AFD4FF8946E
:1019900084E0A6E3B2E001900D928A95E1F786E338
:1019A00092E00E946802809335027894F894C09087
:1019B0003A02D0903B02E0903C02F0903D028091D0
:1019C000270290912802A0912902B0912A02C816FC
:1019D000D906EA06FB06D1F0C0922702D09228026F
:1019E000E0922902F0922A020E942C0981110EC075
:1019F0000E941C04C61AD70AE80AF90AC0924302D8
:101A0000D0924402E0924502F0924602789493CF3D
:101A100080911F0290911E02892B809392019091D8
:101A200020029923A1F0892B8093920180913901A2
:101A30008823D9F180917F0287FF37C08EE1E4E9E6
:101A4000F1E090E0815098F591110E94690740E221
:101A500050E06EEF71E082E991E00E949C23892BB7
:101A600059F180E2E2E9F1E0AEEFB1E001900D92D0
:101A70008A95E1F7E0917602F09177023097E1F0F4
:101A800080913901882359F080917F0287FF07C038
:101A9000809192018093930186E08093920102806D
:101AA000F381E02D82E991E0099486E0C8CF21918D
:101AB000222341F29F5FC6CF089590E080E00E940C
:101AC0004A0490E080E00E94340410921E020E94BA
:101AD000080D86E0EEE6F2E0DF011D928A95E9F757
:101AE0001092680210926702109269020C946004CE
:101AF0008093B6020C945D0D8091B602982F96707B
:101B0000963019F488600C94780D877FFCCF21E023
:101B100030E001C0220F8A95EAF720958091B60245
:101B200082230C94780D9091FD01809589238093F8
:101B3000FD01282F277091F4282F082E000C330B5D
:101B40009217130659F09091800292FD07C0859577
:101B5000859585950E94870D1092FD010895CF937C
:101B6000C0918002C2FB992790F9981799F080FBE9
:101B7000C2F9C093800260917F0284E090E00E94ED
:101B800068236C2F82E290E00E94682382E0CF916C
:101B90000C94930DCF91089521E030E001C0220F05
:101BA0008A95EAF78091B602822B0C94780D809387
:101BB00021020C945D0D10921F0280913901E4E91D
:101BC000F1E0882359F080917F0287FF07C08EE102
:101BD000DF011D928A95E9F70C945D0D86E0F8CF40
:101BE0001F93CF93DF93CDB7DEB7AA970FB6F894C4
:101BF000DEBF0FBECDBF8BEA92E02091F100DC0189
:101C00002D93CD01B2E0833B9B07B9F78091AC02E5
:101C1000833009F472C0B8F4813009F449C08230CD
:101C200009F4B3C08091E80083FF8BC28091AB02BE
:101C30009091AC029A3008F084C2E92FF0E0EC54A5
:101C4000FC4D0C9439238A3009F48EC08B3009F492
:101C500071C0893039F78091AB02813219F78091D8
:101C6000AF029091B002009711F00297D9F68091DF
:101C7000E800877F8093E8008091E80082FF38C009
:101C80009091F3008091F200029731F48091F1007D
:101C9000813011F0863021F48091F100809386022A
:101CA0008091E8008B778093E8000E94F902BACF18
:101CB0008091AB02813A09F0B5CF8091E800877F2F
:101CC0008093E8008091AF029091B002892B61F47B
:101CD00060E287E892E070E00E94AB038091E80048
:101CE0008B778093E8009ECF60E090E080E0F3CFB8
:101CF0008091A9028111C0CF95CF8091AB02813A2A
:101D000009F090CF8091AF029091B002892B09F039
:101D100089CF8091E800877F8093E8008091E80078
:101D200080FFFCCF809139018093F1008091E80021
:101D30008E77B9CF8091AB02813209F073CF809159
:101D4000AF029091B002892B09F06CCF8091E8002E
:101D5000877F8093E8000E94F9028091AD02809312
:101D600039010E94DB0D5ECF8091AB02813209F018
:101D700059CF8091E800877F8093E8000E94F902A4
:101D80008091AE02809385024DCF8091AB02813A63
:101D900009F048CF8091E800877F8093E800809128
:101DA000E80080FFFCCF80918502BECF803899F09B
:101DB000823809F0C6C18091AF028F70873008F079
:101DC000C0C18093E9008091EB0085FB882780F9F2
:101DD0001092E90006C08091A7029091A80291118B
:101DE00082609091E800977F9093E8008093F100E3
:101DF0001092F1008091E8008E779FC1882309F44A
:101E00008DC1823009F09DC18091AD02811190C1D8
:101E10008091AF028F702FEF280F263008F091C10C
:101E20008093E9002091EB0020FF82C1933031F4D0
:101E30008091EB0080628093EB007AC19091EB007F
:101E400090619093EB0021E030E001C0220F8A9571
:101E5000EAF72093EA001092EA008091EB00886094
:101E6000EACF81116EC11091AD021F778091E3001E
:101E70008078812B8093E3008091E800877F8093B6
:101E8000E8000E94F9028091E80080FFFCCF809179
:101E9000E30080688093E30082E0111183E0809387
:101EA000A9024FC18058823008F04BC12091AD0289
:101EB0003091AE022C3DE3E03E07A1F583E08A833A
:101EC0008AE289834FB7F894DE01139620E03EE062
:101ED00051E2E32FF0E050935700E49120FF03C05C
:101EE000E295EF703F5FEF708E2F90E0EA30C0F028
:101EF000C7968D939D932F5F243159F74FBF8091E3
:101F0000E800877F8093E8006AE270E0CE010196E6
:101F10000E94AB038091E8008B778093E80011C1A9
:101F2000C096E7CF8091AF029091B002432F552722
:101F30004330510509F44AC078F54130510509F4A0
:101F40007AC08BE590E0E4EBF3E04230510509F014
:101F5000F8C02091E800277F2093E8002091B1028B
:101F60003091B2028217930708F49C0140E02115DA
:101F7000310509F065C0411163C08091E80082FD20
:101F8000C9CF8091A902882329F2853019F2809166
:101F9000E80083FFF2CFBECF4132510509F43CC0C7
:101FA0004232510509F0CDC08330910508F0C9C017
:101FB000FC01EE0FFF1FEC57FE4F0190F081E02D6A
:101FC0008F579E4FDC018C9190E01AC0332721304F
:101FD0003105D1F02115310561F02230310509F0CC
:101FE000B0C0E1E2F4E0E4918E2F90E0E1E2F4E0B1
:101FF00007C0E7E5F4E0E4918E2F90E0E7E5F4E038
:10200000009709F49EC0A5CFE5E4F4E0E4918E2F9B
:1020100090E0E5E4F4E0F4CF8330910508F091C05E
:10202000880F991FFC01E657FE4F0190F081E02DCB
:1020300089E090E08ECF82E190E0EFE0F4E089CF9C
:102040008091A902882309F465CF853009F462CF15
:102050008091E80083FD5ECF8091E80082FD8DCF06
:102060008091E80080FF83CF9091F3008091F2008F
:102070002115310519F08830910550F041E008979D
:1020800009F040E08091E8008E778093E8006FCF00
:1020900044914093F1003196215031090196E8CFE7
:1020A000803809F04EC08091E800877F8093E80077
:1020B0008091AA028093F1009DCE811142C01091BF
:1020C000AD021230F0F58091E800877F8093E80040
:1020D0001093AA020E94F902112311F084E005C0B6
:1020E0008091E30087FDFACF81E08093A90242E06E
:1020F00061EC81E00E94180342E261EC84E00E94FE
:10210000180342E261EC82E00E94180342E260ECB4
:1021100083E00E9418038091A90213C08091AD0250
:10212000813079F481E0933009F080E08093A80257
:102130001092E9008091E800877F8093E8000E9478
:10214000F9028091E80083FF0AC08091E800877F50
:102150008093E8008091EB0080628093EB00AA9668
:102160000FB6F894DEBF0FBECDBFDF91CF911F91A8
:102170000895882341F0809590911E0289238093D1
:102180001E020C94080D0895882339F090911E02C8
:10219000982B90931E020C94080D0895882321F02B
:1021A0000E946F070C94080D0895882339F09091D0
:1021B0001F02982B90931F020C94080D08958823FA
:1021C00009F452C0823871F40E944F0981FF4CC05B
:1021D00089E30E94A1070E94080D89E30E94760707
:1021E0000C94080D833859F40E944F0980FF3CC0BD
:1021F00083E50E94A1070E94080D83E5EFCF843894
:1022000059F40E944F0982FF2FC087E40E94A10762
:102210000E94080D87E4E2CF9CEF980F913AF0F20C
:1022200090E2980F983050F4877091E001C0990FB8
:102230008A95EAF7892F0E946F07D2CF9BE5980F06
:10224000933020F490E080E00C944A0498E5980FD5
:10225000973120F490E080E00C943404803F20F02B
:102260000E9487040C9460040895CF93C82F88239C
:1022700009F4AEC08238C1F40E944F0981FDA8C0A4
:1022800089E30E94A1070E94080D2FEF81EE94E0E0
:10229000215080409040E1F700C0000089E30E9497
:1022A0007607CF910C94080D8338A1F40E944F0952
:1022B00080FD8EC083E50E94A1070E94080D2FEFCC
:1022C00081EE94E0215080409040E1F700C0000092
:1022D00083E5E5CF8438A1F40E944F0982FD78C0E0
:1022E00087E40E94A1070E94080D2FEF81EE94E081
:1022F000215080409040E1F700C0000087E4CFCF3C
:102300008CEF8C0F813A88F580913901882301F197
:1023100080917F0287FF1CC0EC2FE695E695E6953D
:10232000F0E0EE56FE4F828190E04C2F477021E0A6
:1023300030E002C0220F331F4A95E2F78223932335
:10234000892B79F08C2F0E9476070E94080D09C016
:10235000E4E9F1E08191C817A9F321E0EA39F20735
:10236000C9F78C2F0E94A1079CCF80E28C0F883088
:1023700068F4C77021E030E001C0220FCA95EAF787
:1023800080911F02822B80931F028BCFEBE5EC0F15
:10239000E33040F4F0E0E25BFE4F808190E0CF91CB
:1023A0000C944A04E8E5EC0FE73150F4F0E0EE0F4E
:1023B000FF1FEF5AFE4F80819181CF910C9434041E
:1023C000C03F30F08C2F0E944205CF910C946004E6
:1023D000CF9108951F93CF93DF93182FD0E0C0E0E3
:1023E000893311F4C0E5D0E0812F0E943511209788
:1023F00031F4812FDF91CF911F910C94DF108FE981
:102400009FE00197F1F700C000002197F0CF0F93F4
:102410001F93CF93DF93C62FD42F022FFC0182810D
:102420008823A1F06093B5020E9428049093B4021F
:102430008093B302C77081E001C0880FCA95EAF7A4
:10244000DF91CF911F910F910C94D5108091B5021F
:10245000681335C08091B3029091B4020E940D04BC
:102460008639910560F510E21D0FCD17B9F080E2B5
:102470008C0F883040F4C77081E001C0880FCA9586
:10248000EAF70E94CE10183048F481E09D2F977033
:1024900001C0880F9A95EAF70E94D510802F0E94FC
:1024A000EA11183098F4D77081E001C0880FDA95EE
:1024B000EAF7DF91CF911F910F910C94CE10C77066
:1024C00081E001C0880FCA95EAF7F3CFDF91CF9181
:1024D0001F910F910895DF92EF92FF920F931F9338
:1024E000CF93DF93E82FF0E0EC50FE4FD490282FED
:1024F00026952695269530E0F901EC51FE4F049182
:10250000877010E0082E02C0159507950A94E2F72F
:1025100001701127F901EC52FE4FE490F12C082EC6
:1025200002C0F594E7940A94E2F791E0E922FF24CF
:10253000F901EC53FE4FC491D0E002C0D595C79588
:102540008A95E2F7C170DD270115110519F081EEBA
:102550000E943511E114F10419F086EE0E94351144
:102560008D2D0E94EA11EF2819F086EE0E94DF10EF
:10257000012B19F081EE0E94DF10CD2B51F08CE27F
:10258000DF91CF911F910F91FF90EF90DF900C940E
:10259000EA11DF91CF911F910F91FF90EF90DF90A3
:1025A000089569EE7EEF90E080E00E94862360E06F
:1025B00082E090E00E94682360E083E090E00E9467
:1025C00068231092210260E084E090E00E9468237A
:1025D00060E082E290E00E94682360E085E090E0A5
:1025E0000E94682360E086E090E00E9468236FEF1D
:1025F00087E090E00E94682340E050E0BA0188E064
:1026000090E00E947A2360E08DE090E00E946823D1
:1026100040E050E0BA0188E190E00E947A2360E057
:1026200087E190E00E94682340E050E0BA018CE12D
:1026300090E00E947A2370E060E080E290E00E94E7
:10264000862340E050E0BA0188E190E00E947A23BE
:1026500080E00E94C4090E94DC0940E050E0BA0119
:102660008FE090E00E947A2340E050E0BA0183E1DD
:1026700090E00C947A238F929F92AF92BF92CF9268
:10268000DF92EF92FF920F931F93CF93DF9300D0CF
:1026900000D00F92CDB7DEB77C01FC01838194811D
:1026A000892B31F08081918189238F3F09F063C5A7
:1026B0000F900F900F900F900F90DF91CF911F917F
:1026C0000F91FF90EF90DF90CF90BF90AF909F90D1
:1026D0008F9008950E941E0A182F682F89819A8171
:1026E0000E94080869817A81812F0E94110A8C0159
:1026F000F7018281882309F432C5C80182519F45C0
:10270000409708F054C48FEF93E00E945A2302517F
:1027100077E6C72EDD24D394882369F18091FD01EB
:10272000877031F2F7018281882311F28091800253
:1027300082FDBECF82E00F900F900F900F900F9010
:10274000DF91CF911F910F91FF90EF90DF90CF908D
:10275000BF90AF909F908F900C94930DC114F4E0B4
:10276000DF06E1F2C6010E945A23811101C0015027
:102770002FEFC21AD20A0111F1CF1C821B82BB2497
:10278000B3946AE0A62E86010F5F1F4FC6010E9418
:102790005A2389831A82882309F4C0CF9FEF980FA8
:1027A000933008F58A83B98232E0C30ED11CC80188
:1027B0000E945A238B83882309F4B0CF8E010F5FC8
:1027C0001F4FF80180818823F1F2813009F043C066
:1027D00091818281913049F40E5F1F4F0E94EA116E
:1027E0000F5F1F4FEECF6801E9CF923029F40E5FE3
:1027F0001F4F0E943511F4CF933029F40E5F1F4F05
:102800000E94DF10EDCF943019F00F5F1F4FE8CF1B
:102810000E5F1F4F30E020E0B8016F5F7F4FF8017F
:1028200041818053990B8A30910550F02150310934
:10283000B8F28FE99FE00197F1F700C00000F6CFF2
:10284000A29EF001A39EF00D11249C012E0F3F1FAC
:10285000842F8B01E1CF0E946B12C2CF81E00E94D6
:10286000CC0D0E947C0D5ACF81E00E94870DF9CFDC
:1028700082E0F5CF82EE0E943511E1C383E00E9431
:10288000C41088E10E94351188E10E94DF1083E0C6
:102890000E94B910D4C38091B301811103C083E5B4
:1028A0000E94EA1182EE0E9435118FE39CE90197A4
:1028B000F1F700C0000087E50E94EA11C0C386EE70
:1028C0000E94EA1188E1F8CF8650DEC396EF980F98
:1028D000963020F0805D0E946B12D8C3895AFBCFDE
:1028E00082EE0E94DF10E8C38CE20E94EA11809120
:1028F000B401882309F4E0C389E30E94EA11DCC330
:1029000082EE0E94DF108091B3018111D5C383E56F
:10291000F4CF88E2F2CF033F3CE5130739F188F4A6
:10292000083D9CE51907F1F0093DECE51E0751F162
:10293000073DFCE51F0709F0C3C326E241EE61EE47
:102940000DC0053F2CE51207C9F0A0F027E245EEC7
:1029500066EE063F8CE5180709F0B2C3C7010E9476
:102960000712DCCE27E245EE65EEF8CF26E241EE17
:1029700060EEF4CF27E245EE64EEF0CF26E241EEC2
:1029800062EEECCF28E241E0EFCF01363DE51307E0
:1029900009F4ACC3053A8DE5180709F4A7C306315D
:1029A0002CE5120709F003C480911F028A7A91E096
:1029B00009F490E09093B5018111EFC089E20E9483
:1029C000A1070E94080DAACE80917F028062073085
:1029D0002CE5120709F492C080917F0280610830D3
:1029E0001C4508F48BC080917F02806487C00D3045
:1029F0008CE5180709F49BC098F480917F028E7FC4
:102A00000B30ECE51E0709F479C080917F028C60E1
:102A10000C301C4508F472C080917F028D7F6EC01F
:102A200080917F028F7E0F302CE5120709F466C07B
:102A300080917F02877F00311C4508F45FC0809140
:102A40007F028F7D5BC00D3F8CE5180709F477C0CE
:102A500050F50531ECE51E0709F47FC098F480912C
:102A60007F02837F03312CE5120709F447C008F485
:102A70006EC00E94DB0D90917F02892F97FB87F932
:102A800080583CC00B3F8CE5180709F442C008F0A1
:102A900052C08091800281600A3F1C4509F04FC3FB
:102AA000809380024CC30130FDE51F0709F461C02B
:102AB00090F4809180028C7F0F3F3CE5130781F3F7
:102AC00090F180918002982F909591708E7F892B44
:102AD00090FB81F9E5CF01369DE5190709F44FC058
:102AE000053AEDE51E0709F451C002301D4509F015
:102AF00026C360E03FC080917F02826080937F02A6
:102B00001EC380917F028460F9CF80917F0288602C
:102B1000F5CF809180028260C3CF0E94DB0D80914F
:102B20007F028068EBCF809180028360B9CF809173
:102B30007F028B7FE3CF809180028E7FB1CF809127
:102B400080028D7FADCF80917F028F7BD7CF0E9497
:102B5000DB0D80917F028F77D1CF80917F0282FB46
:102B6000992790F921E0922790FB82F990FB83F955
:102B7000C5CF61E08EE090E00E946823E0C29091B2
:102B80007F02892F8F7E94FF8061B8CF90917F0262
:102B9000892F8E7F90FF8160B1CF85E310CF85E3D1
:102BA00003C30E94DB0D3FEF84E39CE03150804083
:102BB0009040E1F700C000000E94C90881E017C3FF
:102BC00080E015C3C8010E94DF07D82E21C3212F42
:102BD0002F70C22E107F19F0C29490EFC922DD2011
:102BE000B9F0CC2069F080E2800F883010F08110BD
:102BF00009C080911F02C82AC0921F020E94080DBE
:102C0000802F43C080911E02C82AC0921E02F6CFB8
:102C1000802F0E94DF10CC20D1F1005E083010F030
:102C2000811004C08C2D0E946F0706C0C094809153
:102C30001E02C822C0921E020E94080D28C0312F19
:102C40003F70C32E107F103219F0C29480EFC8225B
:102C5000882059F081E0881609F472C0DD2009F45B
:102C60007CC0BB2009F472C0CBCF2091800222FF30
:102C700044C0DD20E1F1CC2039F080911F02C82A48
:102C8000C0921F020E94080D80E00E943511E92DBC
:102C9000E850FF0B349710F40E944F09AA2009F462
:102CA00007CD8091FD0180FD03CDF701128285954E
:102CB000859585950E94CC0DC7010E943B1380919C
:102CC000FD018595859585950F900F900F900F903C
:102CD0000F90DF91CF911F910F91FF90EF90DF90B8
:102CE000CF90BF90AF909F908F900C94870D80E015
:102CF0000E94DF10CC2059F295CFDD20A1F09091F9
:102D00002002892F8C29B11003C00E94D510BFCF9B
:102D1000E1E0BE12FACF22FDBACF981709F4B7CF7F
:102D200080932002B4CFB11006C00E9469078C2D99
:102D30000E94CE10ACCFF1E0BF1609F4A8CFF5CFBA
:102D4000DD2031F025E02B1508F4A1CF8C2DDDCF4F
:102D500034E03B1508F49BCFEACFBB2041F389E375
:102D6000881209C09FEFE7EEF3E09150E040F04099
:102D7000E1F700C00000802F0E94DF1088CF812F74
:102D800086958695837061F0813009F080CFC80107
:102D90009370D11002C090E080E00E94340477CF9D
:102DA000C8019370D11002C090E080E00E944A04F4
:102DB0006ECF802FDD2029F00E9442050E94600422
:102DC00066CF0E948704FACF812F837089F5D110D6
:102DD0005ECF402F429546954770440F440F802F99
:102DE0008F70042E01C0880F0A94EAF7202F2071FB
:102DF00004FF07C02FE030E001C0220F4A95EAF738
:102E00002095169516951370123069F050F4309194
:102E10002102113029F0822B83230E94D70D37CF56
:102E2000832B822BFACF282B809121028227F5CF8A
:102E30008695DD2011F0812F8170882309F427CF3A
:102E4000402F429546954770440F440F802F8F7056
:102E5000042E01C0880F0A94EAF7202F207104FF86
:102E600007C02FE030E001C0220F4A95EAF7209515
:102E7000169516951370123069F050F43091B60221
:102E8000113029F0822B83230E94780D00CF832BF1
:102E9000822BFACF282B8091B6028227F5CF1F70A4
:102EA000DD2029F0812F0E94CC0D802F2ECF802F86
:102EB0000E94CE10812F0E94870DE9CE802F22EF35
:102EC0008216A9F1281570F030EF8316D1F091EF3A
:102ED000891691F0DD2009F45AC0B11091CE812FEE
:102EE0008F7129C0E3EF8E1649F1F4EF8F12F2CF04
:102EF0008091800282FF2DC0812F8F71DD20D9F259
:102F00001AC0DD2079F024E02B1508F4C0CE1F7123
:102F100081E090E001C0880F1A95EAF79091B6021F
:102F20008927B2CF35E03B1508F4B1CEF0CF812F21
:102F30008F71D110C0CF0E94CC0DA9CE80E0DD20D2
:102F400009F4A2CF1F7181E001C0880F1A95EAF73A
:102F50009BCFDD2089F01F71812F0E94CC0D8091C5
:102F6000800282FD07C0E8E01E9FC001112483603B
:102F70008093FD01812FDFCF81E00E94930DF1E06E
:102F8000FB1508F084CE82E00E94930D80CEBB201A
:102F900059F0893309F0EFCE2FEF37EE83E021505F
:102FA00030408040E1F7E5CE812F8F7184CF003132
:102FB000FFE51F0709F452CC01312FE5120709F490
:102FC00057CCC801815E9C45059740F46FE1600FC6
:102FD000609351028CE090E00E94682317FF9BCC25
:102FE000F7018281882309F46BC00E944F098695FE
:102FF00081708093B4010E944F0981708093B30166
:1030000080915102813039F48091B401882319F004
:1030100089E30E94EA1180911F028093B20110920D
:103020001F0280915102813009F428CC882309F4D1
:1030300021CC823009F42FCC843009F440CCEFE36A
:10304000FCE93197F1F700C000005801E894B7F8A7
:103050004CE0C42ED12C5AE0852E912CC5010C2CAD
:1030600002C0969587950A94E2F78F70909151026D
:10307000923009F02BCC8A3008F026CC90E00996EB
:10308000B4010E942523875A0E94EA11F4E0CF1A66
:10309000D1082CEFC2162FEFD20601F78091510212
:1030A000813009F421CC882309F41ACC823009F448
:1030B00027CC843009F42DCC8091B20180931F027B
:1030C000F7018281882309F467C01092B5020330AA
:1030D000FDE51F0708F059CC0A3F2CE5120730F434
:1030E000C80182509C45449708F059CC0E94920A2E
:1030F0009093800280937F0201319CE5190709F4C7
:1031000022CD08F0A0CC0930FCE51F0709F405CD5D
:1031100008F06DCC05303CE5130709F4F6CC08F057
:1031200053CC03309CE5190709F4E5CC08F0E9CC51
:1031300080917F02816002301C4509F4DFCC6091F0
:103140007F021091800284E090E00E946823612F4A
:1031500082E290E00E9468230E94DB0DDFCA00310A
:103160003FE5130709F480CB01318FE5180709F01B
:1031700035CF82E07ACB85E0DE01119601900D9289
:103180008A95E1F7F701228189819A812111A2CAEA
:103190000E94DF07182FA6CA06311C4551F5809101
:1031A000B5018111FCCC89E20E9476070ACC0A3570
:1031B0002DE5120709F402CD58F401158CE5180726
:1031C00009F4EFCC0E3D1C45A1F40E94D112A6CA11
:1031D0000B35EDE51E0709F4F3CC0C351D4549F41C
:1031E0008091800282FB882780F991E089270E94E4
:1031F000AF0DF701828100811181882309F4E2CCAF
:10320000C8010E941E0AD82E682FC8010E94080813
:10321000B8018D2D0E94110A0E94E1058C01882EB3
:10322000F701D280B580B2943FE0B3228091FD01D6
:103230008770C1F0AD2CDD20B1F0812F807F80340C
:1032400021F080E2800F883068F08091800282FD5A
:1032500009C082E00E94930D8091FD018770AA242D
:10326000A3948111A12C912E92942FE09222FBE045
:10327000F91508F40CCDE92DF0E0E254FC4D0C9466
:1032800039231F93CF93DF938091CA01807FA9F4E4
:103290008091C701882389F08091FC01D091CB01F6
:1032A0006091C5017091C601A091C801B091C9019A
:1032B000C62FC72316E0D81304C0DF91CF911F910A
:1032C000089590E0109711F0CF3F19F401968770A0
:1032D000F2CF189F9001199F300D1124F901E4538A
:1032E000FE4F41814713F2CF40814613EFCF428119
:1032F0004111ECCF438154814A1B5B0B4639510588
:1033000028F78091CA018F7080618093CA01F9010A
:10331000EF52FE4F80818F708061808385EC91E059
:103320000E943B13DF91CF911F910C94D507AF9270
:10333000BF92CF92DF92EF92FF920F931F93CF93A2
:10334000DF93CDB7DEB761970FB6F894DEBF0FBE3F
:10335000CDBF8C0185E0F801DE011D9601900D9234
:103360008A95E1F7F801E28085ECA82E81E0B82E7D
:103370006091C8017091C9016115710509F432C1EC
:103380009091C5014091C601892F84238F3F09F494
:1033900029C120813181C380D480F090C701F6011A
:1033A000E61BF70BFF2009F4E8C08091CA01582FF3
:1033B000507FE639F10508F0ABC0511177C0FE2C03
:1033C000431321C092131FC0E1101DC08F70806194
:1033D0008093CA01C5010E943B138091CA01F80184
:1033E00085838F2D61960FB6F894DEBF0FBECDBFDB
:1033F000DF91CF911F910F91FF90EF90DF90CF90D1
:10340000BF90AF900895CD2829F0822F83238F3F5E
:1034100009F003C180E0F82FF170DF2E80FF3CC07F
:103420008091FC014091CB0156E0841315C02D879B
:103430003E878D859E850E944D0A292F22952F70EB
:103440002230F0F0243018F59F70F1F0F8019581EA
:10345000907FD1F4D12C1EC090E0589FF001599F6D
:10346000F00D1124E453FE4F6181361306C06081D4
:10347000261303C06281E6120FC001968770D5CF74
:103480009F7011F0882331F3805E883018F3C801F3
:103490000E943B13FD2CA5CFEE2009F4A2CF809112
:1034A000CA0181608093CA01F12C9BCF431306C0EF
:1034B000921304C0F801EE2009F479C0C8010E94FB
:1034C000590A882309F1EE20F9F08091CA0180326F
:1034D00070F02091C5013091C60138872F8319867D
:1034E000DB86CA868C87CE0107960E943B1386E056
:1034F000F801A5ECB1E001900D928A95E1F70E94E8
:103500004119FF24F3946DCFC8010E943B13F9CFFA
:1035100051110AC085EC91E00E943B1386E0F50151
:1035200011928A95E9F7C0CF43130FC092130DC0D3
:10353000E1100BC0F8018583C8010E943B1386E0AF
:10354000F50111928A95E9F74CCFC8010E94590AFA
:103550008823D1F2EE20C1F28091CA01803238F284
:103560002091C5013091C6013A8329831B82DD82F7
:10357000CC828E83CE010196B8CFE639F105F8F6FC
:10358000FE2CEE2009F243131FC092131DC0809140
:10359000CA0180FD10C0982F907F69F0F8018583E3
:1035A000903F31F0982F907F905F8F70892B8583AB
:1035B000C8010E943B1386E0F801A5ECB1E0019040
:1035C0000D928A95E1F70DCFC8010E94590A811129
:1035D0008ECF8091CA0181608093CA01C8010E9488
:1035E0003B13FFCEEE2009F48FCFC8010E94590A89
:1035F000F82E882309F488CF86E0F801A5ECB1E025
:1036000001900D928A95E1F78091C5019091C601D4
:103610000E944D0A0E944119E4CE81E08E25FBCE26
:103620001F93CF93DF93CDB7DEB767970FB6F894AC
:10363000DEBF0FBECDBF4B8B5C8B6D8B7E8B8F8BBC
:10364000611110921E021A8A198A85E0FE01739692
:10365000DE011D9601900D928A95E1F786E0FE014C
:103660003D96DE01179601900D928A95E1F7CE0105
:1036700007960E949719882389F016E08091FC0133
:103680009091CB01891349C067960FB6F894DEBFBD
:103690000FBECDBFDF91CF911F91089586E0FE014F
:1036A0003796DE01119601900D928A95E1F78A8591
:1036B0009B85892B11F38F81988589238F3FE9F2B0
:1036C0002091CB0130E0C901019687709927409184
:1036D000FC014817190671F40E94DB0D1092CB0112
:1036E0001092FC0186E0E5ECF1E0DF011D928A9585
:1036F000E9F7C3CF96E0929FD001939FB00D1124BC
:10370000A453BE4FFE01319601900D929A95E1F7B8
:103710008093CB010E94D507B0CF819FC0011124B7
:1037200084539E4F0E949719882309F4ADCF80914E
:10373000FC0190E00196877099278093FC019ECF51
:103740001F920F920FB60F9211242F933F934F9316
:103750005F936F937F938F939F93AF93BF93CF9319
:10376000DF93EF93FF93D091E900DF708091EC003D
:10377000C82FC17080FDC0E81092E9008091F00070
:10378000877F8093F00078940E94F00D1092E900FA
:103790008091F00088608093F000CD2BCF70C093B3
:1037A000E900FF91EF91DF91CF91BF91AF919F9190
:1037B0008F917F916F915F914F913F912F910F90DA
:1037C0000FBE0F901F9018951F920F920FB60F9279
:1037D00011242F933F934F935F936F937F938F9316
:1037E0009F93AF93BF93EF93FF938091E10082FF8C
:1037F00009C08091E20082FF05C08091E1008B7FCB
:103800008093E1008091DA0080FF24C08091D8008D
:1038100080FF20C08091DA008E7F8093DA00809153
:10382000D90080FF9DC080E189BD82E189BD09B4D6
:1038300000FEFDCF81E08093A90280918402811176
:1038400009C00E947F020E944A038091E2008460C6
:103850008093E2008091E10080FF17C08091E20038
:1038600080FF13C08091E2008E7F8093E200809100
:10387000E20080618093E2008091D80080628093B2
:10388000D80019BC85E08093A9028091E10084FFF3
:103890002BC08091E20084FF27C080E189BD82E1D6
:1038A00089BD89B5982F917080FFFBCF8091D8009A
:1038B0008F7D8093D8008091E1008F7E8093E1001E
:1038C0008091E2008F7E8093E2008091E20081602F
:1038D0008093E2008091AA02882309F447C084E023
:1038E0008093A9028091A9028091E10083FF27C003
:1038F0008091E20083FF23C08091E100877F809365
:10390000E10082E08093A9021092AA028091E10076
:103910008E7F8093E1008091E2008E7F8093E200B1
:103920008091E20080618093E20042E060E080E00C
:103930000E9418038091F00088608093F000FF914E
:10394000EF91BF91AF919F918F917F916F915F9117
:103950004F913F912F910F900FBE0F901F90189590
:1039600019BC1092A9021092840274CF8091E300D6
:1039700087FD93E09093A902B5CF78941F921FB66C
:103980001F9211248F939F93AF93BF9380917B02DB
:1039900090917C02A0917D02B0917E020196A11DC2
:1039A000B11D80937B0290937C02A0937D02B09323
:1039B0007E02BF91AF919F918F911F901FBE1F906C
:1039C00018951F921FB61F9211248F939F93AF9348
:1039D000BF9380917A02811113C080917B029091F4
:1039E0007C02A0917D02B0917E024196A11DB11D85
:1039F00080937B0290937C02A0937D02B0937E0221
:103A0000BF91AF919F918F911F901FBE1F901895EE
:103A1000CDB7DEB7AA970FB6F894DEBF0FBECDBF05
:103A200084B7877F84BF0FB6F894A8958091600013
:103A3000886180936000109260000FBE80E890E083
:103A40000FB6F89480936100909361000FBE85B724
:103A5000806885BF85B7806885BF8CE995E09093C5
:103A60009101809390010E947F020E944A038091FD
:103A7000E20084608093E20078948091A902882318
:103A8000A1F01091E9001F709091EC00892F8170D6
:103A900090FD80E8182B1092E9008091E80083FDEA
:103AA0000E94F00D1F701093E90082E084BD93E046
:103AB00095BD9AEF97BD80936E00109243021092CD
:103AC000440210924502109246020E94790A811126
:103AD00002C00E94DC098EE090E00E945A2391E02F
:103AE000811101C090E090932C010E942C0981115A
:103AF0000E94C22180912C01811126C084E1EAE359
:103B0000F1E0DE01119601900D928A95E1F7FE0138
:103B10003196A8E1B1E0CE01459620812C93218118
:103B200011962C931197228112962C931297238130
:103B300013962C931397248114962C9314973596EF
:103B40001596E817F90749F780912C0194E0811147
:103B500090E09093500284E0891B80934F0228E10B
:103B600031E061E070E0D90150E040E08D918F3F9D
:103B700091F0E82FE295EF70F0E0F1A08F708B01EB
:103B800001C0000F8A95EAF7902F90959F2191A38D
:103B900082A1802B82A34F5F5F4F4530510531F7E3
:103BA0002B5F3F4F41E02C323407E9F688E0EFE528
:103BB000F2E0DF01282F1D922A95E9F7E7E4F2E011
:103BC000DF011D928A95E9F790E080E00E94622370
:103BD000893E9E4F21F40E94790A811102C00E9401
:103BE000D11282E090E00E945A23809355020E94F5
:103BF000920A9093800280937F020E94B90BEFE3B8
:103C0000FCE93197F1F700C000000E94B90B8EE08B
:103C100090E00E945A2324E0811120E0E22FF0E09E
:103C2000E15AFD4F808190E002C0959587952A95D5
:103C3000E2F780FF08C06FEF7FEF90E080E00E9426
:103C400086230E94C90883E090E00E945A230E94C4
:103C5000D70D8CE090E00E945A2390E0B0E0A0E005
:103C60008093510290935202A0935302B093540256
:103C70000E942C09811102C00E94C5218DE291E0B1
:103C8000909377028093760248E1E42EF12C50E481
:103C9000652E60E1762E72E1B72EE0E1AE2E8091C6
:103CA000A902853049F48091A902853009F43AC10E
:103CB0000E94DB0D0E944F090E94B90B81110E94E6
:103CC0001C04EFE5F2E0A6E5B2E010E000E0802E93
:103CD000C1908D918C1509F460C18C25912CDD2447
:103CE000D394982F9D2109F453C10E942C09882355
:103CF00099F099A28AA2CD2081E009F480E08BA3FB
:103D00000E9428048160782F9DA38CA349A15AA109
:103D10006BA18DA10E94101BF801EA5AFD4F808112
:103D2000D826D0820E942C0986E0EEE6F2E0DE0181
:103D3000119601900D928A95E1F7D0907002C09093
:103D4000710210917202009173021092700210922F
:103D5000710210927202109273028D2D8C2909F457
:103D600048C080916C0290916D020E940D049C01EC
:103D700090916802992309F4A0C225313105C8F158
:103D80009F3F19F09F5F90936802DD2059F00E94D9
:103D900022059FEF1D140CF491E0899F802D1124C2
:103DA00080937002CC2059F00E9422059FEF1C14D2
:103DB0000CF491E0899F802D112480937102309141
:103DC00070023323B1F020917102222391F045EB70
:103DD0003403C0011124992309F4F6C090937002B2
:103DE00045EB240390011124332309F4F1C03093EF
:103DF0007102812F802B09F448C080916A02909152
:103E00006B020E940D049C0190916702992309F4B2
:103E10004FC221353105C8F19F3F19F09F5F909344
:103E20006702112359F00E9400059FEF11160CF450
:103E300091E0899F802D112480937202002359F014
:103E40000E9400059FEF10160CF491E0899F802DD1
:103E5000112480937302309172023323B1F02091C8
:103E60007302222391F045EB3403C00111249923FE
:103E700009F4B2C09093720245EB2403900111241F
:103E8000332309F4ADC03093730280917002909196
:103E90007102892B90917202892B90917302892B68
:103EA00011F00E94600486E0FE013196AEE6B2E0B9
:103EB00001900D928A95E1F70E944F0990915E0260
:103EC000891380935E028091A902843009F0E7CEC5
:103ED00083E08093E9008091E80082FFE0CE80914A
:103EE000E80090E085FF0CC00E949E0230E2C32EE5
:103EF000D12C8E010F5F1F4F882309F47FC091E002
:103F00008091E8008B778093E800992309F4C7CE6D
:103F1000E981E150E33108F0E2C0F0E0E653FC4D06
:103F20000C9439238091A902843009F110927A020D
:103F30000FB6F894A895E09260000FBE6092600002
:103F400083B7817F846083BF83B7816083BF7894A8
:103F5000889583B78E7F83BF0FB6F894A89580911C
:103F60006000886180936000109260000FBE8091B5
:103F7000A802882309F497CE0E94B90BEFE5F2E07E
:103F80008191811176C122E0E736F207C9F78BCE25
:103F90009394DD0C45E09412A4CE0F5F1F4F0830C0
:103FA000110509F094CE8FEF8EA38FA318A60E945F
:103FB00028048160782F9AA789A74EA15FA168A5E0
:103FC0008AA50E94101BAECE81E08093700208CFBC
:103FD00081E0809371020DCF81E0809372024CCF1B
:103FE00081E08093730251CF8091F100D8018D93CD
:103FF0008D01B1E0CB1AD10809F481CF8091E8009E
:1040000085FDF2CF8091E8008B778093E8000E94D5
:104010009E02882399F373CF1A8289E08B8311C0A3
:104020008A81823009F43BC1833091F1813009F0FB
:1040300056C00E941C040E943F236B837C838D83A7
:104040009E838091A902843009F029CE1091E90065
:104050001F709091EC00892F817090FD80E8182BE3
:1040600082E08093E9008091E80080FF0DC050E07D
:1040700040E060E270E0CE0101960E94CF028091A4
:10408000E8008E778093E8001F701093E90007CE58
:1040900080915F028B83809160028C8380916102AA
:1040A0008D83809162028E83809163028F838091E1
:1040B00064028887809165028987809166028A8779
:1040C000C0CF8A81823059F46B817C818D819E8141
:1040D0000E943F2386E290E00E946823B2CF8FEFD8
:1040E0008983AFCF4C816B818A810E94EB0998272D
:1040F000892798279E838D83A4CF0D811E81102749
:10410000012710278A81CB80EAE0CE9E600111242E
:10411000F0E58F9FC00CD11C11248C8190E0880F9A
:10412000991FC80ED91E612FC60187960E94682369
:10413000602FC6018896D0CF0E946F0982CFAA82D5
:1041400080CF82E08A8389E969CF0A811B811027A9
:1041500001271027CE0101966C018C80DC01A80D8F
:10416000B11D4D01C80189599E4F8C149D0409F45D
:1041700068CF0939B2E01B0750F40E945A23F601B8
:1041800084830F5F1F4FBFEFCB1ADB0AEBCFD60143
:1041900014961C92F6CF0A811B8110270127102745
:1041A000FE0131964F01CC80C00ED12ED11CC8012A
:1041B00089599E4FC016D10609F443CF0939F2E060
:1041C0001F0728F4D40114966C910E946823BFEF56
:1041D0008B1A9B0A0F5F1F4FEACF0E945F0931CFF6
:1041E00084E08A832ECF0A811B81102701271027A4
:1041F000FE0131966F018C80CF01880D911D4C011D
:10420000C8018796C814D90409F41BCF0034A1E073
:104210001A0750F40E945A23F60184830F5F1F4F40
:10422000BFEFCB1ADB0AECCFD60114961C92F6CF67
:104230000A811B81102701271027FE0131964F01AB
:10424000CC80C00ED12ED11CC8018796C016D106D5
:1042500009F4F7CE0034F1E01F0728F4D4011496D6
:104260006C910E946823BFEF8B1A9B0A0F5F1F4F50
:10427000EBCF79BCB9BC09B400FEFDCF8091D8006A
:104280008F7D8093D8008091E00082608093E00071
:104290008091E00081FDFCCF0E94DB0D04CD86E221
:1042A00090E00E945A231B821C821D828E83C9CEFD
:1042B0002B30310508F0B2CDE8CD2B30310508F0B8
:1042C00061CD97CD8EE1499B02C08150E1F7499BBA
:1042D000FECF0895599880E28A95F1F7599A08958A
:1042E000FC013BE03A95F1F798E020E080E031E016
:1042F00040E14A95F1F7880F499B02C0816023276E
:1043000042E04A95F1F7000040E14A95F1F79150FB
:1043100079F790E19A95F1F799B132E03A95F1F792
:10432000000040E14A95F1F796959170922720811F
:10433000920F90830895EF92FF920F931F93CF9364
:10434000DF930F92CDB7DEB719828C017C01E60EA8
:10435000F11C0E151F0561F481E09981911180E037
:104360000F90DF91CF911F910F91FF90EF900895E3
:104370000E946221CE0101960E947021F801819372
:104380008F01E7CF519A599A08955198599AE99A0D
:10439000E9E6F0E08081837F808308956150770BA8
:1043A00091E001C0990F6A95EAF720E031E09111A0
:1043B00008C0222391F0599A80E28A95F1F7599822
:1043C0000895492F482339F0599A232740E24A9506
:1043D000F1F79695ECCF5998F9CF5998EDCFFF9218
:1043E0000F931F93CF93DF93EC018C01060F111DE8
:1043F000C017D10731F4DF91CF911F910F91FF903A
:104400000895F9900E946A2168E08F2D0E94CE21C4
:10441000EFCF1F920F920FB60F9211240F931F939D
:104420002F933F934F935F936F937F938F939F93BC
:10443000AF93BF93EF93FF93CF93DF930F92CDB7DB
:10444000DEB719820E946221CE0101960E9470217E
:10445000082F069506950695282F22952570902FF2
:104460009570290F922F937026952695920F982775
:1044700097708981982B09F05CC0043008F059C00E
:1044800080E18A95F1F7599A519A82E08A95F1F77D
:1044900000C0599888E0089F80011124D801A050DD
:1044A000BF4F1696ED91FC9117973097A9F0609148
:1044B0007F017091800114962D913C911597260FE4
:1044C000371F11968D919C911297680F791F139643
:1044D0004C9113978C910995F801E050FF4F63813F
:1044E000662351F020917F01309180018481958174
:1044F000820F931F0E94EF210E946A2180E18A951A
:10450000F1F759985198599A80E18A95F1F7F80195
:10451000E050FF4F6081662351F020917F01309180
:10452000800181819281820F931F0E949B210E94B2
:1045300062210F90DF91CF91FF91EF91BF91AF91E9
:104540009F918F917F916F915F914F913F912F91AB
:104550001F910F910F900FBE0F901F9018950F9302
:104560001F93CF93DF93EC0104970CF04CC0F894A9
:10457000519A599885E08A95F1F700009C2F9695FD
:1045800095708C2F8570980F892F837096959695CE
:1045900023E0CC0FDD1F2A95E1F7980F8E01092B40
:1045A0000E946A2100C068E0802F0E94CE2180E135
:1045B0008A95F1F75198599A499B1EC087E090E07F
:1045C00049991CC0FE01E050FF4F63816623F9F05A
:1045D00020917F013091800184819581820F931F0A
:1045E0000E949B21811113C0519A599A7894DF91AE
:1045F000CF911F910F91089500C0DECF019729F44C
:10460000519A599A789480E0F2CF00C0D9CF0E9495
:10461000622180E28A95F1F75998519A80E18A9552
:10462000F1F7C050DF4F6881662351F020917F0180
:104630003091800189819A81820F931F0E94EF211E
:104640000E946A21789481E0D2CF97FB072E16F45E
:10465000009407D077FD09D00E94462307FC05D0BF
:104660003EF4909581959F4F0895709561957F4F89
:104670000895EE0FFF1F0590F491E02D099469272E
:10468000962769277827872778270895AA1BBB1BB9
:1046900051E107C0AA1FBB1FA617B70710F0A61B42
:1046A000B70B881F991F5A95A9F780959095BC0163
:1046B000CD010895F999FECF92BD81BDF89A992751
:1046C00080B50895A8E1B0E042E050E00C948E235C
:1046D000262FF999FECF92BD81BDF89A019700B4BB
:1046E000021639F01FBA20BD0FB6F894FA9AF99A5B
:1046F0000FBE08950396272F0E9469230E94682306
:10470000252F0E946923242F0C9469230196272FBB
:104710000E9469230C946823DC01CB01FC01F99908
:10472000FECF06C0F2BDE1BDF89A319600B40D92FD
:1047300041505040B8F70895FB01DC0104C08D9151
:104740000190801921F441505040C8F7881B990B03
:104750000895FB01DC0102C001900D9241505040D0
:10476000D8F70895F894FFCFD60EFE0EA110FE0ED6
:10477000A110310F520FA11050105D10E715E71571
:104780001F161F16BF16D91647164716E4164F17E1
:104790005E175E170C201020612072207D209C2067
:1047A0006F206F206F206F206F209F20A120A520F9
:0A47B000CB20ED20F020F3201821AB
:1047BA0000000001000000000000000401000000E9
:1047CA0004050000000000006692F732F49790F6A4
:1047DA0033F5C6949331363435FFFFFF010A048955
:1047EA0008680864086008090401F432F79266F55B
:1047FA0033F6909736319394C63534FFFFFF8182A2
:10480A0083E200E900EA00B500B600B700CD0083F4
:10481A0001CC008A0192019401210223022402257B
:10482A0002260227022A02B300B4006F0070003584
:10483A00024022B684016201AC00C603DF03FF0313
:00000001FF
