:100000000C94B4020C94FB020C94FB020C94DC2CB8
:100010000C94FB020C94FB020C94FB020C94FB026C
:100020000C94FB020C94FB020C9427250C94E32403
:100030000C9424260C94FB020C94FB020C94FB02FF
:100040000C94FB020C94FB020C94FB020C94FB023C
:100050000C94FB020C9400260C94FB020C94FB0203
:100060000C94FB020C94FB020C94FB020C94FB021C
:100070000C94FB020C94FB020C94FB020C94FB020C
:100080000C94FB020C94FB020C94FB020C94FB02FC
:100090000C94FB020C94FB020C94FB020C94FB02EC
:1000A0000C94FB020C94FB020C94FB020501090268
:1000B000A10185020901A100050919012905150001
:1000C00025019505750181029501750381010501E1
:1000D000093009311581257F950275088106093897
:1000E0001581257F950175088106050C0A380215D2
:1000F00081257F950175088106C0C005010980A191
:1001000001850319012AB700150126B7009501756D
:10011000108100C0050C0901A101850419012AA064
:1001200002150126A002950175108100C00660FF2E
:100130000961A1010962150026FF0095207508815B
:10014000020963150026FF00952075089102C0057D
:10015000010906A101050719E029E7150025019508
:1001600008750181029501750881010507190029AB
:10017000FF150026FF009506750881000508190186
:100180002905950575019102950175039101C0003E
:10019000000000000000000000000000000000005F
:1001A000000000000000000000000000000000004F
:1001B0000000007E0F00D4FFFFFFC70000007800A2
:1001C000000000000000002A2B28000000000000B2
:1001D0000000000000000000000029000000002CCA
:1001E0001E3420212224342627252E362D37382769
:1001F0001E1F202122232425263333362E37381F75
:100200000405060708090A0B0C0D0E0F1011121336
:100210001415161718191A1B1C1D2F3130232D35D4
:100220000405060708090A0B0C0D0E0F1011121316
:100230001415161718191A1B1C1D2F3130354CFDBB
:10024000377A585A000004E6D6B446020021011657
:10025000000000742FE5A3E002D300F35D003D88A9
:1002600089C65436C3174FE4DE89CE3559316D8DBA
:10027000D1EB24603C35CB3260F7F2DFD7394382D3
:100280009177D2FA343CD6949ED06B8EE2DE6BE04E
:10029000C8659AAE5A900BB47174B1D8914B16568A
:1002A00093BA4E2A46AE7805A21EDE76D566C0F910
:1002B000C566752D4ADF16EA18DD28AED753534EB2
:1002C00082C851DD5384D9220764B1D81DD7F663A3
:1002D0009CD7607FC6C505DD6E18C9108526D8631A
:1002E00006F7D334781370E8EE8AFB7958BE1D8088
:1002F0008DF41F45C183290A80A1D93760677637FD
:10030000911B25284068CD59C124AB43ADF29B4BCE
:1003100091BC7AE2333B8267F73287C9280E5621B7
:1003200044FCAA594F5B583D67670E422473FBB5E6
:10033000FC9D469126B3F3B3D4B24D47250B83728F
:10034000F6E26920B39B6612D897A0D3D844B05D7B
:10035000D00000C587C2A3FFB6BE1500018F02D42E
:1003600005000095CD8EF9B1C467FB0200000000C6
:1003700004595A14001A000800150017000400164A
:1003800000070009000A001D001B000600190005F7
:10039000000151E1000000000000001C0018000CEA
:1003A00000120013000B000D000E000F00340011AE
:1003B0000010003600370038002C00025100000009
:1003C000000000290026022702240225022B00013A
:1003D00000230222022102E200010020021F021E6D
:1003E000020100E0000000000000005F006000610A
:1003F000002D002A005C005D005E005700280059B7
:10040000005A005B002E0033006200035100000020
:1004100000000001005200010001000100500051E5
:10042000004F000100010001000100010001000176
:10043000000351E100000000000000010001002F56
:100440000030004C0001004B000100010031004A67
:10045000004E004D0001003500E0000100000000EA
:10046000000000010001000100005C01000100012A
:100470000001000100010001000100010001000174
:1004800000010001000000000000004200430044A1
:1004900000450001003E003F004000410001003ADD
:1004A000003B003C003D0001000100010000000095
:1004B00000000009025B00030100A0FA090400002B
:1004C000010301010009211101000122400007057B
:1004D000810308000A090401000203000000092149
:1004E00011010001222200070582032000010705F7
:1004F0000303200001090402000103000000092198
:10050000110100012281000705840320000A120165
:10051000000200000008ABC23939010001020301EA
:100520001C037600690061006C003A00660036002A
:1005300034006300320062003300630000001A03DD
:1005400046006500720072006900730020007300AD
:10055000770065006500700000000803440050004B
:10056000420000000403090411241FBECFEFDAE0AB
:10057000DEBFCDBF04B603FE27C08091DE0490919C
:10058000DF04A091E004B091E1048730904BA740D4
:10059000B04BD1F41092DE041092DF041092E0040C
:1005A0001092E10414BE84B7877F84BF0FB6F8941D
:1005B000A89580916000886180936000109260002F
:1005C0000FBEE0E0F8E3099511E0A0E0B1E0EEE74E
:1005D000FEE502C005900D92A43AB107D9F724E0D8
:1005E000A4EAB1E001C01D92AE3DB207E1F70E945E
:1005F0004B260C940B2F0C940000FC01AC014C5FBB
:100600005F4F8FEF91E32191822728E030E087FF51
:1006100009C0880F892721503109C9F7E417F50768
:1006200091F70895880FF7CFE8EDF0E080818E7F95
:1006300080831092E2001092DA001092E100A0EEA6
:10064000B0E08C9181608C9380818F77808319BC1E
:10065000A7EDB0E08C918E7F8C9380818F7E80831C
:100660001092C30408952091E4003091E50095E6CE
:10067000A9012091EC00822F817020FF06C080919B
:10068000E80080FF06C080E008952091E80022FD88
:100690001AC08091D004882389F0853089F0809138
:1006A000EB0085FD0FC02091E4003091E50042177A
:1006B0005307F9F29150E1F684E0089582E008953D
:1006C00083E0089581E00895EF92FF920F931F93C6
:1006D000CF937C018B010E943303C82F811117C077
:1006E0008091E80085FD0BC08091E8008E778093B3
:1006F000E8000E943303882399F3C82F08C0F7014C
:1007000081917F018093F1000150110949F78C2FED
:10071000CF911F910F91FF90EF9008958091D20497
:1007200087FF13C08091E80082FF06C08091E80037
:100730008B778093E80004C08091D0048111F2CFC0
:1007400008958091D0048823D9F38091E80080FF38
:10075000F8CF8091E8008E77ECCF982F9093E90046
:10076000242F762F50E0891731F07091EC00209102
:10077000ED005091F00021FD07C09F5F973071F7A9
:100780008093E90081E008953091EB003E7F309343
:10079000EB003091ED003D7F3093ED003091EB00A8
:1007A00031603093EB007093EC002093ED00509398
:1007B000F0002091EE0027FDE0CF80E00895CF9279
:1007C000DF92EF92FF920F931F93CF93DF93C8EDC9
:1007D000D0E088818F7E8883E7EDF0E080818160C2
:1007E000808384E082BF81E08093C30488818E7F10
:1007F000888302EE10E0F80110821092DA0081EE98
:10080000C82ED12CF601108288818F778883888149
:100810008068888388818F7D888319BC1092D0047A
:100820001092D1041092CF041092CE0490EEE92ED3
:10083000F12CF70180818B7F8083888181608883A0
:1008400042E060E080E00E94AD03F60180818E7F8F
:100850008083F801808181608083808188608083CB
:10086000F70180818E7F8083888180618883DF911A
:10087000CF911F910F91FF90EF90DF90CF9008954F
:10088000FC018091D8049091D90486179707A0F0B5
:100890006115710529F49091E8009E779093E80026
:1008A00090E06115710551F4911108C08091E80044
:1008B00082FF34C080E00895BC01F2CF8091D00463
:1008C0008823C1F18530C1F18091E80083FD30C0FB
:1008D0008091E80082FDEACF8091E80080FFE1CFBF
:1008E0008091F3002091F200382F6115710519F005
:1008F0002830310558F091E02830310509F090E0BA
:100900002091E8002E772093E800CBCF819180934F
:10091000F100615071092F5F3F4FE7CF8091D00404
:10092000882341F0853041F08091E80083FFBECFFD
:1009300081E0089582E0089583E00895089580910C
:10094000C504089587E797E790930108809300080E
:1009500088E19AE00FB6F894A895809360000FBEE6
:1009600090936000FFCF9C014FB7F8948091BC0436
:100970009091BD04A091BE04B091BF044FBF821BF3
:10098000930B08952FB7F8946091BC047091BD0447
:100990008091BE049091BF042FBF08952FB7F894A3
:1009A0008091BC049091BD04A091BE04B091BF049D
:1009B0002FBF08952091B9043091BA042817390740
:1009C00071F09093BA048093B904E091B704F09168
:1009D000B804309721F00084F185E02D0994089542
:1009E0002091B5043091B6042817390771F090931F
:1009F000B6048093B504E091B704F091B804309741
:100A000021F00680F781E02D09940895DC016091C2
:100A1000FD038091FE03962F891301C00895292FAD
:100A200030E0F901EE0FFF1FEB50FC4F4081518188
:100A30004A175B07A1F487E08A9FA0018B9F500DA6
:100A400011244B575C4F81E0FA0184839613E6CF63
:100A50002F5F3F4F237033272093FD0308952F5FAF
:100A60003F4F922F9370D8CF109222031092210300
:100A7000E5E8F3E08581811102C014821682379681
:100A800083E0E53FF807B1F708950E94CE049C018A
:100A90009091670280916802982B21F03093640254
:100AA000209363029091690280916A02982B21F051
:100AB0003093620220936102E091B704F091B80490
:100AC000309749F082E0809365020480F581E02D43
:100AD00085E692E00994089590916702803F59F469
:100AE0008091680287FF0DC01092680291110BC0BF
:100AF00010925F0208C0813F81F48091680218164D
:100B00009CF3992381F08091690290916A02892B6C
:100B100009F064C010925E020895823F49F497FF85
:100B2000F0CF10926702809168028111ECCFE0CF84
:100B3000833F19F41916ACF3E4CF20916902893F81
:100B400029F41216F4F610926902DBCF8A3F19F4E9
:100B500027FFD7CFF8CF20916A028B3F29F427FFD8
:100B6000D0CF10926A02CDCF8C3F19F41216CCF37D
:100B7000C8CF843F31F4809166028E7F80936602F5
:100B8000C0CF853F21F4809166028D7FF7CF863FED
:100B900021F4809166028B7FF1CF873F21F4809111
:100BA0006602877FEBCF883F21F4809166028F7EBB
:100BB000E5CF8D3F31F4809160028E7F809360029B
:100BC000A0CF8E3F21F4809160028D7FF7CF8F3FC1
:100BD00009F097CF809160028B7FF0CF08958091CC
:100BE000600280FD16C081FD16C082FD16C0809196
:100BF0005E028823A1F0883280F428E0829FC00141
:100C0000112468E270E00E94562E862F672B39F07F
:100C1000089582E0089584E0089588E0089581E0D1
:100C200008958091600280FD14C081FD14C082FD92
:100C300016C080915F02882381F0843180F422E322
:100C4000829FC001112464E170E00E94562E862F1D
:100C500008958CE0089589E1089585E0089582E380
:100C60000895803F31F40E941106819580936802B7
:100C70000895813F19F40E941106F8CF823F31F4A4
:100C80000E9411068195809367020895833F19F4AD
:100C90000E941106F8CF893F29F40E94EF05809346
:100CA000690208958A3F21F40E94EF058195F7CFEC
:100CB0008B3F31F40E94EF05819580936A0208957D
:100CC0008C3F19F40E94EF05F8CF843F31F48091F6
:100CD00066028160809366020895853F21F48091C9
:100CE00066028260F7CF863F21F4809166028460BD
:100CF000F1CF873F21F4809166028860EBCF883F77
:100D000021F4809166028061E5CF8D3F31F48091BE
:100D1000600281608093600208958E3F21F480918B
:100D200060028260F7CF8F3FB9F7809160028460E4
:100D3000F1CF80E0089590913A0292FF06C0282FEB
:100D400028712830F9F4877F846093FF06C0282F2C
:100D500028712831F1F4877E846120913B0220FFC5
:100D600006C0382F38713830D9F4877F816021FF71
:100D700006C0282F28712831D1F4877E816194FD27
:100D8000877E0895282F24712430F9F68B7F8860A0
:100D9000DCCF282F2471243101F78B7E8861DDCFD1
:100DA000382F3171313019F78E7F8860E0CF282FCE
:100DB0002171213121F78E7E8861E1CFCF93DF93BE
:100DC000EC0182389105A9F1D8F58133910509F438
:100DD00096C048F58932910509F48AC08A9709F4CA
:100DE00095C0C11521E5D20708F0BCC0C11530E59A
:100DF000D30708F014C1C83ED10508F09CC0C03E1E
:100E0000D10560F5C83AD10508F087C0C53AD105CB
:100E100008F0FDC0C130D10509F12097F9F0C430C8
:100E2000D105E0F440C08533910509F45AC0C99753
:100E3000C1F680913A02837089F0C0EED0E00EC016
:100E4000833E910599F170F4803E910501F1823E57
:100E5000910539F680913A0282FD21C0CE01DF91E1
:100E6000CF910895863E910561F1873E910571F11C
:100E7000843E910509F0B5CF80913B0281FFEECF12
:100E800080913A02C7EED0E084FD0DC0E7CF80919B
:100E90003A0280FD12C190913B0290FFDFCFC3EE7A
:100EA000D0E084FFDBCFD0E0C0E0D8CF80913A0221
:100EB00082FD06C190913B0290FDBFCF84FFCECF53
:100EC000F2CF80913A0283FDDDCFC8CF80913A0204
:100ED00083FDF9C090913B0291FFF0CFC4EED0E0CA
:100EE000BDCF80913A0285FFB9CFC9E2D0E0B6CF3D
:100EF00080913A0285FFB2CFC5E3D0E0AFCF8091B9
:100F00003A0286FFABCFCAE2D0E0A8CF80913A0286
:100F100086FFA4CFC1E3D0E0A1CFCF3BD10518F627
:100F2000C85AD0E0CC0FDD1FCC59DE4F0990D881D4
:100F3000C02DD46493CFC11540E2D40758F4C11535
:100F400081E0D80708F08ACFC03FD10508F4ABCFC5
:100F5000D06584CFC11590E4D90708F4A4CFDF7021
:100F6000D06A7CCFC11525E5D20700F5C11534E55F
:100F7000D30708F08AC0C11543E5D40708F071C053
:100F8000C11582E5D80708F467C0CE0183709927A0
:100F900021E030E002C0220F331F8A95E2F7C695A8
:100FA000C69580E2C89FE001112452C0C11599E5A1
:100FB000D907A8F4C11528E5D20708F06BC0C11500
:100FC00036E5D30708F06FCF8C2F0E949B06C82F01
:100FD000D0E0DC2FCC27CC27DF71D0623FCFC1150A
:100FE0004AE5D40708F45BC0CE01905681159042C3
:100FF00008F059CF8D2F8F710E949B0690E0982F9B
:10100000882788279F719C012C2BE901E6CFC55AC0
:10101000D0E0CF59DE4FC881D0E0D0641FCFCE01E1
:10102000E4E096958795EA95E1F783702C2F269555
:101030002695237040E2249F90011124382B8C2F99
:101040008370C1E0D0E002C0CC0FDD1F8A95E2F7CB
:10105000C22BD32BDC6802CFDC2FCC27C16FD06A28
:10106000FDCECE018370992721E030E002C0220F2F
:10107000331F8A95E2F7C695C69590E2C99FE001B5
:101080001124C22BD32BDA68E9CEDC2FCC27C46F16
:10109000D06AE4CEDC2FCC27C06FD06ADFCE8C2F95
:1010A0008F700E949B0634E0D695C7953A95E1F77C
:1010B000CF709C2FEC01D069D1CEC9E3D0E0CECE69
:1010C000C2EED0E0CBCEC6EED0E0C8CE8091130207
:1010D000882331F010921302109212021092110222
:1010E00008958095909102049823909302040895A6
:1010F0008095909101049823909301040895809124
:10110000010490910204892B90911002892B809305
:10111000A60180911302882319F10E94CE04209128
:10112000110230911202821B930B8838934110F008
:101130000E9466088091A60190911302892B8093EA
:10114000A60120E088EA91E0FC013191CF01311144
:101150002F5FF1E08E3A9F07B9F721110E946608D0
:10116000E091B704F091B804309731F00280F38138
:10117000E02D86EA91E009940895EF92FF920F9393
:101180001F93CF93DF93EC018A85811134C0EB80EC
:10119000FC8087E5F81A26E12E9DC0012F9D900D59
:1011A0001124DC01AB5FBB4F1496ED91FC911597B8
:1011B000309731F054966D917C91855F9B4F0995E6
:1011C00086E18E9D80018F9D100D11240B5F1B4FBA
:1011D000F80187810E947808F80180850E947108D3
:1011E0000E947F08188219861B861E821D8210921B
:1011F000040410920304DF91CF911F910F91FF908F
:10120000EF900895CF93DF93EC01898981111BC082
:1012100081E0898B809101049F81892B8093010457
:10122000809102049885892B809302040E947F0894
:10123000EA81FB81309739F06C897D89CE01069671
:10124000DF91CF910994DF91CF91089510920F0211
:1012500010920E0210920D02089580910C028111DD
:1012600010920C020895E8EAF1E09191891303C00D
:10127000DF0111971C9291E0EE3AF907B1F708955A
:10128000A8EAB1E0EFEF90E02D91821751F0EF3F27
:1012900019F4211101C0E92F9F5F9630A9F7EF3FA4
:1012A00009F408950E2E000CFF0BEA55FE4F8283C1
:1012B000089580910B029091CA01981301C008957E
:1012C0008F5F8770FACF9E3F51F1292F220F220F97
:1012D000E22FE90FE80F9E2F9770E695E695E695C9
:1012E00083E0E89FF0011124ED54FE4F50E040E010
:1012F00080E0219130E0092E02C0369527950A94AE
:10130000E2F721703327042E01C0220F0A94EAF776
:10131000822B4F5F5F4F4330510559F7089580E0AE
:1013200008959E3F71F1292F220F220FE22FE90F1E
:10133000E80F8E2F877041E001C0440F8A95EAF7CD
:10134000E695E695E69583E0E89FF0011124ED54DB
:10135000FE4F30E020E070E05191DF011197CB01AA
:10136000022E02C0969587950A94E2F781708195C6
:101370008527842385278C932F5F3F4F23303105AA
:1013800059F7089590E080E00E94F00490E080E03A
:101390000E94DA0410920204109210020E947F0848
:1013A00086E0E5E6F2E0DF011D928A95E9F710920A
:1013B0005F0210925E02109260020C9445058093C9
:1013C000DA040C94C2098091DA04982F9670963052
:1013D00019F488600C94DF09877FFCCF21E030E0AE
:1013E00001C0220F8A95EAF720958091DA048223C2
:1013F0000C94DF0990910F028095892380930F024E
:10140000282F277091F4282F082E000C330B9217E9
:10141000130659F090913B0292FD07C08595859582
:1014200085950E94EE090C942609089521E030E08C
:1014300001C0220F8A95EAF78091DA04822B0C947E
:10144000DF0990913B0292FD10C098E0899F9001C6
:101450001124622B60930F020E94160A0E94CE0490
:1014600090930E0280930D0208950C94160A8093B7
:1014700014020C94C209882321F00E9471080C9474
:101480007F080895882339F090910204982B909357
:1014900002040C947F080895882321F00E947808A4
:1014A0000C947F080895882339F090910104982BBB
:1014B000909301040C947F0808959C013A9521159E
:1014C0003F4150F5FC01EE27F170BC0166277270B8
:1014D000AC01442754709C012227387094FF0EC041
:1014E00080E1EF2B09F480E0672B09F08062452B47
:1014F00009F08064232B89F08068089581E0EF2B48
:1015000009F480E0672B09F08260452B09F08460C4
:10151000232B19F08860089580E008958093C0041B
:101520007093C2046093C1048091D0048430F9F4B4
:101530008093E9008FEF9091E800815095FD06C0FF
:1015400095ED9A95F1F700008111F5CF8091E800B3
:1015500085FF0DC050E040E063E070E080EC94E077
:101560000E9464038091E8008E778093E8000895DC
:10157000BC0184E00C948E0ABC0183E00C948E0ABA
:101580009C0184E08093E9009FEF8091E8009150F6
:1015900085FD06C085ED8A95F1F700009111F5CF24
:1015A0008091E80085FF0CC050E040E066E070E00C
:1015B000C9010E9464038091E8008E778093E8005F
:1015C0000895CF93DF93EC0181E08093E9008FEFE2
:1015D0009091E800815095FD06C095ED9A95F1F740
:1015E00000008111F5CF8091E80085FF14C050E024
:1015F00040E068E070E0CE010E9464038091E80062
:101600008E778093E80088E0FE01A6ECB4E00190BC
:101610000D928A95E1F7DF91CF910895AF92BF9235
:10162000CF92DF92EF92FF920F931F93CF93DF93AE
:101630007C015B016A018091350201E010E08A3093
:1016400010F40AE010E0C1E0D0E0F894B501C70161
:10165000F60109957894811104C021960C171D0795
:101660005CF4DF91CF911F910F91FF90EF90DF908D
:10167000CF90BF90AF900895CC9F9001CD9F300D3B
:10168000300D112490E080E045E34A95F1F7000029
:10169000019682179307C1F7D8CF80911F0281115D
:1016A00010C08091D80080618093D8008AE18A952B
:1016B000F1F700C08091D90080FF0AC081E08093DB
:1016C0001F0281E090911F02913009F080E008959F
:1016D00082E080931F020E9414031092D004F1CF85
:1016E0000E944D0B882351F0E091B704F091B804AB
:1016F000309721F00190F081E02D099480E0089569
:10170000882309F452C0823871F40E94700B81FF63
:101710004CC089E30E9440090E947F0889E30E942F
:1017200033090C947F08833859F40E94700B80FFB2
:101730003CC083E50E9440090E947F0883E5EFCF0B
:10174000843859F40E94700B82FF2FC087E40E94F6
:1017500040090E947F0887E4E2CF9CEF980F913AFE
:10176000F0F290E2980F983050F4877091E001C049
:10177000990F8A95EAF7892F0E947808D2CF9BE5C6
:10178000980F933020F490E080E00C94F00498E5FA
:10179000980F973120F490E080E00C94DA04803FB9
:1017A00020F00E946C050C9445050895CF93DF93BB
:1017B000EC010E94800BCE010E945D0A9E01205E1A
:1017C00031092830310510F0CD2B21F4DF91CF9174
:1017D0000C944C0ADF91CF910C943B0ACF93C82F05
:1017E000882309F490C08238C1F40E94700B81FDF7
:1017F0008AC089E30E9440090E947F082FEF81EE92
:1018000094E0215080409040E1F700C0000089E35F
:101810000E943309CF910C947F088338A1F40E9471
:10182000700B80FD70C083E50E9440090E947F0814
:101830002FEF81EE94E0215080409040E1F700C00E
:10184000000083E5E5CF8438A1F40E94700B82FD8F
:101850005AC087E40E9440090E947F082FEF81EE62
:1018600094E0215080409040E1F700C0000087E400
:10187000CFCF8CEF8C0F813A68F4E8EAF1E08191E8
:10188000C817D9F121E0EE3AF207C9F78C2F0E9470
:101890004009C0CF80E28C0F883068F4C77021E027
:1018A00030E001C0220FCA95EAF780910104822B33
:1018B00080930104AFCFEBE5EC0FE33040F4F0E0B0
:1018C000EF59FE4F808190E0CF910C94F004E8E551
:1018D000EC0FE73150F4F0E0EE0FFF1FEC59FE4F34
:1018E00080819181CF910C94DA04C03F60F08C2FFD
:1018F0000E943106CF910C9445058C2F0E9433092C
:101900000E947F08C3CFCF9108951F93CF93DF9399
:10191000182FD0E0C0E0893311F4C0E5D0E0812F6A
:101920000E94EE0B209731F4812FDF91CF911F9110
:101930000C94800B8FE99FE00197F1F700C0000045
:101940002197F0CF0F931F93CF93DF93C62FD42F00
:10195000022FFC0182818823A1F06093DD040E94A4
:10196000CE049093DC048093DB04C77081E001C057
:10197000880FCA95EAF7DF91CF911F910F910C94D0
:10198000530A8091DD04681335C08091DB04909187
:10199000DC040E94B3048639910560F510E21D0F46
:1019A000CD17B9F080E28C0F883040F4C77081E029
:1019B00001C0880FCA95EAF70E944C0A183048F413
:1019C00081E09D2F977001C0880F9A95EAF70E94D9
:1019D000530A802F0E94850C183098F4D77081E04C
:1019E00001C0880FDA95EAF7DF91CF911F910F912F
:1019F0000C944C0AC77081E001C0880FCA95EAF7C1
:101A0000F3CFDF91CF911F910F910895DF92EF9265
:101A1000FF920F931F93CF93DF93E82FF0E0E154F1
:101A2000FE4FD490282F26952695269530E0F90173
:101A3000E155FE4F0491877010E0082E02C0159505
:101A400007950A94E2F701701127F901E156FE4F5C
:101A5000E490F12C082E02C0F594E7940A94E2F782
:101A600091E0E922FF24F901E157FE4FC491D0E053
:101A700002C0D595C7958A95E2F7C170DD2701159B
:101A8000110519F081EE0E94EE0BE114F10419F03A
:101A900086EE0E94EE0B8D2D0E94850CEF2819F02A
:101AA00086EE0E94800B012B19F081EE0E94800BC4
:101AB000CD2B51F08CE2DF91CF911F910F91FF90D0
:101AC000EF90DF900C94850CDF91CF911F910F91D7
:101AD000FF90EF90DF900895CF93DF93EC010E9489
:101AE0005D0A9E01205E31092830310510F02097F3
:101AF00039F40E94530A8C2FDF91CF910C94EE0B96
:101B00000E94420AF8CF1F93CF93DF93EC011AE0B3
:101B10008881882309F43EC08130C9F599818A8182
:101B2000913029F422960E94850C2196F1CF9230B3
:101B300021F422960E94EE0BF8CF933021F42296E6
:101B40000E94800BF2CF943011F02196EECF2296B6
:101B500030E020E0AE014F5F5F4F8053990B8A3039
:101B6000910550F02150310900F38FE99FE0019772
:101B7000F1F700C00000F6CF129FB001139F700D67
:101B800011249C01260F371F8981EA01E3CF0E94AF
:101B9000060DCBCFDF91CF911F910895CF93DF93A7
:101BA000C7E5D2E060E0CE010E94CF2E2196C1159C
:101BB00084E0D807B9F7DF91CF9108950F931F9371
:101BC000CF93DF938901843048F5683038F545308C
:101BD00028F521153C4531F42091550130915601ED
:101BE000232BE1F0C42FD0E0CC0FDD1F9AE0699FDA
:101BF000C00DD11D112490E5899FC00DD11D112468
:101C0000612FCE0187960E94CF2E602FCE0188963D
:101C1000DF91CF911F910F910C94CF2EDF91CF9137
:101C20001F910F910895CF93C82F6FEF811168E135
:101C300083E290E00E94CF2E6FEFC11167E484E24F
:101C400090E00E94CF2E6FEFC1116CE185E290E031
:101C5000CF910C94CF2ECF93C0913B02C2FB99271A
:101C600090F9981799F080FBC2F9C0933B026091FC
:101C70003A0284E090E00E94CF2E6C2F82E290E046
:101C80000E94CF2E82E0CF910C94FA09CF91089553
:101C90007F928F929F92AF92BF92CF92DF92EF92FC
:101CA000FF920F931F93CF93DF93CDB7DEB7649767
:101CB0000FB6F894DEBF0FBECDBFA0905501B09017
:101CC000560181E090E0909356018093550183E79F
:101CD000C82E83E0D82E00E0760110E015C0F40194
:101CE00025913491472D612F802F0E94DE0D82E0D7
:101CF000880E911C7394E5E07E12F1CFFAE0EF0EAE
:101D0000F11C1F5F183019F04701712CE8CF0F5FED
:101D100080E5C80ED11C0430F9F61A8219821C82A3
:101D20001B821E821D8218861F8286E990E09A8798
:101D3000898707E611E04AE050E0B801CE0101963C
:101D40000E94F32E065F1F4F073BE1E01E0799F745
:101D50007E01FBE0EF0EF11C8AE0F70111928A95FB
:101D6000E9F74AE050E0B801C7010E94F32E065F90
:101D70001F4F0735F2E01F07A1F7B0925601A0925E
:101D8000550164960FB6F894DEBF0FBECDBFDF914C
:101D9000CF911F910F91FF90EF90DF90CF90BF9068
:101DA000AF909F908F907F90089580E00E94130ED7
:101DB00060E086E290E00E94CF2E0E94480E0E94D2
:101DC000CE0D81E00C94130E9B01883070F49AE0E4
:101DD000899FB001112469597E4F4AE050E0C90142
:101DE0000E94B12E90E080E008958FEF9FEF08955C
:101DF0008F929F92AF92BF92CF92DF92EF92FF921B
:101E00000F931F93CF93DF93CDB7DEB72A970FB60B
:101E1000F894DEBF0FBECDBF05E014E0F12CE12C3D
:101E20008DE3C82E84E2D82E97E6A92E94E2B92E2F
:101E300022EB822E23E2922EF801D182C082B3825D
:101E4000A28295828482F58AE48ABE016F5F7F4F09
:101E50008E2D0E94E40E892B29F489859A85F8013C
:101E6000938B828BFFEFEF1AFF0A0A5E1F4F88E009
:101E7000E816F10409F72A960FB6F894DEBF0FBEF4
:101E8000CDBFDF91CF911F910F91FF90EF90DF9029
:101E9000CF90BF90AF909F908F9008950F931F9316
:101EA000CF93DF93843030F5683020F5453010F55E
:101EB000C42FD0E0CC0FDD1F2AE0629FC00DD11DE2
:101EC000112430E5839FC00DD11D1124CE018796CA
:101ED0000E94C12E082F10E0102F0027CE018896F7
:101EE0000E94C12E9801282BC901DF91CF911F912B
:101EF0000F91089590E080E0F8CF462F20911F03C6
:101F000030912003232B91F47E3F39F46E3F71F41E
:101F100080911D0390911E030895843038F4783029
:101F200028F4653018F4672F0C944E0F90E080E091
:101F30000895CF92DF92FF920F931F93CF93DF9379
:101F40006C010091DA0480911402082BC7E0D0E004
:101F500010E0FC2EC8010C2E02C0959587950A94BE
:101F6000E2F780FD0CC02197A0F7F12C8F2DDF91B7
:101F7000CF911F910F91FF90DF90CF900895B60100
:101F80008C2F0E947D0F0E94DE06019761F3EECF39
:101F9000CF93DF93EC010E94990FBE010E947D0F49
:101FA000DF91CF910C94DE06FC018681978100972A
:101FB00079F00E94DE06292F2F7092959F70925023
:101FC0009E30A0F4E92FF0E0E35FF04D0C946A2E10
:101FD000808191810E94C80FEECF803F19F020F4DC
:101FE000883E20F481E00895843FE1F380E0089585
:101FF000883EC0F3813FD1F7F5CF822F8695869535
:10200000869508951F93CF93DF9300D000D00F9251
:10201000CDB7DEB7FC01268137812115310541F5A9
:1020200025E0DE01119601900D922A95E1F7FC0161
:10203000228189819A812223B9F06623A9F00E9426
:10204000990F182F682F89819A810E9491096981BF
:102050007A81812F0F900F900F900F900F90DF914A
:10206000CF911F910C947D0F0E946309182FEFCF21
:10207000C9010F900F900F900F900F90DF91CF91AB
:102080001F91089583E290E00E94C12E883189F467
:1020900084E290E00E94C12E873459F485E290E0FA
:1020A0000E94C12E91E08C3109F090E0892F81705F
:1020B000089580E0FCCFCF9384E090E00E94C12E91
:1020C000C82F82E290E00E94C12E982F8C2FCF91D2
:1020D0000895CF92DF92EF92FF920F931F93CF93C9
:1020E000DF93CDB7DEB72A970FB6F894DEBF0FBEE9
:1020F000CDBFEDE7F2E080EADF011D928A95E9F7B6
:10210000E5E8F3E080E7DF011D928A95E9F78DE7C6
:10211000C82E82E0D82E7F0107EB11E0F701D182B3
:10212000C0824AE050E0B801CE0101960E94B12E73
:1021300088E0FE013196D60101900D928A95E1F773
:1021400089859A85D70113969C938E931297BAE04E
:10215000CB0ED11CE7E0EE0EF11C065F1F4F0735DA
:10216000F2E01F07D9F62A960FB6F894DEBF0FBE2D
:10217000CDBFDF91CF911F910F91FF90EF90DF9036
:10218000CF90089510920104E8EAF1E086E0DF01C3
:102190001D928A95E9F70C94C2091F93CF93DF93A0
:1021A000CDB7DEB7AA970FB6F894DEBF0FBECDBF8E
:1021B00082ED94E02091F100DC012D93CD01B4E09B
:1021C0008A3D9B07B9F78091D304833009F472C02C
:1021D000B8F4813009F449C0823009F4B3C0809169
:1021E000E80083FF96C28091D2049091D3049A3084
:1021F00008F08FC2E92FF0E0E55EF04D0C946A2EF6
:102200008A3009F48EC08B3009F471C0893039F7F7
:102210008091D204813219F78091D6049091D7042D
:10222000009711F00297D9F68091E800877F80939C
:10223000E8008091E80082FF38C09091F30080911F
:10224000F200029731F48091F100813011F0863074
:1022500021F48091F1008093C5048091E8008B7790
:102260008093E8000E948E03BACF8091D204813A15
:1022700009F0B5CF8091E800877F8093E8008091D6
:10228000D6049091D704892B61F468E086EC94E041
:1022900070E00E9440048091E8008B778093E80012
:1022A0009ECF60E090E080E0F3CF8091D004811178
:1022B000C0CF95CF8091D204813A09F090CF809120
:1022C000D6049091D704892B09F089CF8091E8003A
:1022D000877F8093E8008091E80080FFFCCF8091A9
:1022E00058018093F1008091E8008E77B9CF8091FA
:1022F000D204813209F073CF8091D6049091D70433
:10230000892B09F06CCF8091E800877F8093E800EB
:102310000E948E038091D404809358010E94C210C1
:102320005ECF8091D204813209F059CF8091E800CC
:10233000877F8093E8000E948E038091D50480936C
:10234000C4044DCF8091D204813A09F048CF8091E6
:10235000E800877F8093E8008091E80080FFFCCF51
:102360008091C404BECF803899F0823809F0D1C181
:102370008091D6048F70873008F0CBC18093E9003C
:102380008091EB0085FB882780F91092E90006C058
:102390008091CE049091CF04911182609091E800D9
:1023A000977F9093E8008093F1001092F100809164
:1023B000E8008E77AAC1882309F498C1823009F019
:1023C000A8C18091D40481119BC18091D6048F70E3
:1023D0002FEF280F263008F09CC18093E900209150
:1023E000EB0020FF8DC1933031F48091EB008062CF
:1023F0008093EB0085C19091EB0090619093EB008E
:1024000021E030E001C0220F8A95EAF72093EA002C
:102410001092EA008091EB008860EACF811179C1C7
:102420001091D4041F778091E3008078812B8093F2
:10243000E3008091E800877F8093E8000E948E038C
:102440008091E80080FFFCCF8091E300806880935A
:10245000E30082E0111183E08093D0045AC18058D8
:10246000823008F056C12091D4043091D5042C3D1F
:10247000E3E03E07A1F583E08A838AE289834FB7D0
:10248000F894DE01139620E03EE051E2E32FF0E005
:1024900050935700E49120FF03C0E295EF703F5F37
:1024A000EF708E2F90E0EA30C0F0C7968D939D9329
:1024B0002F5F243159F74FBF8091E800877F8093C9
:1024C000E8006AE270E0CE0101960E94400480912B
:1024D000E8008B778093E8001CC1C096E7CF80911D
:1024E000D6049091D704432F55274330510509F462
:1024F0004AC078F54130510509F485C08BE590E07C
:10250000E3EBF4E04230510509F003C12091E8000B
:10251000277F2093E8002091D8043091D9048217B6
:10252000930708F49C0140E02115310509F070C0C3
:1025300041116EC08091E80082FDC9CF8091D00426
:10254000882329F2853019F28091E80083FFF2CFC9
:10255000BECF4132510509F447C04232510509F05E
:10256000D8C08330910508F0D4C0FC01EE0FFF1FE6
:10257000E956FE4F0190F081E02D8C569E4FDC0114
:102580008C9190E01DC0332721303105E9F02115F1
:10259000310579F022303105F9F02330310509F0A9
:1025A000B8C0E0E2F5E0E4918E2F90E0E0E2F5E0E3
:1025B00007C0E4E6F5E0E4918E2F90E0E4E6F5E074
:1025C000009709F4A6C0A2CFEAE5F5E0E4918E2FCA
:1025D00090E0EAE5F5E0F4CFEEE3F5E0E4918E2F4C
:1025E00090E0EEE3F5E0ECCF8330910508F091C088
:1025F000880F991FFC01E356FE4F0190F081E02DFA
:1026000089E090E083CF82E190E0EEE0F5E07ECFDC
:102610008091D004882309F45ACF853009F457CF2C
:102620008091E80083FD53CF8091E80082FD82CF46
:102630008091E80080FF78CF9091F3008091F200C4
:102640002115310519F08830910550F041E00897C7
:1026500009F040E08091E8008E778093E80064CF35
:1026600044914093F1003196215031090196E8CF11
:10267000803809F04EC08091E800877F8093E800A1
:102680008091D1048093F10092CE811142C01091CB
:10269000D4041230F0F58091E800877F8093E80041
:1026A0001093D1040E948E03112311F084E005C021
:1026B0008091E30087FDFACF81E08093D00442E06F
:1026C00061EC81E00E94AD0342E261EC84E00E9493
:1026D000AD0342E261EC82E00E94AD0342E260ECB5
:1026E00083E00E94AD038091D00413C08091D40494
:1026F000813079F481E0933009F080E08093CF0459
:102700001092E9008091E800877F8093E8000E94A2
:102710008E038091E80083FF0AC08091E800877FE4
:102720008093E8008091EB0080628093EB00AA9692
:102730000FB6F894DEBF0FBECDBFDF91CF911F91D2
:1027400008950F931F93CF93DF9300D000D0CDB7A0
:10275000DEB74091310250913202609133027091A4
:1027600034022FB7F8948091BC049091BD04A091DD
:10277000BE04B091BF042FBF841B950BA60BB70BF3
:1027800084369105A105B10588F10E944D0B88237F
:1027900079F10E94C2046E5F7F4F8F4F9F4F698314
:1027A0007A838B839C838091190190911A01885DB3
:1027B0009D4F4091180150E04530510510F044E024
:1027C00050E0BE016F5F7F4F0E94A12E82E090E03B
:1027D0000E94A22D892BD9F40E94C2046093310279
:1027E00070933202809333029093340281E010C0E0
:1027F0000E94C204009136021091370220913802E3
:1028000030913902600F711F821F931FC4CF80E087
:102810000F900F900F900F90DF91CF911F910F911C
:1028200008950F931F93CF93DF9300D000D00F92A2
:10283000CDB7DEB78B0190E080E00E94A22D892BFE
:1028400009F085C04091070150E04115510511F094
:1028500041E050E06091080170910901685D7D4F91
:10286000CE0105960E94A12E40912402509125028E
:1028700060912602709127022FB7F8948091BC04D2
:102880009091BD04A091BE04B091BF042FBF841BE2
:10289000950BA60BB70B84369105A105B10540F445
:1028A00089E292E00E94FD029D81891709F45FC0D0
:1028B00081E090E00E94A22D892BC1F080E0409140
:1028C0002002509121026091220270912302F801AE
:1028D00040835183628373830F900F900F900F900A
:1028E0000F90DF91CF911F910F91089540911101A9
:1028F00050E04530510510F044E050E06091120185
:1029000070911301685D7D4FCE0101960E94A12E4A
:1029100089E292E00E94FD029D818913CFCF0E943F
:10292000C204609324027093250280932602909340
:10293000270289819A81AB81BC8180932002909388
:102940002102A0932202B093230281E0B8CF80E05D
:102950004091290250912A0260912B0270912C0221
:1029600049835A836B837C838111E3CFA8CF81E0B5
:10297000EFCF6AEE7EEF90E080E00E94ED2E60E007
:1029800082E090E00E94CF2E60E083E090E00E9421
:10299000CF2E1092140260E084E090E00E94CF2ECF
:1029A00060E082E290E00E94CF2E60E085E090E05F
:1029B0000E94CF2E60E086E090E00E94CF2E6FEF65
:1029C00087E090E00E94CF2E40E050E0BA0188E01E
:1029D00090E00E94E12E60E08DE090E00E94CF2E1A
:1029E00040E050E0BA0188E190E00E94E12E60E012
:1029F00087E190E00E94CF2E40E050E0BA018CE1E8
:102A000090E00E94E12E70E060E080E290E00E94A1
:102A1000ED2E40E050E0BA0188E190E00E94E12E06
:102A200080E00E94130E0E94D50E40E050E0BA01F3
:102A30008FE090E00E94E12E40E050E0BA0183E197
:102A400090E00C94E12E8F929F92AF92BF92CF9222
:102A5000DF92EF92FF920F931F93CF93DF9300D0FB
:102A600000D0CDB7DEB77C01DC0113968D919C912F
:102A70001497892B39F08C9111969C9189238F3F63
:102A800009F019C60F900F900F900F90DF91CF9122
:102A90001F910F91FF90EF90DF90CF90BF90AF907C
:102AA0009F908F900895D60116968C911697882343
:102AB000D1F019968D919C910817190739F48091DE
:102AC0000304909104040817190769F0F60197862A
:102AD00014870387C6010E940209C60106960E9458
:102AE000BD0810920204FFEFAF1ABF0A26E1C20E22
:102AF000D11CF9C5980122513F452031310508F01C
:102B0000F3C48FEF93E00E94C12E6EEED62ED00E4E
:102B100007E512E08823F1F080910F02877009F435
:102B2000B1CFF7018281882309F4ACCF80913B02B9
:102B300082FDA8CF82E00E94FA09A4CF011534E0FB
:102B4000130751F3C8010E94C12E811101C0DA940C
:102B50000F5F1F4FD110F2CF19821A821B821C8285
:102B6000CC24CA9448014FEF841A940AC8010E94E9
:102B7000C12E89831A82882379F2813009F048C0F6
:102B8000580152E0A50EB11CC4010E94C12E982E1E
:102B90008A83882309F4C0CFC5010E94C12ED82E94
:102BA0008FEF890D833068F4580183E0A80EB11CC3
:102BB000DB82DD2021F0CE0101960E94830D85018C
:102BC000D1CF94E09912FBCF5801A4E0AA0EB11C1A
:102BD000C80103960E94C12EDD2009F49DCF8823F1
:102BE00009F49ACF8150990BC89E9001C99E300D6F
:102BF0001124ED2DE150FF0BCF01820F931F0197A0
:102C0000F0F2AFE9BFE01197F1F700C00000F7CF95
:102C1000CE0101960E94830D5401D1CF81E00E9424
:102C2000160A0E94E30978CF81E00E94EE09F9CFED
:102C300082E0F5CF2FEFC216D10411F008F06AC47C
:102C400063E772E08C2D0E94E40E892B29F586E162
:102C50008C9DF0018D9DF00D1124EB5FFB4F868163
:102C6000813009F062C08091730290917402892BC7
:102C700099F08091750290917602892B69F080918C
:102C80007702909178022091790230917A02822B1A
:102C9000932B892B09F453C080910001909101017D
:102CA0008C159D0524F4D0920101C0920001F7011A
:102CB000828196E19C9D50019D9DB00C112495014F
:102CC0002B5F3B4F6901D90150968C9350979281AD
:102CD00016968C911697992309F43FC01A961C9367
:102CE0000E9319978F5F16968C930E94CE04F6016F
:102CF0009687858780911302878380910204909143
:102D00000104892B80870190F081E02D309741F0FC
:102D1000D60154966D917C91C501855F9B4F0995B5
:102D20001093040400930304F5C3823009F0B4CF78
:102D30008091770290917802892B09F4ADCF26E13A
:102D40002C9DC0012D9D900D11248B5F9B4FDC01AC
:102D500050961C920E9402099FCF882309F4DAC37F
:102D6000F9018189882309F4D5C3C501855F9B4F8B
:102D70000E94BD08CFC382EE0E94EE0B0EC488E114
:102D800093E00E946C0D88E193E00E94D60B05C48D
:102D90008091B001811103C083E50E94850C82EE11
:102DA0000E94EE0B8FE39CE90197F1F700C0000051
:102DB00087E50E94850CF1C386EE0E94850C88E1B0
:102DC000F8CF86500FC496EF980F963020F0805DB4
:102DD0000E94060D09C4895AFBCF82EE0E94800B27
:102DE00019C48CE20E94850C8091B101882309F4FA
:102DF00011C489E30E94850C0DC482EE0E94800BF1
:102E00008091B001811106C483E5F4CF88E2F2CF4E
:102E1000033FFCE51F0739F188F4083D3CE5130743
:102E2000F1F0093D4CE5140751F1073D5CE515074C
:102E300009F0F4C326E241EE61EE0DC0053F8CE5DA
:102E40001807C9F0A0F027E245EE66EE063FACE5B4
:102E50001A0709F0E3C3C7010E94A20C5DCE27E266
:102E600045EE65EEF8CF26E241EE60EEF4CF27E2C4
:102E700045EE64EEF0CF26E241EE62EEECCF28E2C2
:102E800041E0EFCF01363DE5130709F4DDC306311C
:102E90008CE5180709F04AC4809101048A7A91E010
:102EA00009F490E09093B2018111E7C089E20E9499
:102EB00040090E947F0830CE80913A02806106303E
:102EC0002CE5120709F491C080913A02886007301E
:102ED0001C4508F48AC080913A02806286C08091C5
:102EE0003A028D7F0C304CE5140709F47EC058F48B
:102EF0000A308CE5180709F493C008F48BC0809160
:102F00003A028E7F72C080913A02877F0E30ACE524
:102F10001A0709F46AC080913A028B7F0F301C4572
:102F200008F463C080913A028F7E5FC00C3FECE5ED
:102F30001E0709F479C068F504312CE5120709F47D
:102F40008BC080F402314CE5140709F475C0809100
:102F50003A028F7B03311C4508F447C080913A0246
:102F6000837F43C00A3F8CE5180709F445C008F089
:102F700049C005311C4509F08EC380913A0282FB9D
:102F8000992790F921E0922790FB82F990FB83F931
:102F90002CC00115BDE51B0709F454C088F48091CD
:102FA0003B0283600E3FFCE51F0749F180913B0225
:102FB0008D7F0F3F1C4518F180913B028C7F1FC015
:102FC00002303DE5130709F456C008F44EC001363F
:102FD0001D4509F060C390913A02892F8F7E94FFBE
:102FE000806103C080913A02816080933A0253C3AA
:102FF00080913A028460F9CF80913B028160809396
:103000003B0249C380913B028260F9CF80913A0232
:103010008064EBCF0E94C21080913A028068E5CFB5
:1030200080913A028C60E1CF80913B028E7FE7CFA6
:1030300080913A028F7DD9CF0E94C21080913A02CE
:103040008F77D3CF80913B02982F909591708E7F90
:10305000892B90FB81F9D3CF0E94C21090913A0244
:10306000892F97FB87F98058C0CF61E08EE090E010
:103070000E94CF2E10C360E0F9CF85E318CF85E31F
:1030800052C30E94C2109FEFA4E3BCE09150A04045
:10309000B040E1F700C000000E94A20481E066C3D6
:1030A00080E064C3F701828100811181882369F087
:1030B000C8010E94990FD82E682FC8010E9491095B
:1030C000B8018D2D0E947D0F5AC3C8010E9463096B
:1030D000D82EF6CFE12FEF70DE2E107F19F0D294AC
:1030E00090EFD922CC20B9F0DD2069F080E2800F8A
:1030F000883010F0011109C080910104D82AD092C3
:1031000001040E947F08802F40C080910204D82AC9
:10311000D0920204F6CF802F0E94800BDD20B9F1FF
:1031200080E2800F883010F0011104C08D2D0E94C4
:10313000780803C08D2D0E9471080E947F0827C067
:10314000F12FFF70DF2E107F103219F0D29480EF34
:10315000D822002351F0013009F483C0CC2009F4B7
:103160008CC0BB2009F461C0CECF80913B0282FFAE
:1031700037C0CC2079F1DD2039F080910104D82AC4
:10318000D09201040E947F0880E00E94EE0BA92DDE
:10319000A850BB0B149710F40E94700BAA20A9F042
:1031A00080910F0280FD11C0F701128285958595EF
:1031B00085950E94160AC7010E94231580910F026F
:1031C0008595859585950E94EE0960E0C7010E946E
:1031D000021058CC80E00E94800BDD20C1F2A6CF07
:1031E000CC2039F1B11004C0809113028D291EC08A
:1031F00021E0B21210C082FDCACF80911302D82AFA
:10320000D81629F20E94CE049093120280931102E4
:10321000D0921302BCCF35E0B312E6CF0E9466080D
:1032200080910C02D812D0920C028D2D0E94530A6C
:10323000AECFB11006C00E9466088D2D0E944C0AC8
:10324000A6CF41E0B41208C0809101048D2109F499
:103250009ECF0E942D09EFCF55E0B51609F497CF08
:10326000EACFCC2029F085E08B1508F490CFDDCF94
:1032700094E09B1508F48BCFE0CFBB20F1F209332B
:1032800049F4AFEFB7EEE3E0A150B040E040E1F722
:1032900000C00000802F0E94800B79CF812F86957F
:1032A0008695837061F0813009F071CFC801937009
:1032B000C11002C090E080E00E94DA0468CFC8012B
:1032C0009370C11002C090E080E00E94F0045FCFD4
:1032D000802FCC2029F00E9431060E94450557CF4F
:1032E0000E946C05FACF812F837089F5C1104FCFF2
:1032F000402F429546954770440F440F802F8F70A2
:10330000042E01C0880F0A94EAF7202F207104FFD1
:1033100007C02FE030E001C0220F4A95EAF7209560
:10332000169516951370123069F050F4309114020E
:10333000113029F0822B83230E94370A28CF832B58
:10334000822BFACF282B809114028227F5CF869505
:10335000CC2011F0812F8170882309F418CF402FE1
:10336000429546954770440F440F802F8F70042E6E
:1033700001C0880F0A94EAF7202F207104FF07C0CC
:103380002FE030E001C0220F4A95EAF7209516950C
:1033900016951370123069F050F43091DA04113040
:1033A00029F0822B83230E94DF09F1CE832B822B0D
:1033B000FACF282B8091DA048227F5CF1F70CC201A
:1033C00029F0812F0E94160A802F30CF802F0E9473
:1033D0004C0A812F0E94EE09DACE023F81F160F49F
:1033E000003FB9F0013F81F0CC2009F46DC0B1106D
:1033F0008ACE812F8F7127C0033F41F1043FA1F78F
:1034000080913B0282FF2DC0812F8F71CC2011F360
:103410001AC0CC2079F0F4E0FB1508F4B8CE1F7187
:1034200081E090E001C0880F1A95EAF79091DA04E4
:103430008927B9CF25E02B1508F4A9CEF0CF812F2D
:103440008F71C110C7CF0E94160AA1CE80E0CC2098
:1034500009F4A9CF1F7181E001C0880F1A95EAF71E
:10346000A2CF80910C02CC20D9F00E9478088091E4
:103470000F028770843041F40E942609812F8F71DA
:103480000E94EE09A12C83CE34E03B15D8F31F71C6
:10349000812F0E94160A63E0812F0E94210AF2CF39
:1034A00090910104982B9093010444E04B1540F453
:1034B0000E9426090E942D0964E0812F8F71EDCFB3
:1034C00081E00E94FA09DECFBB2059F0093309F0F0
:1034D000E1CE5FEF87EE93E0515080409040E1F7FE
:1034E000D7CE812F8F7176CF0031FFE51F0709F40A
:1034F00095CB01312FE5120709F49ACB6801E7E576
:10350000DE1A882309F496CBFFEFCF16D10409F019
:1035100008F4C2CBD70112968C91882369F0C801B8
:10352000815E9C45059740F46FE1600F60933C021B
:103530008CE090E00E94CF2E17FF6ACCF7018281C9
:10354000882309F46BC00E94700B8695817080936C
:10355000B1010E94700B81708093B00180913C0298
:10356000813039F48091B101882319F089E30E94F8
:10357000850C809101048093AF0110920104809129
:103580003C02813009F4FBCB882309F4F4CB823070
:1035900009F4FECB843009F40FCCAFE3BCE91197FA
:1035A000F1F700C000005801E894B7F84CE0C42ED1
:1035B000D12C5AE0852E912CC5010C2C02C0969579
:1035C00087950A94E2F78F7090913C02923009F04F
:1035D000FACB8A3008F0F5CB90E00996B4010E944E
:1035E000562E875A0E94850CB4E0CB1AD108ECEF16
:1035F000CE16EFEFDE0601F780913C02813009F430
:10360000F0CB882309F4E9CB823009F4F6CB84307F
:1036100009F4FCCB8091AF0180930104F701828112
:10362000882309F478C01092DD040330FDE51F07FC
:1036300008F028CC0A3F2CE5120730F4C80182506C
:103640009C45449708F023CC0E945B1090933B026A
:1036500080933A0200314CE5140709F4E9CC08F0F4
:1036600065CC08308CE5180709F4D0CC08F037CCCD
:103670000430ACE51A0709F4BBCC08F01DCC0230CD
:10368000ECE51E0709F4AECC80913A02826003306B
:103690001C4509F4AACC60913A0210913B0284E0E7
:1036A00090E00E94CF2E612F82E290E00E94CF2E08
:1036B0000E94C21031CA61E0C7010E9402108C0151
:1036C000D70112968C918823B1F0809100019091DE
:1036D0000101019681F075E0C72E74E0D72EB12C60
:1036E000A12C9924939480910001909101018A1555
:1036F0009B050CF0D8C9F70182818111FBC900310B
:103700003FE5130709F490CA01314FE5140709F0AA
:10371000F5CE82E08ACA06311C4551F58091B2018E
:103720008111ADCC89E20E943309C3CB0A35EDE5A6
:103730001E0709F4B3CC58F401152CE5120709F45F
:10374000A0CC0E3D1C45A1F40E94B914E5C90B356F
:103750004DE5140709F4A4CC0C351D4549F48091BE
:103760003B0282FB882780F991E089270E942B0E7B
:10377000D70116968D919C91009709F493CC0E94E5
:10378000DE068C01D7011296CC9012971596BC904C
:10379000B2943FE0B32280910F028770C1F0AC2C4D
:1037A000CC20B1F0812F807F803421F080E2800F27
:1037B000883068F080913B0282FD09C082E00E945F
:1037C000FA0980910F028770AA24A3948111A12C79
:1037D000912E92942FE09222BBE0B91508F4D7CC39
:1037E000E92DF0E0EB5DF04D0C946A2ECF93DF9362
:1037F0008091C701807FA1F48091C401882381F06A
:1038000080910B02D091CA016091C2017091C301F5
:10381000A091C501B091C601C62FC723D81303C01C
:10382000DF91CF91089590E0109711F0CF3F19F4F8
:1038300001968770F3CF9C0143E0220F331F4A9516
:10384000E1F7F901E553FE4F41814713F1CF408184
:103850004613EECF42814111EBCF438154814A1B85
:103860005B0B4639510520F78091C7018F7080614D
:103870008093C701F901E053FE4F80818F70806112
:10388000808382EC91E00E942315DF91CF910C940C
:103890005909AF92BF92CF92DF92EF92FF920F93AE
:1038A0001F93CF93DF93CDB7DEB765970FB6F8942C
:1038B000DEBF0FBECDBF8C0185E0F801DE01519661
:1038C00001900D928A95E1F7F801E28062ECA62E54
:1038D00061E0B62E6091C5017091C6016115710558
:1038E00009F468C19091C2014091C301892F8423DA
:1038F0008F3F09F45FC120813181C380D480F09073
:10390000C401F601E61BF70BFF2009F41DC18091ED
:10391000C701582F507FE639F10508F0D0C051118A
:1039200081C0FE2C43132BC0921329C06091C801A3
:103930007091C901F8014681578164177507F9F440
:10394000E1101DC08F7080618093C701C5010E9486
:1039500023158091C701F80185838F2D65960FB6D9
:10396000F894DEBF0FBECDBFDF91CF911F910F91B5
:10397000FF90EF90DF90CF90BF90AF900895CD284B
:1039800029F0822F83238F3F09F02FC180E0F82F89
:10399000F170DF2E80FF3CC080910B024091CA0184
:1039A000841315C0298B3A8B89899A890E94C80F84
:1039B000292F22952F702230F8F0243020F59F70A7
:1039C000F9F0F8019581907FD9F4D12C1FC090E0D7
:1039D000FC0153E0EE0FFF1F5A95E1F7E553FE4F50
:1039E0005181351306C05081251303C05281E51261
:1039F0000FC001968770D4CF9F7011F0882329F3F0
:103A0000805E883010F3C8010E942315FD2CA5CFDD
:103A1000EE2009F4A2CF8091C70181608093C70195
:103A2000F12C9BCF43131BC0921319C04091C801C6
:103A30005091C901F801268137814217530779F463
:103A4000E1100DC08583C8010E94231588E0F801AC
:103A5000A2ECB1E001900D928A95E1F77ECFC8010A
:103A60000E94D40F882339F1EE2029F18091C701FB
:103A70008032A0F02091C2013091C3013A8729879A
:103A80001B86DD86CC868E878091C8019091C90106
:103A9000988B8F87CE0109960E94231588E0F80144
:103AA000A2ECB1E001900D928A95E1F70E94F61B1D
:103AB000FF24F39452CFC8010E942315F9CF51116E
:103AC0000AC082EC91E00E94231588E0F501119272
:103AD0008A95E9F7A5CF431318C0921316C04091F9
:103AE000C8015091C901F801268137814217530757
:103AF00061F4E1100AC08583C8010E94231588E0A3
:103B0000F50111928A95E9F728CFC8010E94D40FD8
:103B1000882389F2EE2079F28091C701803208F47F
:103B2000BDCF2091C2013091C3013A8329831B820A
:103B3000DD82CC828E838091C8019091C9019887E3
:103B40008F83CE010196A8CFE639F105C0F6FE2C91
:103B5000EE2009F4B0CF43131FC092131DC0209173
:103B6000C8013091C901F80186819781281739076A
:103B700099F49091C70190FD69CF907F09F466CFC9
:103B80008091C7018583903F09F45DCF982F907F86
:103B9000905F8F70892B56CFC8010E94D40F81117E
:103BA0007DCF8091C70181608093C701C8010E94C9
:103BB0002315D3CEEE2009F47ECFC8010E94D40F86
:103BC000F82E882309F477CF88E0F801A2ECB1E061
:103BD00001900D928A95E1F78091C2019091C30105
:103BE0000E94C80F0E94F61BB8CE81E08E25CFCE72
:103BF000CF93DF93CDB7DEB760970FB6F894DEBFF3
:103C00000FBECDBF29873A874B875C876D877E873C
:103C10008F87988BCE0109960E94491C811112C092
:103C200088E0FE013996DE01119601900D928A9589
:103C3000E1F78C859D85892B29F089859A858923D3
:103C40008F3FA9F580910B029091CA0189131CC086
:103C500060960FB6F894DEBF0FBECDBFDF91CF9157
:103C6000089593E0AA0FBB1F9A95E1F7A553BE4FA5
:103C700098E0FE01319601900D929A95E1F78093BC
:103C8000CA010E945909DECFB8E08B9FC001112400
:103C900085539E4F0E94491C8823D1F280910B02CC
:103CA00090E001968770992780930B02CBCFA0916B
:103CB000CA01B0E0CD0101968770992720910B02CF
:103CC0002817190671F60E94C2101092CA011092AC
:103CD0000B0288E0E2ECF1E0DF011D928A95E9F742
:103CE000B1CF0F931F93CF93DF9380912403E09183
:103CF0002303CCE081111AC0DF91CF911F910F9166
:103D00000895D1E0DE0FD09323030E2F10E0EC9F37
:103D1000F0011124EB5DFC4F83819481892B29F004
:103D20008081918189238F3F51F4ED2F809124036D
:103D3000E81738F31092240310922303DDCFC09FBD
:103D4000D001C19FB00D1124AB5DBC4F16968D9173
:103D50009C911797892B29F418968D919C91019627
:103D600051F4208131814281538164817581868142
:103D700097810E94F81DC09FF001C19FF00D112492
:103D8000EB5DFC4F14821382D0CF1092000410928E
:103D9000FF03109257018091FE038093FD030E9460
:103DA00034050C94711E3F924F925F926F927F92F6
:103DB0008F929F92AF92BF92CF92DF92EF92FF923B
:103DC0000F931F93CF93DF93C091FD0397E0892E4C
:103DD00001E010E02CE0322E3EEF932E4424439479
:103DE0008091FE038C1315C00E94711EDF91CF914C
:103DF0001F910F91FF90EF90DF90CF90BF90AF9009
:103E00009F908F907F906F905F904F903F900C9419
:103E10003405D0E0FE01EE0FFF1FEB50FC4F808118
:103E20009181889ED001899EB00D1124AB57BC4F63
:103E300014962C911497211157C050902403E5E259
:103E4000F3E030E020E0712C5D01251508F04AC058
:103E5000E284F384D501CD90DC906FEF7FEF612C8D
:103E6000462D50E0DA01AA0FBB1FAC0DBD1D0D9011
:103E7000BC91A02D109731F0EA16FB0609F4BA01A7
:103E80006394EECF6F3F7607A1F1D80102C0AA0F6D
:103E9000BB1F6A95E2F77A2AB80102C0660F771F46
:103EA0006A94E2F7AB014150510974161506F9F412
:103EB000329EF001339EF00D1124EB5DFC4F889E85
:103EC000D001899EB00D1124AB57BC4F12962D9195
:103ED0003C911397378326839082918291878087C4
:103EE00015964C920E9406052196C37079CF1482D4
:103EF00013822F5F3F4F3C96A8CFCF92DF92EF9275
:103F0000FF920F931F93CF93DF93CDB7DEB72C971C
:103F10000FB6F894DEBF0FBECDBF8E010F5F1F4FEF
:103F200088E0D8011D928A95E9F7F80140E251E056
:103F3000BE016B5F7F4F6A01E12CFF24F39430E0F8
:103F4000D6012D916D012F3F91F0822F82958F70B8
:103F500090E0DC0190968C9190E02F7002C09595D6
:103F600087952A95E2F780FD59C08F2DE82A3F5F9B
:103F7000FF0C353029F7E1924B5F5F4F6E177F07DB
:103F8000D1F648E050E0B80180E492E00E94942E1F
:103F90007C01892B41F088E0F801A0E4B2E00190B7
:103FA0000D928A95E1F710914902E114F104C1F1F3
:103FB00081E0809317020E94CE04909316028093B2
:103FC000150280911502909116020E94B304059784
:103FD00090F0E12FF0E0EA5AFD4F8091400280839B
:103FE00080914102818380914202828380914302C9
:103FF00083831092170281E090E0EF28A9F02C96BD
:104000000FB6F894DEBF0FBECDBFDF91CF911F91E9
:104010000F91FF90EF90DF90CF90089580E0A6CFB2
:10402000809117028111CDCF0E944D0BF82EE091A7
:104030004902882309F4DEC019861A861B861C866D
:104040000E2F10E00A5A1D4F809135028A30C8F5B4
:1040500041E154E1BE01675F7F4FC8010E940E0B32
:10406000882309F453C041EA53E1BE01675F7F4FE3
:10407000C8010E940E0B882309F448C01092350233
:104080008091480290E044E050E0BE01675F7F4FBE
:104090008A5A9D4F0E94942E21E020931E02892B64
:1040A00039F5F12C809100019091010110E006E1B9
:1040B000019609F06AC080915701811170C08F2D5F
:1040C0009ECF80911802909119020E94B304843F00
:1040D000914008F0BDCF80911E02882311F3FE01AC
:1040E000399684E0DF011D928A95E9F710921E024D
:1040F000E0914802F0E0EA5AFD4F89859A85AB8548
:10410000BC8580839183A283B383CCCF8091350219
:104110008F3F31F08F5F809335028A3008F4B0CF43
:104120000E94CE049093190280931802D4CF089F66
:10413000F001099FF00D1124EB5FFB4FC288D3887B
:10414000C114D10419F426E9C22ED12C089FF00124
:10415000099FF00D1124EB5FFB4F86818823A1F0AE
:10416000858596850E94B304C816D90668F4109F09
:1041700060011124C6018B5F9B4F0E940209C6019A
:10418000855F9B4F0E94BD081F5F812F90E02091AB
:10419000000130910101281739074CF68CCF80912E
:1041A000FF0390910004009709F489CF0E94B304A3
:1041B00020912103309122032817390708F07FCF7F
:1041C0009091FD038091FE03981759F00E94D31E31
:1041D0001092220310922103109200041092FF0308
:1041E0006ECF0E94711E109200041092FF030E9475
:1041F000340565CFF0E0EA5AFD4FF89484E0A9E277
:10420000B2E001900D928A95E1F789E292E00E9476
:10421000FD02809328027894F894C0902D02D090EB
:104220002E02E0902F02F090300280911A029091BD
:104230001B02A0911C02B0911D02C816D906EA0605
:10424000FB06D1F0C0921A02D0921B02E0921C022F
:10425000F0921D020E944D0B81110EC00E94C204FB
:10426000C61AD70AE80AF90AC0923602D092370273
:10427000E0923802F0923902789480E0C0CE2F921A
:104280003F924F925F926F927F928F929F92AF92E6
:10429000BF92CF92DF92EF92FF920F931F93CF9333
:1042A000DF93CDB7DEB769970FB6F894DEBF0FBEC8
:1042B000CDBF498B5A8B6B8B7C8B8D8B6111109290
:1042C00002041D861E861F86188A85E0FE017196EF
:1042D000DE01199601900D928A95E1F780913B02DB
:1042E00082FD1CC00E94CE0420910D0230910E026E
:1042F000821B930B8838934120F080910F0282FF3C
:10430000FEC10E94CE042091110230911202821B44
:10431000930B8838934110F00E9466088C859D8528
:10432000892B31F089859A8589238F3F09F0D3C184
:1043300029853A854B855C856D857E858F85988935
:104340000E94F81DC2C048EFC4164CE5D40629F4FB
:10435000882379F00E94C51EEBCF69EFC6166CE585
:10436000D60639F4882329F0809157018111F2CFC4
:10437000C2C105E813E0E12CB12CA12C8824839460
:10438000912C2EEF522E44244394F8014081518108
:1043900066246A94762C20E0822F90E0FC01EE0FD8
:1043A000FF1FE40FF51F608171816115710531F008
:1043B000C616D70609F43C012F5FEECFF12CFFEFB4
:1043C0006F167F0609F443C0F8014481F09057014D
:1043D0008F2D411180E0F82FF170FF2EF80125801C
:1043E00086819B85992309F406C1FF2009F403C146
:1043F000211013C0A40101C0440F6A94EAF7842B72
:1044000086838091210390912203C29730F462E366
:1044100070E07093220360932103C40102C0880FEF
:10442000991F2A95E2F70197F801268128171906A6
:1044300071F48091FF0390910004009709F45EC02D
:104440000E94B304C39708F459C0F8014482EF28CE
:10445000FFEFAF1ABF0A095F1F4F20E1A216B10498
:1044600009F093CF8B85882309F420C1EE2009F44D
:104470001DC10E94CE04909300048093FF0380919D
:104480002403883010F591E0980F9093240398E06E
:10449000FE013996DE01119601900D929A95E1F791
:1044A0003CE0839FC00111248B5D9C4F28E0FE01FE
:1044B0003196DC0101900D922A95E1F72FEF3FEF45
:1044C000FC0131872087D386C28669960FB6F8949F
:1044D000DEBF0FBECDBFDF91CF911F910F91FF9037
:1044E000EF90DF90CF90BF90AF909F908F907F9094
:1044F0006F905F904F903F902F9008958091FD03B3
:104500005091FE03982FF0E0E0E0851314C09093E3
:10451000FD030E171F0709F49ACF90E0FC01EE0F80
:10452000FF1FEB50FC4FB182A08201968370992748
:104530008093FE038CCF282E312CF101EE0FFF1F4C
:10454000EB50FC4F20813181F7E0F29FD001F39FC7
:10455000B00D1124AB57BC4F2D913C911197398F61
:10456000288F40E020E030E0E32FF0E0EE0FFF1F67
:10457000688D798DE60FF71F60807180611471047A
:10458000E1F0F8010190F081E02DFF8BEE8B20E04F
:1045900005C06616770609F44F2D2F5FE22FF0E075
:1045A000EE0FFF1F6E897F89E60FF71F6081718113
:1045B0006115710571F73F5FD7CF4423C9F0F8014A
:1045C000231708F0FD014482E017F10721F49093CE
:1045D000FD03F42E3CCF981305C0EA17FB0711F436
:1045E0009F5F937091012F5F3F4F822F83708DCF1C
:1045F000F0E0E0E0F7CF90E021101FC0B40102C06E
:10460000660F771F2A95E2F79B0121503109821727
:10461000930731F4442309F447C0C5010E940605FD
:10462000C40101C0880F6A94EAF7982F9095F801A9
:10463000868189238683F22C0ACF9C01062C02C036
:10464000359527950A94E2F7A90141705527BC01D9
:104650006150710986239723892B11F5452B01F1B0
:10466000F80182819381892BC1F01B821C821D82FB
:104670001E8259825A820E94CE048160582F9D83E7
:104680008C83F801828193818F83988729813A8175
:104690004B816D817E810E94F81DF8011582C0CF8B
:1046A000F22FF1702F2EBCCF2F2CBACF9091FD039B
:1046B0008091FE03981731F00E94D31EEE2009F47A
:1046C00037CE03CF0E94711E109200041092FF0398
:1046D0000E943405F3CF61E0CE0109960E940210DA
:1046E0006C018B85F7EFCF16FCE5DF0609F02BCECA
:1046F000882309F43ECE81E08093570119CE82E0F1
:104700000E94FA09FECDCF93DF9300D000D00F9224
:10471000CDB7DEB790931E0380931D03811520E271
:10472000920748F40F900F900F900F900F90DF9129
:10473000CF910C94D60B8EEF89838A831B820E94C3
:10474000CE048160782F9D838C8349815A816B814F
:104750008D810F900F900F900F900F90DF91CF9160
:104760000C943F210F931F93CF93DF938C01EB01A8
:1047700063E772E08C2F0E94E40E892B71F4DD2731
:10478000C559DD4F8881F80110821882833009F104
:1047900048F4813059F0823081F0DF91CF911F9140
:1047A0000F9108958430D1F08530B9F7809173026C
:1047B00090917402009789F306C0809175029091E0
:1047C0007602009799F3DF91CF911F910F910C948E
:1047D00083238091770290917802F3CF80917902C0
:1047E00090917A02009779F72091730230917402C8
:1047F000809175029091760221153105D9F20097CA
:1048000011F7C901E0CFCF93DF9300D000D00F9212
:10481000CDB7DEB790931E0380931D03811520E270
:10482000920748F40F900F900F900F900F90DF9128
:10483000CF910C946C0D8EEF89838A8381E08B83FA
:104840000E94CE048160782F9D838C8349815A8198
:104850006B818D810F900F900F900F900F90DF91D3
:10486000CF910C943F21CF93DF93EC010E9403245E
:10487000CE01DF91CF910C9483230F931F93CF939D
:10488000DF938C01862F63E772E00E94E40E892B90
:10489000C9F4C0917302D0917402209799F0F80185
:1048A0008081833069F4CE010E943324CE010E94BE
:1048B0003324CE01DF91CF911F910F910C943324BB
:1048C0008430B8F7DF91CF911F910F9108950F9326
:1048D0001F93CF93DF938C01EB0163E772E08C2F82
:1048E0000E94E40E892B09F064C0FE01FF27D80165
:1048F0008C91E559FD4F8130D9F419969C91199707
:10490000992311F080830CC01A969C919923D1F3BE
:1049100082E0808380917502909176020097D9F4AD
:104920008091730290917402009709F442C013C001
:104930008230E9F519968C91199781112DC01A963C
:104940008C9181110EC083E08083809177029091D9
:104950007802009719F1DF91CF911F910F910C947C
:10496000032484E080838091790290917A020097F9
:1049700091F780917302909174020097F9F00E9470
:1049800033248091750290917602009721F78091EF
:10499000730290917402DFCF85E08083809173026F
:1049A00090917402009729F00E943324F0CF86E0A2
:1049B0008083DF91CF911F910F91089580917502AF
:1049C00090917602B1CF1F920F920FB60F921124E1
:1049D0002F933F934F935F936F937F938F939F9307
:1049E000AF93BF93CF93DF93EF93FF93D091E90001
:1049F000DF708091EC00C82FC17080FDC0E810927C
:104A0000E9008091F000877F8093F00078940E9405
:104A1000CD101092E9008091F00088608093F00042
:104A2000CD2BCF70C093E900FF91EF91DF91CF9133
:104A3000BF91AF919F918F917F916F915F914F91B6
:104A40003F912F910F900FBE0F901F9018951F92BE
:104A50000F920FB60F9211242F933F934F935F93B2
:104A60006F937F938F939F93AF93BF93EF93FF9336
:104A70008091E10082FF09C08091E20082FF05C0C1
:104A80008091E1008B7F8093E1008091DA0080FFCC
:104A900024C08091D80080FF20C08091DA008E7FF2
:104AA0008093DA008091D90080FF9DC080E189BDAC
:104AB00082E189BD09B400FEFDCF81E08093D0047E
:104AC0008091C304811109C00E9414030E94DF0376
:104AD0008091E20084608093E2008091E10080FF99
:104AE00017C08091E20080FF13C08091E2008E7FAA
:104AF0008093E2008091E20080618093E2008091E7
:104B0000D80080628093D80019BC85E08093D004DF
:104B10008091E10084FF2BC08091E20084FF27C0D8
:104B200080E189BD82E189BD89B5982F917080FFB0
:104B3000FBCF8091D8008F7D8093D8008091E100D9
:104B40008F7E8093E1008091E2008F7E8093E2006F
:104B50008091E20081608093E2008091D1048823FB
:104B600009F447C084E08093D0048091D004809100
:104B7000E10083FF27C08091E20083FF23C0809182
:104B8000E100877F8093E10082E08093D00410925F
:104B9000D1048091E1008E7F8093E1008091E2005A
:104BA0008E7F8093E2008091E20080618093E2003A
:104BB00042E060E080E00E94AD038091F0008860F8
:104BC0008093F000FF91EF91BF91AF919F918F91F2
:104BD0007F916F915F914F913F912F910F900FBEF9
:104BE0000F901F90189519BC1092D0041092C30416
:104BF00074CF8091E30087FD93E09093D004B5CF0C
:104C000078941F921FB61F9211248F939F93AF9396
:104C1000BF938091BC049091BD04A091BE04B0915B
:104C2000BF040196A11DB11D8093BC049093BD04E7
:104C3000A093BE04B093BF04BF91AF919F918F9199
:104C40001F901FBE1F9018951F921FB61F92112410
:104C50008F939F93AF93BF938091BB04811113C037
:104C60008091BC049091BD04A091BE04B091BF049A
:104C70004196A11DB11D8093BC049093BD04A093E7
:104C8000BE04B093BF04BF91AF919F918F911F90CD
:104C90001FBE1F901895CDB7DEB7EC970FB6F894EE
:104CA000DEBF0FBECDBF84B7877F84BF0FB6F89439
:104CB000A8958091600088618093600010926000E8
:104CC0000FBE80E890E00FB6F89480936100909357
:104CD00061000FBE85B7806885BF85B7806885BFD6
:104CE00089E996E09093A5018093A4010E94F80EB3
:104CF0000E9469100E9414030E94DF038091E20069
:104D000084608093E20078948091D0048823A1F09D
:104D10001091E9001F709091EC00892F817090FD37
:104D200080E8182B1092E9008091E80083FD0E9432
:104D3000CD101F701093E90082E084BD93E095BD13
:104D40009AEF97BD80936E00109236021092370250
:104D500010923802109239020E944210811102C052
:104D60000E94D50E8EE090E00E94C12E91E081114C
:104D700001C090E0909348010E944D0B81110E9468
:104D8000952C80914801811149C0FE01759684E1FE
:104D9000DF011D928A95E9F784EF898385EF8A8385
:104DA00086EF8B8387EF8C8386EC8D8383E98E83FC
:104DB00086E38F8382E3888783E3898781E38A8719
:104DC00087E98B8786E68C8784E98D8780E98E87E3
:104DD00081E98F8785E3888B84E3898B8FEF8A8BCA
:104DE0008B8B8C8B7497A0E2B1E0CE0189962081E9
:104DF0002C93218111962C931197228112962C933A
:104E00001297238113962C931397248114962C9335
:104E10001497359615968E179F0749F7809148018C
:104E200094E0811190E09093490284E0891B809383
:104E3000480220E231E061E070E0D90150E040E05A
:104E40008D918F3F91F0E82FE295EF70F0E0F1A0A7
:104E50008F708B0101C0000F8A95EAF7902F909513
:104E60009F2191A382A1802B82A34F5F5F4F45308A
:104E7000510531F72B5F3F4FB1E028343B07E9F68E
:104E800088E0E6E5F2E0DF01282F1D922A95E9F798
:104E9000E0E4F2E0DF011D928A95E9F790E080E01E
:104EA0000E94C92E8A3E9E4F21F40E944210811119
:104EB00002C00E94B91482E090E00E94C12E80934B
:104EC0004B020E945B1090933B0280933A020E9437
:104ED0007D1FEFE3FCE93197F1F700C000000E946D
:104EE0007D1F8EE090E00E94C12E24E0811120E021
:104EF000E22FF0E0EA5AFD4F808190E002C09595E4
:104F000087952A95E2F780FF08C06FEF7FEF90E06A
:104F100080E00E94ED2E0E94A20483E090E00E94B7
:104F2000C12E0E94370A8CE090E00E94C12E90E0D2
:104F3000B0E0A0E080933C0290933D02A0933E023B
:104F4000B0933F020E944D0B811102C00E94982C29
:104F500089E491E09093B8048093B70468E1662EE9
:104F6000712C70E4372EE0E14E2EF0E15F2E8E01C1
:104F70000F5F1F4F5E01F3E0AF0EB11C8091D004B4
:104F800052E1F52E853009F479C10E947D1F81110F
:104F90000E94C204E6E5F2E0ACE4B2E0F12CE12CC0
:104FA0008E2CC1908D918C1509F477C18C25912C94
:104FB000DD24D394982F9D2109F46AC10E944D0BE2
:104FC000882399F09BAA8CAACD2081E009F480E087
:104FD0008DAB0E94CE048160782F9FAB8EAB4BA926
:104FE0005CA96DA98FA90E943F21F701E45BFD4FE9
:104FF0008081D826D08286E0E5E6F2E0D8010190F3
:105000000D928A95E1F7D0906702C0906802F09007
:105010006902E0906A021092670210926802109290
:10502000690210926A028D2D8C2909F448C0809182
:105030006302909164020E94B3049C0190915F020C
:10504000992309F40CC423333105C8F19F3F19F0AB
:105050009F5F90935F02DD2059F00E9411069FEF41
:105060001D140CF491E0899F802D11248093670218
:10507000CC2059F00E9411069FEF1C140CF491E013
:10508000899F802D11248093680230916702332319
:10509000B1F020916802222391F045EB3403C00166
:1050A0001124992309F412C19093670245EB24035C
:1050B00090011124332309F40DC1309368028F2D20
:1050C0008E2909F448C080916102909162020E9489
:1050D000B3049C0190915E02992309F4BBC3253669
:1050E0003105C8F19F3F19F09F5F90935E02FF204A
:1050F00059F00E94EF059FEF1F140CF491E0899F77
:10510000802D112480936902EE2059F00E94EF0552
:105110009FEF1E140CF491E0899F802D1124809341
:105120006A02309169023323B1F020916A0222238E
:1051300091F045EB3403C0011124992309F4CEC04A
:105140009093690245EB240390011124332309F461
:10515000C9C030936A028091670290916802892BDE
:1051600090916902892B90916A02892B11F00E941B
:10517000450586E0F801A5E6B2E001900D928A951A
:10518000E1F70E94700B90914A02891721F00E946A
:10519000700B80934A028091D004843009F0EECEE7
:1051A00083E08093E9008091E80082FFE7CE809160
:1051B000E80090E085FF0AC00E94330340E2C42E5D
:1051C000D12C7801882309F49BC091E08091E800FC
:1051D0008B778093E800992309F4D0CEE0901F03E9
:1051E000F09020038981E114F10409F497C08E3F07
:1051F00009F0D6C08A81833020F08550833008F0D2
:10520000CFC0EA81EE3008F0CBC0F0E0EF5CF04DAB
:105210000C946A2E8091D004843009F11092BB0462
:105220000FB6F894A895609260000FBE30926000AF
:1052300083B7817F846083BF83B7816083BF7894A5
:10524000889583B78E7F83BF0FB6F894A895809119
:105250006000886180936000109260000FBE8091B2
:10526000CF04882359F00E947D1FE6E5F2E081918A
:105270008111D1C222E0EE35F207C9F78091D00446
:10528000853009F4C7CF0E94C2100E94700B7DCEFA
:105290009394DD0C35E093128DCE4FEFE41AF40AAF
:1052A00088E0E816F10409F07BCE8FEF88AF89AF74
:1052B0001AAE0E94CE048160782F9CAF8BAF48ADB0
:1052C00059AD6AAD8CAD0E943F2195CE81E08093AF
:1052D0006702ECCE81E080936802F1CE81E080939A
:1052E000690230CF81E080936A0235CF8091F1006E
:1052F000D7018D937D01B1E0CB1AD10809F465CFB8
:105300008091E80085FDF2CF8091E8008B77809353
:10531000E8000E943303882399F357CF8D3009F4B6
:10532000AFC0B0F4843009F492C048F4823041F147
:1053300008F07EC0813001F18FEF898331C0863063
:1053400009F49BC008F48EC08C30B1F75A8228C093
:10535000813109F4F1C040F48F3009F4BFC008F482
:1053600093C00E94CE0D1CC0833109F411C108F412
:10537000E6C08E3F09F745CF1A8289E08B8310C0C3
:105380008A81823009F45DC2833099F18130A1F6BF
:105390000E94C2040E94702E6B837C838D839E8347
:1053A0008091D004843009F0E9CDF090E9002F2DF0
:1053B0002F70F22E9091EC00892F817090FD80E883
:1053C000F82A82E08093E9008091E80080FF0CC019
:1053D00050E040E060E270E0C8010E946403809108
:1053E000E8008E778093E8008F2D8F708093E9001E
:1053F000C5CD8091550190915601892B89F28091FC
:1054000056028B83809157028C83809158028D8342
:10541000809159028E8380915A028F8380915B0222
:10542000888780915C02898780915D028A87B8CFE6
:105430008A81823009F080CF6B817C818D819E8151
:105440000E94702E86E290E00E94CF2EA9CF4C8160
:105450006B818A810E944E0F9827892798279E8307
:105460008D839ECF2D813E813227232732274C8189
:105470006B818A810E94DE0D93CF0E94480E90CFEF
:1054800081E08A8389EA7ACFEC80F12CEDE1EE1697
:10549000F10408F085CFCA80DB80DC24CD24DC2435
:1054A0004801E00EF11EC601895A9D4F8E149F04DB
:1054B00009F476CFF9EACF16F1E0DF0660F40E9436
:1054C000C12ED40114968C93FFEFCF1ADF0A2FEF71
:1054D000821A920AE8CFF4011482F6CF8091550126
:1054E00090915601892B09F45BCFCC80D12C3DE102
:1054F000C316D10408F054CFEA80FB80FE24EF24C9
:10550000FE244801CE0CDF1CC701895A9D4FEC14C4
:10551000FD0409F445CF49EAE41641E0F40628F415
:10552000D40114966C910E94CF2EBFEF8B1A9B0A68
:10553000EFEFEE1AFE0AE8CF84E08A8331CFEC80E9
:10554000F12CFDE1EF16F10408F02ACFCA80DB80D0
:10555000DC24CD24DC244801E00EF11EC601879630
:105560008E149F0409F41CCF20E4C21621E0D20659
:1055700060F40E94C12ED40114968C93FFEFCF1AD1
:10558000DF0A2FEF821A920AE9CFF4011482F6CFD4
:10559000CC80D12C3DE1C316D10408F001CFEA80C4
:1055A000FB80FE24EF24FE2440E4E41641E0F406F0
:1055B00008F0F6CE80E491E08E199F098C159D05C8
:1055C00008F4EECE4801CE0CDF1CC7018796CE143E
:1055D000DF0409F4E5CEA0E4EA16A1E0FA0620F41F
:1055E000F40164810E94CF2EFFEF8F1A9F0A2FEFE4
:1055F000E21AF20AEACF88E0E9E5F1E0DE019996E5
:1056000001900D928A95E1F780E2D8011D928A956A
:10561000E9F784E0898388E0FE01B996DE011596FA
:1056200001900D928A95E1F7BBCE84E3898381E0F6
:105630008A831B821C82B4CE8C81682F70E0762F07
:1056400066278B81860F972F911D092E000CAA0BC0
:10565000BB0B35E0880F991FAA1FBB1F3A95D1F7E6
:10566000AC01BD01405E5F4F6F4F7F4F4817590738
:105670006A077B0708F494CE8433E1E09E07A10516
:10568000B10508F08DCE4533F1E05F076105710586
:1056900020F044E351E060E070E0481B590BBC018E
:1056A000615C7D4FC8010E948B2E7ACE4EE150E0A6
:1056B0006FEF70E0C5010E94AA2E80915501898389
:1056C000EA826ECE81E090E09093200380931F03E6
:1056D00082E390E090935502809354020E94CE049E
:1056E0005FCE809155018983EA828091540246CE33
:1056F00040E250E06FEF70E0C8010E94AA2E50CE49
:105700008B81823009F44BC0F0F4882309F43FC048
:10571000813009F045CE8C819AE0D92E7E01B9E224
:10572000EB0EF11CF7012D2D11922A95E9F7B70127
:105730000E94E40E8983F701DE01129601900D921A
:10574000DA94E1F72DCE833009F447C0843009F0B4
:1057500027CE6C818AE0FE013596DE019996019094
:105760000D928A95E1F78FEF603168F4FAE06F9F50
:10577000B001112469547E4F4AE050E0CE01899671
:105780000E94F32E80E089830E94691009CE8EE189
:10579000D5011D928A95E9F788E08983D7CD6C8180
:1057A0008AE0FE013596DE01999601900D928A9568
:1057B000E1F78FEF683068F43AE0639FB00111249D
:1057C00069597E4F4AE050E0CE0189960E94F32E3F
:1057D00080E089830E94F80EE3CD6C812AE0CE013F
:1057E0008996DC01E22F1D92EA95E9F7603188F491
:1057F000629FB001112469547E4F4AE050E00E943C
:10580000B12E80E089838AE0FE01B996DE0112960E
:1058100007CF8FEFF7CF49BCF9BC09B400FEFDCF2D
:105820008091D8008F7D8093D8008091E0008260C5
:105830008093E0008091E00081FDFCCF0E94C210C7
:105840001DCD86E290E00E94C12E1B821C821D822B
:105850008E83A6CD2D32314008F046CC7CCC2D3243
:10586000314008F0F5CB2BCC8EE14A9B02C0815031
:10587000E1F74A9BFECF08955A9880E28A95F1F7A6
:105880005A9A0895FC013BE03A95F1F798E020E040
:1058900080E031E040E14A95F1F7880F4A9B02C071
:1058A0008160232742E04A95F1F7000040E14A95E4
:1058B000F1F7915079F790E19A95F1F799B132E0CB
:1058C0003A95F1F7000040E14A95F1F792FB9927EC
:1058D00090F992272081920F90830895EF92FF9282
:1058E0000F931F93CF93DF930F92CDB7DEB719823B
:1058F0008C017C01E60EF11C0E151F0561F481E0A0
:105900009981911180E00F90DF91CF911F910F91BC
:10591000FF90EF9008950E94342CCE0101960E94D2
:10592000422CF80181938F01E7CF529A5A9A089539
:1059300052985A9AEA9AE9E6F0E080818F7C808357
:1059400008956150770B91E001C0990F6A95EAF7CD
:1059500020E031E0911108C0222391F05A9A80E2B0
:105960008A95F1F75A980895492F482339F05A9AA1
:10597000232740E24A95F1F79695ECCF5A98F9CF54
:105980005A98EDCFFF920F931F93CF93DF93EC01C3
:105990008C01060F111DC017D10731F4DF91CF9193
:1059A0001F910F91FF900895F9900E943C2C68E0A0
:1059B0008F2D0E94A12CEFCF1F920F920FB60F9246
:1059C0001124EF92FF920F931F932F933F934F93C6
:1059D0005F936F937F938F939F93AF93BF93EF9357
:1059E000FF93CF93DF930F92CDB7DEB719820E945A
:1059F000342CCE0101960E94422CA82FA695A69584
:105A0000A695282F229525709A2F9570290F922FF1
:105A1000937026952695920F982797708981982BD9
:105A200009F075C0A43008F072C080E18A95F1F7E2
:105A30005A9A529AB2E0BA95F1F700C05A98EA2EF3
:105A4000F12CEAE0AE9FD0011124AE5FBE4F189654
:105A5000ED91FC9119973097B1F06091920170919E
:105A6000930116962D913C911797260F371F139689
:105A70008D919C911497680F791F15964C911597ED
:105A800012968C9109958AE08E9DF0018F9DF00D04
:105A90001124EE5FFE4F6581662351F02091920143
:105AA0003091930186819781820F931F0E94C22CAF
:105AB0000E943C2CF0E1FA95F1F75A9852985A9AC4
:105AC00080E18A95F1F78AE08E9D80018F9D100D0F
:105AD00011240E5F1E4FD80112966C911297662307
